S02B00002F73646B323032362D6669726D776172652F67656E6572617465642F636D616B655F6763632F62756F
S214004000C80A0020C33001006DB4010071B401007D
S2140040103D37010075B401007DB40100C1300100D8
S214004020C1300100C1300100C1300100C1300100C3
S21400403081B4010054620200C1300100C1300100A9
S214004040C1300100C1300100C1300100256600000A
S214004050C1300100C1300100C1300100C130010093
S214004060C1300100C13001000F6B0100C1300100FA
S21400407031C70000C1300100C1300100C13001006D
S214004080C1300100C1300100C1300100C130010063
S214004090C13001009B380100C1300100C130010071
S2140040A0C13001002131010001310100C1300100A1
S2140040B0C1300100C1300100C1300100E12D020015
S2140040C0EB4D0200E74D020011250200014E0200F2
S2140040D0EF4D0200A12D0200F34D02006114020014
S2140040E0212E0200C1300100C1300100C1300100A4
S2140040F0C1300100C1300100C1300100C1300100F3
S214004100C1300100C1300100C1300100C1300100E2
S214004110C1300100C1300100C1300100C1300100D2
S214004120C1300100C1300100C1300100C1300100C2
S208004130C130010094
S21400414070B5104A104C114DE3695E0714D4082868
S21400415001D12B4213D103EA00068E4207D10B4A47
S2140041601A40002A14BF6FF00100002070BD013A0B
S214004170EAD16FF00200F9E74FF0FF30F6E76FF094
S2140041800100F3E78096980000000350020001004B
S214004190000000000000000000000000000000001A
S2140041A02DE98048B74BCDB05B691A0B03F03F038F
S2140041B0012B8DF8E0208DF8E13015D1B24B9A6DC9
S2140041C0D40311D45A6B6FF3162242F4BC1242F495
S2140041D0A0625A631A6B22F4704242F440421A6399
S2140041E01A6B42F4E0621A63BDF8E030B3F5807FE4
S2140041F00CD14FF000531B68A44B1B68A44B1B68E4
S214004200A44B1B68A44B1B68A44B1B68A44AD2F89B
S214004210803043F00303C2F88030EFF3118330227E
S21400422082F311889F4C94F84920002A40F0758448
S214004230012284F8492083F31188BFF36F8F6FF053
S21400424004035025984A994913F0800F03F10100A2
S21400425040F05B840B443D2883F800530346F3D1BB
S214004260934BD3F84C21100300F15D84D3F85051E2
S214004270EDB2904B904A93F90060904B2E441A6032
S214004280874B86F308061B6F03F00703032B01D149
S21400429021F03AFA12F08AFF032842D045F60E03C0
S2140042A00221794AC2F88030854B9962012103F5D4
S2140042B080539962936DD903FCD4824B8249136173
S2140042C0936903F0004343EA064343EA052343F0B9
S2140042D0407343F03C039361136A23F00D031362AB
S2140042E0936A23F0330343F001039362664A936DA7
S2140042F031EA0303FBD10221714B9962936D5B0097
S214004300FCD4136923F4700343F4001313614FF0D5
S21400431000426B4B9A61022203F580539A62012297
S2140043209A62634BD3F89850684B5A68012A00F09B
S214004330018412F03BFF042807D1654812F0EEFE18
S214004340574A136F43F480631367624A25F040733D
S214004350D16811F0060FFBD19168936090684340D6
S21400436013F4F81F05BF5C4B594A91601A6012F0AF
S2140043701DFF042812D121F0C7F912F0CFFE01204C
S21400438010F042FE5549464A884294BF002001205C
S214004390136F23F4806343EA80231367444B504A29
S2140043A0D3F8C0303E4D23F0407393602E6F4848DC
S2140043B0C6F38026731C84F84A3012F0AFFE2B6FCB
S2140043C043F480632B672B6F23F0070343F002034D
S2140043D02B6721F099F912F0A1FE2B6F324923F4D6
S2140043E0806343EA86232B672B6F23F4505343F4F2
S2140043F080632B67D1F8FC2012F080721EBFD1F8C4
S214004400FC3023F08073C1F8FC30D5F8803023F000
S214004410030343F00203C5F8803032B1224AD2F8D3
S214004420FC3043F08073C2F8FC301D4BD3F82021DB
S21400443022F0070242F00102C3F82021D3F88021BF
S21400444022F0030242F00102C3F88021D3F8402193
S21400445022F0030242F00102C3F84021D3F86021A3
S21400446022F0030242F00102C3F86021D3F8402292
S21400447022F0030242F00102C3F84022D3F80022E1
S21400448030E000BF00C0075000C0005000400020D1
S2140044900080002000C00020000001200040012015
S2140044A000800050B019002000ED00E000E100E0C0
S2140044B00080E00FF031002000F04902A43F002009
S2140044C000D000502008B00B0300014000C001508F
S2140044D000B4C40400000150A03F002080F0FA029F
S2140044E00040015A22F0070242F00102C3F80022FF
S2140044F0D3F8082222F0070242F00102C3F808228D
S214004500BD4A536A23F0010353624FF0E022136959
S21400451043F004031361B94B5A6F42F001025A6725
S214004520DA6E22F03002DA66EFF31186302383F378
S214004530118894F84B30002B3ED14FF0B045B04A6E
S2140045401360B04A1360B04A13606B680BB110F08A
S21400455009FF01230021AD4A5360A960AC494B60B6
S2140045600223EB606023EB631F23936153614FF0DC
S214004570B0439A6A12F00802FBD11A625A685B6866
S2140045800BB110F0EFFE0127A14D6F6010F0EAFEB0
S2140045904FF0B0434FF48062DF609E4BC3F880213B
S2140045A01A601220AF6138A921F0B9FC389A9A4BEC
S2140045B01A60002A40F0C58286F31188BFF36F8F19
S2140045C011F09CFF954A964DD2F8C030954E23F0D8
S2140045D0FF0343F0A003B5429349C2F8C03000F091
S2140045E0078326F01F03203BB3F1005F80F00183B2
S2140045F08E4B0A68894823F01F0343F00303C0F874
S2140046009820C0F89C308A4B0132C0F8A0300A606F
S214004610BFF35F8F0525814BC3F894505A6A42F466
S21400462080325A62BFF34F8FBFF36F8FBFF34F8F47
S214004630BFF36F8FDFF828B27E4816F012FFBBF884
S2140046405830BBF85A10DBF8682001EB43010139FB
S214004650342011F016FF0BF16C0016F002FFBBF8C9
S2140046605830BBF85A10DBF86C2001EB43010139D7
S214004670072011F006FF0BF1700016F0F2FEBBF8F3
S2140046805810DBF8702049080131012011F0F9FEBE
S2140046900BF1740016F0E5FEDBF85400DBF874202E
S2140046A0113080B2BBF85810043011F0EAFE0BF15E
S2140046B0780016F0D6FEBBF85810DBF878200139E3
S2140046C00C2011F0DEFE0BF17C0016F0CAFE294627
S2140046D00025DBF87C20942011F0D3FE0BF180003F
S2140046E016F0BFFEDBF88020BBF85A10082011F049
S2140046F0C8FECBE9185510F027FE4FF050234FF4B4
S2140047000032C6071A6709D401221146154601FA77
S21400471005F3034002F1010200F07B82464B33F8BA
S2140047201530464A062B116845480A918AB24FEA68
S214004730114140F075824FF20F03994240F06D82AE
S214004740B2F5406F28BF4FF4C06202804FF00053AE
S2140047504CF23C325A80314A536A43F47023536217
S214004760EFF308834FF0CD31364A043B934280F096
S214004770688200239B6AB3F5804F80F093801A68A6
S214004780314B9A4240F08E8094F84C5015F0FD055F
S21400479040F088802D4E3378002B00F0558202239F
S2140047A0337008214FF480331A4A2948C2F8801122
S2140047B0C3601160274A136100239B6ADB69984730
S2140047C033780746012B40F0C88202F0F5F9013035
S2140047D040F0B482226E204B1A66626E5A66A26E53
S2140047E0C3F87021E26ED20700F1B4821B4A536808
S2140047F001334BD136E000BF00C0075000400050E8
S21400480038310020103200200C32002000200058E2
S2140048100010005800E100E08C0D002000ED00E0E4
S214004820803E0020203E0020043200209F3E0020D4
S214004830E1FF0020EC3E0020806E02000000002019
S2140048401E1100200800002007B0CD5ED20A00200E
S21400485000A0004400900044008000440040002077
S214004860843E002094F84C3083B9BB494968C90798
S21400487048BF5360B94B5B68DB0744BF01235360F6
S214004880B74B5B68D80744BF022353601BF0E4FBBA
S214004890236D83F31188BFF36F8F357017B901232B
S2140048A084F84C30AF49B04811F012FD11F03AFED2
S2140048B0AE4B1A68910104D44FF00072C3F8802101
S2140048C01A601A68520104D44FF08062C3F880213F
S2140048D01A600023CBE90233CBE908B3CBE90DB36A
S2140048E0A34ADBF84C00CBF81030CBF840308BF8FE
S2140048F04430ABF8C4308BF82830CBF81C308BF83B
S2140049003C30CBF83030CBE9003311468368A2F157
S2140049105007984768BBDBF84C000368984740BBD5
S214004920DBF84C003946436898470546D8B93E46FA
S2140049300146CBF89800CBF8C0008BF8BC00ABF86B
S2140049409400202207F19C001FF0CAF846F8845F06
S214004950C6E90155DBF84C00C7F89050C368984785
S214004960002800F0FC81834802F0B9FA824802F081
S214004970B6FA05F0B3F920F0DBFE00217F4B0846BF
S2140049805B6811F0A5FC08B1122809D138A813F00D
S214004990EFF828B94FF0FF309DF8E0101FF070FBDD
S2140049A0002612F0FDF91422002138A81FF098F80E
S2140049B0734B38A94FF0FF3039931FF0F3FC0123F7
S2140049C0B04638A94FF0FF30CDE938668DF8E230B2
S2140049D01FF0B6FB6FF00A014FF0FF301FF0E5FC4A
S2140049E017F07AFB4022314666481FF079F83022ED
S2140049F0314665481FF074F8624D644B644ADFF830
S214004A00E491DFF8E4E1DFF8E4C1A3F1180705F16B
S214004A10400A2426002106FB08F65E4843E90615F0
S214004A2043E9030EB81943F8109C43F804CC017709
S214004A300162C8F1000000F01800504442F8140C5F
S214004A40554842F8181C42F8100C544843F8241BEA
S214004A5042F80C0C5248203542F8080C514842F8EF
S214004A60040C5148304408F10106022E01774FF03D
S214004A700108016242F8241BCBD1404620F010FA10
S214004A800546002840F0DD8100200021474B4FF608
S214004A90FF7AC3E9000141F60B23454A7F21938044
S214004AA0444B156044482022C4F8FC30ADF824A0DE
S214004AB08DF826801FF014F847F67F723F4B4FF0B4
S214004AC0FF391A803E4B3F491B88C4F81C11A4F8D6
S214004AD00C313D4B2A461B682439C4F814313B4B35
S214004AE038A81B8809AFA4F80E31394BCDF8E090F2
S214004AF01B68C4F818314FF08003A4F8103117F083
S214004B0049FB002800F04B81FEE703F00F03043B4F
S214004B1013441D760346FFF797BB83F31188BFF354
S214004B206F8FFFF79DBB2B4B1D88FF2D88BF802501
S214004B30FFF79FBB28494A609A699707FCD1FFF7A1
S214004B40F8BB002340F2E73124481EF0A7FD244BB3
S214004B5084F84B7018602FE50080055000C00550A3
S214004B600000065074680200201A002000E100E0F1
S214004B70D43E00209C3E0020B03E002000ED00E029
S214004B80006A18003C1A00207C1A0020A80D00209D
S214004B90D00F002079D2000075DA000085D2000020
S214004BA0A5DA0000ADDA0000B80F002030110020B2
S214004BB04C110020C52801007F1300207D13002023
S214004BC0C6890200D01A0020CC890200C4890200DF
S214004BD0C88902000001E00F00E0015018FCFFFF4A
S214004BE0880D00200D23010019DA0000692301005A
S214004BF0A54B0868A54FC2F8980043F001030130A2
S214004C00B542C2F89C70C2F8A03008603FF400AD10
S214004C10EEE4102A7FF47AAD83E54FF4C06294E5A3
S214004C2040F20725AB420AD14FF20F05A94206D142
S214004C309A4202BF4FF000524CF23C315180038042
S214004C4089E543F8041991E50127209528953770E2
S214004C50EFF31183302282F3118823651BF0F4F9F9
S214004C6094F854304BB911F05DFC30B98849894846
S214004C7014F00CF908B984F85470874B5A68E26649
S214004C80864A9A601A6E22665A6E6266D3F8703149
S214004C90834AA366834B5968481C36D04FF480136A
S214004CA08B40136604237E4A4FF0804113664FF410
S214004CB080631366102313664FF4005300271366B1
S214004CC011665366BB6AB3F5804F0FD2012338A82E
S214004CD08DF8E030CDE9397701F0EDFE3A9B5905C5
S214004CE004D5BB6A28A91B6C20A89847209A6C4B51
S214004CF01A66289A5A6694F85420002A3FF451AD52
S214004D00A26D1A66E26D5A664BE594F84C30002B9D
S214004D10C8D1654B5B6813B94FF480131366634BB9
S214004D205A685F4B12B94FF400121A66604A52680E
S214004D30002AB7D14FF480021A66B3E701F03CFFB1
S214004D4040F2011398423FF445AD5A4AD368D8075B
S214004D50FCD43FE500229A6048E501259DE53046F3
S214004D6006F0FEFB00287FF4FEAD04F0B7FF054614
S214004D7000287FF4F8AD4FF4844009F050FC00386A
S214004D8018BF01204C4A4D4B84F848001A604C4B23
S214004D9002201D6102F0BEFA02F064FAE9E5494914
S214004DA0389817F077FD00B1FEE7314638981FF0C7
S214004DB0E0F900B1FEE74449389817F063FF00B108
S214004DC0FEE7414638981FF0C0FB00B1FEE74146BB
S214004DD038981FF0C8FB054600B1FEE70146802262
S214004DE03A481EF07DFE394B41463898A3F83C9071
S214004DF083F87E9083F83EA0A3F87CA0DFF8E090CE
S214004E0017F02EFA389BC9F8003003B9FEE71CA34A
S214004E10D3E900234FF0FF304FF0FF3109F02AFDB1
S214004E2029462B4809F036FF4146404620F020F838
S214004E303946D9F8000017F0EBF900B1FEE70DF09F
S214004E4079FF10F081FA234B4FF4003218604FF0D0
S214004E5050231A67204B214D039395F8E430002B1E
S214004E6040F0DA80C5E90135C5E903356B614FF6D8
S214004E70FF73DFF87080B8F800709F4236D1FEE707
S214004E800AE020FF220200000000012003000020AC
S214004E90081A0020D80A00200080004455CEAC0036
S214004EA000900044004000200080055000C00550DF
S214004EB00000065000000440616C0000980B0020C3
S214004EC09C0B002007001100A06E0200B811002005
S214004ED04C11002024140020501B0020D80D002068
S214004EE00C110020E01200200126B6E7FFB9B946F3
S214004EF00DF12C0AC7F1040138AA89B20AEB0700A3
S214004F00CDF8E09012F0E5FE002840F09980389B3E
S214004F101F44032FEED9DAF80030002B00F0918002
S214004F206FF00042934208BF01237C4A1360B8F832
S214004F300030C5E9075501336D62A8F8003008F067
S214004F40CAF90027764B05F13001A86200F18040CF
S214004F50744A6B63E963A863EF6205F108002D638A
S214004F600AF075FAFB23704AA5F85830EB69302131
S214004F709B1A1E22DB10B3FBF2F34FF00B094FF621
S214004F80FF7A6A4ADBB201FB032305F18000C5E91C
S214004F901C35C5E91277C5E91E772D6485F844905F
S214004FA0A5F846A02F656D650AF084F905F1900016
S214004FB00AF080F905F1A0000AF07CF95C4B05F1D7
S214004FC05408C5F8BC3005F1B803C5F8C4304046EF
S214004FD0C5F8B8500BF066F94046C5E91377AF64DC
S214004FE085F84490A5F846A00BF05CF90C23C5E9BB
S214004FF03777C5F8CC30C5F8C850A5F8CE70A5F8F8
S214005000D07085F8DA7085F8E4700AF093F9012319
S214005010C5F8E80085F8E430039B012E43F8045BEE
S214005020039305F1F0057FF45FAFD4F8A071C4F8E0
S214005030A87147B969213F4B3F4A404816F05AFAD3
S214005040FEE7012371E7D4F8A4913D4C00252346E2
S21400505043F8E97B636104F6E903A3614FF4006358
S21400506004F114063046A383C4E908550BF088F90A
S214005070266623460426013EC3E9195503F10803B4
S214005080F9D1C823DFF8C4E00022C4E92CE34FF6C8
S214005090FF73A4F8B8302B4B0421C4E93036002344
S2140050A0294DC4E92266C4E92466C4E92666C4E933
S2140050B03423C4E93623A4F8846084F8A860C4F8CE
S2140050C0AC60C4F8BC70C4F8C86084F8E010C4F8DB
S2140050D0E46084F8E86084F8ED6884F8EE68A4F884
S2140050E06869A4F86E69A4F87069C4F88069C4F8A1
S2140050F08469C4F88869C4F88C6984F89069C4F82F
S214005100946945E90223D4F800A0C4F8A069A4F87D
S214005110A469BAF1000F1BD1FEE700BFE41200201D
S214005120B5F40000BC620200D80D0020F812002082
S214005130612701001F890200CC6E02002989020047
S214005140F01B0020012301009025002000F8FF0737
S214005150634BDFF8BC8178223146A5F1B000C4E984
S2140051600A34C8F800401EF0BBFC4FF0FF33C4F80A
S21400517076395C4B5C4A7721C4F87269C4F87A6960
S214005180C4F86A69C4F8E968A5F50D60CAE9373459
S214005190C2E900340CF0B2FAA5F6E4000AF0E0F832
S2140051A0504BC4E90167C7E93734C9E937344F4B78
S2140051B0C4F80C90C5F818384D4BA5F80668C5F825
S2140051C024384C4BC5F81478C5F83038D8F8003079
S2140051D0C5F81C68A342C5F82078C5F82868C5F845
S2140051E02C78C5F834686ED103969BF8C43043B16A
S2140051F0DBF80030002B67D13F488BF8C43006F050
S214005200AFF9DBF848402546002D63D1EFF3118255
S214005210302383F31188DBF848301B1BCBF848306B
S21400522082F31188BFF36F8F9BF8943023B1324816
S21400523006F002F98BF894509BF8BC3093B1032328
S2140052402D4828AA38A912F08DFA58B9BDF8A03012
S21400525038982BB10278DBF8C0301344CBF8C03056
S21400526001F03CFF254C237823B106F064F923783F
S214005270002B6FD1224B1B78002B6BD00DF1300A20
S214005280012351461F480DF1220212F06BFA044624
S214005290002840F08B82DAF800506B885A1E042AE9
S2140052A054D80622184F298802FB0372B2F86220EF
S2140052B091424BD1023B032B2CD8DFE813F00101BF
S2140052C013013B016102FEE793F85020022A98D1B1
S2140052D01B688FE70D4807F0B5FB013D94E700BF5C
S2140052E0AD2201009F0B0100B0190020AF050100A0
S2140052F00DDE000019F40000083F00208C0B002093
S2140053004C3F0020800B0020806E0200843E002070
S214005310081100200421AF4B2A7983F8AC11002134
S21400532083F8AD11012183F8AE116FF07F0183F889
S214005330AF1193F84810002940F0C080012A18BF2A
S2140053402424A548C3F8B04101F073FFDAF8000042
S21400535001F0C4FEDBF8083013B9DBF80C3023B1DB
S2140053609E4801F0E5FF0028F4D09C4B5B68002BBC
S21400537040F02F82994B302593F844603446EFF383
S214005380118785F3118896480EF0CCFA87F31188BA
S214005390BFF36F8F002840F05182EFF31182302365
S2140053A083F311888D4B93F844309E4240F251822D
S2140053B000238A4981F8443082F31188BFF36F8F47
S2140053C0844C039AD4F8A8315E685A60002E40F0E8
S2140053D04382D4F8A831834C04932278022AD3B2AD
S2140053E000F06882032B00F042820BB90123237081
S2140053F07D4B1C68002C00F02B85204609F0BEFF74
S21400540004F58D5001230DAA18A9083012F0AAF948
S214005410002840F00E8504F5805393F8A62112B9B3
S214005420012283F8A6210023189ABDF834509A4228
S21400543008BF1D460121C4F8902004220DF11F0963
S21400544004F1900884F86F1940464946A4F8945031
S214005450A4F89630A4F8985084F89A30A4F89C5093
S21400546084F8E02084F8A8308DF81F300BF038FC64
S214005470D0B99DF91F309DF81F70002B14DAD4F8B0
S2140054808439C7F301190133C4F8843984F8719953
S21400549004EB89035B682360002B40F042820622FF
S2140054A0394620460CF068FB002384F86F391898BC
S2140054B001F014FE002800F0BC84FEE7122440E74A
S2140054C00423444880F8AC31002380F8AD31022331
S2140054D080F8AE316FF07F0380F8AF312423C0F838
S2140054E0B03173E0414A2B1D05F1240153F8040B3B
S2140054F08B4242F8040BF9D114F0A0FF3C4B3D4917
S2140055001A68044601F5D6701EF04EFC06226B881B
S214005510304902FB03726FEA43436FEA5343B2F823
S2140055206420A1F8AE31A1F8AC21C1F8B04101F574
S214005530D67009E7274890F84830002B00F0118114
S2140055402022002120A81EF0CBFA2B4B2E1D1B7804
S214005550052B02D1032001F0DDFE28AA06F1200C5F
S214005560134630687168083603C366451A46F7D195
S2140055704021224804F090FBA8B9204B30AE03F13E
S214005580200C324618685968083303C2634516462D
S214005590F7D1002318AE38933246402138AB28A8FE
S2140055A012F092F860B301240A4BC3F8B041062209
S2140055B06B88084802FB03776FEA43436FEA53435E
S2140055C0B7F86420A0F8AE31A0F8AC2100F5D6708C
S2140055D0BAE600BFB01900205C1B0020843E002005
S2140055E0C43E0020E812002008110020D819002030
S2140055F000400020B8190020940B0020641B0020F7
S214005600B34B96E803009980090C9DF86E2018604D
S21400561099711A98BDF86C105A73C3F80700A3F86E
S2140056200B1005F1240238AB05F1440C1E46106839
S2140056305168083203C662453346F7D1A54B40AEE3
S21400564003F1200C324618685968083303C26345D4
S2140056501646F7D1002301224FF4844012A904F025
S21400566052FA064690BBDDF84880D8F80430D8E9F0
S21400567008191B0A2FD1B8F8003003F4E042B2F53F
S214005680805F10D0B2F5005F0DD044F2010223F423
S2140056904050904207D003F44F43B3F5824F02D0F8
S2140056A0B3F5844F1AD1B9F1100F1AD848AB4A4651
S2140056B018461EF079FB0021C9F1100248441EF07E
S2140056C00FFA404608F096FF06B968B1502138A890
S2140056D002F0ECF967E76FF08606F2E76FF08506F2
S2140056E0EFE76FF08906ECE7502112AB20AA38A846
S2140056F0129611F0E9FF0646502138A802F0D6F9B6
S21400570016B1202120A8E3E7734B1B78032B03D1A7
S214005710724B186804F04AFA12A801F076FD704B36
S2140057200DA815934FF440730D9301F076FD0D9B75
S214005730DFF8C8C11493002320A9CDE912C317933C
S2140057402022664B12A804F0E5FE0646202120A87B
S21400575002F0ACF9002E7FF426AF042001F0DAFD4B
S21400576022E7112280F8B13180F8B02180F8B231FA
S21400577080F8B331402100F5DA7002F097F916E7A9
S2140057804FF0AA334FF0AA32CDE90E230423554832
S21400579080F8AC31002380F8AD31052380F8AE31B7
S2140057A06FF07F0380F8AF31082398E61B280DD1F1
S2140057B04C4C94F8F431002B3FF4CCAD04F2F510C9
S2140057C001F037FD002384F8F431C3E505F0B3FE9D
S2140057D0C0E5EFF31184302585F3118842480EF0BA
S2140057E0A1F8074684F31188BFF36F8F97F84C3003
S2140057F03C1F022B13D1204601F032FB78B107F193
S2140058002C00D7F8A06020F0B1F9039B3046214663
S21400581087F84C300EF08EF820461FF0BDFFEFF3F1
S214005820118485F3118830480EF07CF8074684F31F
S2140058301188BFF36F8F0028D8D19BE5039B013CEE
S21400584003744368C068984714F0FF047FF497AD6C
S214005850A3E59B1BDBB2ACE5B068864216BF836847
S2140058600026B360039B836043689847AEE50CF060
S21400587080FD1E4BD3E9002390429941FFF4B8AD5A
S2140058801B4D286800B9FEE71E221A4B1A49C31A98
S214005890DB10B3FBF2F33022DBB202FB03110B7F0B
S2140058A00E7666F382030B770CF084FD01232E60E0
S2140058B023709DE50CF05DFD0C4BD3E90023904270
S2140058C09941FFF495AD0A4D2868C8B9FEE700BFB8
S2140058D09C0B0020841B0020940B0020B40C00209E
S2140058E000024805B0190020883E0020F012002073
S2140058F030140020D80D0020F812002000240001EB
S214005900B04B4FF0300CC71A1E23FF10B7FBF3F74F
S214005910AD49FFB20B2332460CFB07110CF0F8FE24
S214005920C4E7404620A90BF067FD002840F0AB8096
S214005930DDF880A0BAF1010F08D040F2B880AAF1D5
S2140059400203032B40F2AB80052250E202238DF8BF
S2140059504830B4F89630AB4205D0404612A90BF05A
S214005960BFF900B1FEE79DF84830022B40F0868074
S2140059700DF1E0084046276809F09CFC00211E2532
S214005980924BDFF840A21970FB699148A3EB0A031B
S214005990DB10B3FBF5F3DBB2402200EB83101EF006
S2140059A09FF8FB698B48A3EB0A03DB10B3FBF5F308
S2140059B0DBB24022002100EB83101EF091F801209C
S2140059C007F11C091FF06CFA48B1484609F0A6FC1E
S2140059D000B1FEE701201FF063FA00B9FEE70025DC
S2140059E04FF6FF71F86908F069FF484628A9CDE927
S2140059F028550AF081FC4FF6FE71F86908F0A0FF02
S214005A00404609F057FCCDF80080424643462946FA
S214005A10F86912F019F82946F86909F035FB2846A6
S214005A2012F0CEFF4FF6FF780B2307F1540087F8ED
S214005A304430C7E91355BD64A7F846800AF032FC27
S214005A4094F87139234483F86A5983F8725983F8B5
S214005A50768983F87A59206EC4F88059C4F8845938
S214005A60C4F88859C4F88C590AF08AFC7022802140
S214005A7020460CF081F8002872D0FEE7032B0CD1EC
S214005A8001F030F81B200BF06DFE9DF81F5002460B
S214005A90294620460CF06DF862E00DF031FF2890A4
S214005AA028A940460BF0A8FC18B10BF05BFE024696
S214005AB09DE1BAF1030F289D13D0AAF10403012B30
S214005AC008D853462A46394620460CF0FEF90028E8
S214005AD046D0D8E72B460022394620460BF0DCFF9E
S214005AE0F5E72B4610A81D223B490CF0CFF9DDE95F
S214005AF0103000F0010A002B40F07E81BAF1000F52
S214005B0040F07A81712D69D0B5F56F5F55D00C2DB8
S214005B1040F05D81404638A90BF0E2F8002840F0DE
S214005B204A819DF8E030022B3BD003D9DA1E012AC9
S214005B3088BF0323002584F8E0300C220123394671
S214005B40204684F8E8500CF03DFA94F8E030042B38
S214005B5030D0012338BB626C84F8A830C4F8E42047
S214005B6094F8ED2894F8EE389A4202D020460CF0CD
S214005B70DBFA94F871299DF81F30224492F8E91850
S214005B8003F00F0331B18B421EBFD4F888190131E0
S214005B90C4F888190F2B0CBF0123013382F8E938AB
S214005BA082E40123C6E7C4F8E45084F8A83084F8F9
S214005BB0E870D5E70028D3D0F9E7394620460BF041
S214005BC0F5FF84E7D80D0020F812002069130020A6
S214005BD00410002084100020086F020023689A6CCE
S214005BE0002A00F0F0801D6F002D00F0EE80404689
S214005BF012AA38A90BF0C6FC002840F0DC80BDF8DD
S214005C0048207F2A00F2D6802B46AA8053F8060B3F
S214005C10389905931EF0C8F8059B404619460BF0C8
S214005C205FF8002840F0C780AB794046AB7640F678
S214005C3004732B837F23EB762B7FC5E904AA23F01E
S214005C40170343F004032B7705F118010BF048F80F
S214005C50002852D1404605F119010BF041F8002802
S214005C604BD10DF1200A514640460BF049F800286A
S214005C7043D12B7F9DF820200DF1220A62F3820388
S214005C80514640462B770BF03BF8B0BB2B7F9DF878
S214005C9022200DF1210A62F30003514640462B777D
S214005CA00BF02EF848BB2B7F9DF821200DF1300A13
S214005CB062F34103514640462B770BF021F8E0B9DA
S214005CC02B7F9DF83020404662F304132B7705F1B6
S214005CD014010BF09BFA80B9404605F110010BF059
S214005CE095FA50B9404605F11A010AF0F9FF20B9B5
S214005CF0404605F11B010BF002FAD4F80080D8F8F4
S214005D004830002B5FD098F85A3008F15405052B20
S214005D1059D0D8F870A0DAF8000012F009FFB0B336
S214005D209AF81C30D80632D4504638A909F035FE09
S214005D3068BB9AF81C30D90704D4504698F8B410BB
S214005D4009F054FEB8F858309A0620D49DF8E03092
S214005D50082B1CD1D8F8703008F190029A60D8F859
S214005D607000037FDB070CD4D8F8B0A0514609F0CA
S214005D7024FED8F8B0309A4524BF0AF10101C8F8CD
S214005D80B010D8F8700008F162010AF02CF8002371
S214005D90284688F85B3088F85C3088F8B5300CF018
S214005DA0FDFBAF4BA14407F00F07C8F84C3089F84D
S214005DB07279D5E606200BF0D5FC39460246204619
S214005DC00BF0DAFE83E60D20F5E70320F3E7A5F5F2
S214005DD07053B3F5806F09D243F601439D424FF0EE
S214005DE0010984F86FA91CD084F86F990D223946F2
S214005DF020460BF0BEFE6AE6002284F86F294210A9
S214005E0004EB6000BAF1000F01D0A258D3589847AF
S214005E10012384F86F3900287FF447AE2B46012211
S214005E205AE640460BF00CFA172884F86F99F2D120
S214005E30DCE704F5805393F8A6314BB104F1140067
S214005E400AF07EFB20B904F58D50143009F088FA6C
S214005E50002108461FF0A0FF4FF00008814F824C3B
S214005E60EFF3108072B67D881FF098FF002D3CD1AE
S214005E704FF4F8501FF014F858B34FF480701FF02A
S214005E800FF87A4C0746002800F0968023682946CB
S214005E901B684FF480701B78754F13F0200F08BFF7
S214005EA000271EF0E5FF2B4600212268C2E90411F8
S214005EB0EFF31180302282F311886E4A82F83D1289
S214005EC080F31188BFF36F8F21683A46886A0CF01A
S214005ED01FFC694A049B9B1A1E22DB10B3FBF2F3DD
S214005EE0DBB2012B40F28A80FEE784F80080EFF3F5
S214005EF0108072B67A8882B13B88013A07EB83013C
S214005F00CD68B9880133B3FBF1FC01FB1C337A8002
S214005F103B801FF043FF15B9FEE71546F9E7DFF8AB
S214005F2074912B7B99F81720C3F3800363F3410227
S214005F3089F817202B7B03F0FB032B7399F81720A7
S214005F40DB0963F3000289F817202B7B03F07F033D
S214005F502B736B7889F806302B4613F80C2BA9F8B0
S214005F600420C9F8003095F90330444A89F8153002
S214005F701370AB78424A89F8163013706B68C9F80C
S214005F802830D5F808A00CF0F4F900238245D9F89B
S214005F90280028BF01F1FF3113EB0A03C9E90231DB
S214005FA018B9354809F0BCFC364809F0B9FC294652
S214005FB0354812F05BFB53E74FF400701EF070FF9D
S214005FC0054630B139464FF400701EF051FF0F23DE
S214005FD06AE74FF480601EF063FF074638B1294633
S214005FE04FF480601EF044FF2F460E235CE7014608
S214005FF04FF480501EF03CFF0B2355E7234A52F81F
S214006000230020B10368022B01D108F0BBFDEFF39B
S214006010108072B61E4C65881FF0C0FE002D42D060
S21400602008F00BFC00283ED1EFF3108072B66188B2
S21400603061B1238804EB8302D668A2880133B3FBE0
S214006040F2F502FB153323804B1E63801FF0A6FE7D
S21400605006B9FEE73379FBB1012B41D0FEE700BF5E
S214006060AD190100981500205813002024110020B7
S21400607088110020B0190020D80D00206B130020D6
S2140060806A130020C80E0020E41500202811002006
S2140060903415002058110020B16830680CF08AF9D9
S2140060A030461FF079FB1D49A1F1480008F096FB29
S2140060B0E0B11A49A1F1480008F090FB0446F0B997
S2140060C01749A1F1480008F089FB044600283FF470
S2140060D08CA82046134908F097FB20461049F2E7A3
S2140060E07289317A306808F0D6FED9E70C49A1F1FA
S2140060F0480008F073FB0028DBD1FFF776B80A4BA0
S2140061000A4A19780A4B2046002918BF1A46114633
S21400611008F07AFB20460149CEE700BFD80D0020E4
S21400612000100020A5D60000041100208BD6000029
S214006130D1D600000348044B834202D0034B03B180
S21400614018477047CC400020CC40002000000000DC
S214006150064B0749C91A891048BF0131491003D0B8
S214006160044B0BB101481847704700BFCC400020D5
S214006170CC4000200000000010B5064C237843B940
S214006180FFF7D8FF044B13B10448AFF30080012398
S214006190237010BD483D00200000000038A6020015
S2140061A008B5054B1BB105490548AFF30080BDE8AF
S2140061B00840FFF7CDBF00BF00000000F82F00200A
S2140061C038A60200A3F5803A704700BF174B002B95
S2140061D008BF134B9D46FFF7F5FF00218B460F4681
S2140061E01348144A121A1DF07BFC0E4B002B00D0ED
S2140061F098470D4B002B00D0984700200021040044
S2140062000D000D48002802D00C48AFF3008015F0B2
S2140062109FFA20002900FDF7C3FF15F089F900BF9B
S214006220000008000000000000000000C80A00206F
S214006230C80A0020803D002000000000000000008A
S21400624008B5C36F0A462BB1D0F88010007A98477D
S214006250012008BD1846FCE70246D0F8940068B94D
S214006260937B73B9D2F8900050B9D2F88C3043B90A
S214006270537B127B9B1A5842584170470020704748
S2140062801846704740BA80B24140C1F303135940E4
S214006290080380B24840490101F4FF514840704766
S2140062A0024610B544180020A24200D110BD12F8D4
S2140062B0011BFFF7E7FFF7E738B50446451800204F
S2140062C0AC4203D1831A5842584138BD14F8011B1A
S2140062D0FFF7D8FFF4E721B10020012308800B70F8
S2140062E0704722207047EFF31183302282F3118823
S2140062F0064A107820B1064A1088003818BF0120D8
S21400630083F31188BFF36F8F704700BF803E002075
S214006310C80A00204FF4E13070474FF4E130704770
S214006320EFF31183302282F3118883F31188BFF3D1
S2140063306F8F70473021094A937852684B4303F1B8
S214006340A04303F58023DB6E92689B1AB3F5897F22
S2140063503ABF038000200120704700BFC80A002013
S214006360F8B51646044600258F1FAF4201DC002014
S2140063700CE0204603780134142B08D10521B0F830
S2140063800520FFF799FF10B106B13580F8BD01353D
S214006390EBE72DE9F3470746EFF31188302383F345
S2140063A011880125DFF880A01E4E9AF802400DF1F4
S2140063B00600A5405C4304F1A044B56204F58024C1
S2140063C0D4F86490FFF7B6FF28B1756288F3118899
S2140063D0BFF36F8F09E0BDF80630BB4208D3756285
S2140063E088F31188BFF36F8F2E2002B0BDE8F087C8
S2140063F04A46FB1A9BB2013B63F30E126266236F9A
S21400640043F002032367636E43F480136366756587
S214006410236FAAF8087023F003031A7B60F3410287
S2140064201A73D2E700100450C80A00208B7C01F1D2
S2140064302C0201338B74036813B9CB620260704779
S2140064401846F8E7C06C836A03B118477047012303
S2140064500B747047C388B1EB431F3FBF03684A09FC
S21400646053F8220001F01F013ABFC84000F00100B7
S2140064700020704710B5C38823B9CA885AB9ABB193
S214006480012017E0026802EB830252F8042C002A6F
S214006490F3D1013BF0E70C6804EB820454F8044C9B
S2140064A00CB9013AEAE79A42EAD30FD8013B5A1CE4
S2140064B001D1002010BD026852F823400A6852F845
S2140064C023209442DCD803F1FF33F0D24FF0FF30A4
S2140064D0F0E730B5C38823B9CA885AB9002B3DD136
S2140064E036E0026802EB830252F8042C002AF3D14D
S2140064F0013BF0E70C6804EB820555F8045C4DBBE5
S214006500013AEAE7B1F9045003D2B1F90400404277
S21400651026E0B0F90420002A03DD002D0CDA012065
S2140065201EE0002D08DD3AB14FF0FF3018E003F111
S214006530FF330BD2504213E0013B016851F8235061
S21400654054F823108D42F2D9104609E0591CF4D1B4
S214006550002005E0002BD8D09342D3D9B0F9040030
S21400656030BD0022154BB3F90010884202D1B3F9B2
S214006570020070470132042A03F10403F3D110F13C
S214006580910F15D010F1900F0ADA10F1970F12D074
S21400659010F1930F14BF4FF0FF306FF06F0070478D
S2140065A010F1860F14BF4FF0FF306FF07100704788
S2140065B06FF06F0070476FF06D007047E05F02008D
S2140065C08A4228D001F0FE43B3F1A06F14D102F046
S2140065D0FE43B3F1A06F0FD182EA010333F47E13BA
S2140065E00AD10B0408D5C1F30541C2F30542914216
S2140065F08CBF00200120704721F47F03B3F1106F99
S2140066000BD102F0FE42B2F1106F06D104480B1A0D
S214006610584258417047012070470020704700BF1D
S2140066200000020907B51E48837A03B9FEE7002377
S21400663069461030CDE9003312F028FCE8B9194A53
S214006640D2F84031D2F840211F2B4FF001030FD96A
S214006650203A9340019A1A43019208236A46124947
S21400666012480EF013FB124B124A1A600DF048F94E
S2140066709340009A1A430092EFE72D28F3D1094A77
S214006680D2F84031D2F840211F2B4FF0010385BFCE
S214006690203A93409340019398BF0093DDE700BFF4
S2140066A0C80A00200080004400710800D80A0020B4
S2140066B0000000200B020FF008B50DF033F920B1F2
S2140066C010F81A3C2C38013B837408BD38B50C46CC
S2140066D0EFF31185302383F311880848FFF7ECFFAA
S2140066E0206028B985F31188BFF36F8F1B2038BD53
S2140066F085F31188BFF36F8F0020F8E7400B00206A
S21400670038B50D48002284780C497C3012F041FBE5
S214006710302301250A4AA54003FB0423196F21F004
S21400672002011967596E21F48011596602F500536B
S2140067305D651D6538BD00BFC80A002099C0000011
S2140067400000045010B550F8044C011F606F12F0A2
S214006750E1FA204610BD38B505460C4661B14868DA
S21400676020B1FFF7EFFF2846FFF76CFE2146A86F23
S214006770BDE8384012F0CEBA38BD38B50446406F92
S2140067800D4612F0CCFA034620B1002043F8044B25
S2140067902B6038BD1A20FBE710B50C4661B1C06F00
S2140067A012F0BDFA206048B1002303601846226844
S2140067B013722268536010BD2220FCE71A20FAE705
S2140067C0F8B5044600284BD0837C002B4AD10168DC
S2140067D0856911B1284612F09EFAA16819B1D5F85C
S2140067E0800012F097FAE37C022B0AD0032B0AD023
S2140067F0012B0AD1606820B1FFF7A4FF2846FFF7F7
S21400680021FE012602E06168E1B90026EFF3118758
S214006810302383F311882146A86E12F07BFAE37CBE
S214006820042B13D1B5F86430013BA5F8643087F328
S2140068301188BFF36F8F1EB1E86C436A03B19847A7
S2140068400020F8BD286F12F065FADEE7052B01D0B0
S214006850032BECD1B5F86630013BA5F86630E6E7C9
S2140068602220EEE70420ECE770B516461C460D46DF
S214006870B1B1806F12F053FAA0B1002303606B68C9
S214006880048143600223837234683CB9022330607B
S2140068902846EB74FFF794FF204670BD2646F3E7C4
S2140068A02220FAE71A20F8E7F7B540F2011301258F
S2140068B0012204216846ADF800300EF083FD2A461A
S2140068C0022101A8ADF804500EF07CFD032001A9BA
S2140068D01FF025FB019B40F6AA6259014FF4E11315
S2140068E001F561213948B1FBF3F1394B456041F2BE
S2140068F005075A610022374C374E9A60DA65DF602A
S2140069001A61DA61DA64A6649A651A655A65656082
S21400691045609E68203946F080469E602F4EDF60B8
S21400692006EAC10102268260D9612D499A65C1F83E
S214006930AC650421E1654FF440645C611023294A8C
S214006940C2F8AC354FF00113C2F8C435C2F8BC55D6
S2140069504560416145610DEB010011F009F988BB06
S2140069609DF80460204C01A8A67011F001F948BB00
S2140069709DF8043084F89030D4F894301A68127D6C
S214006980B24221D9EFF31182302181F311881749E1
S2140069901B6943F8261082F31188BFF36F8F4FF4FC
S2140069A08023C4F89830124BC4E92700C4E92B00B2
S2140069B0C4F8A400C4F8B400C4F8A83084F8A15001
S2140069C084F8B15003B0F0BD2120FBE700900550DD
S2140069D00080055000A00550FFFF0100F8FF7F0073
S2140069E000E0035000C00350C80A0020BDBC0000F1
S2140069F00200040010B5682101200FF007FD0446D0
S214006A0018B1682200211DF06BF8204610BD10B5A5
S214006A10242101200FF0FAFC044618B1242200219C
S214006A201DF05EF8204610BD0022C188914201D8B4
S214006A3000207047036853F8223033B193FAA3F06E
S214006A40B0FA80F000EB421070470132EEE7F0B586
S214006A50C4880546082C8BB017D9083C082C17D8D4
S214006A600668A70020363A46314602A81DF09CF973
S214006A703A46002130461DF033F8262300930921BC
S214006A802346286802AA12F071F800200BB0F0BD69
S214006A900048FBE780B0FFFF0FF02BB810B50446A8
S214006AA00FF008F82046BDE810401EF075BE0FF047
S214006AB006B80FF004B800239A6AB2F5804F03D2E6
S214006AC01168074A914203D0002303708360704721
S214006AD0012202709A6A926842609B6A9B69F5E797
S214006AE007B0CD5E1FB501238DF80430002301A842
S214006AF00293FFF7E0FF039B9C0245D5254C636895
S214006B000BB10EF077FA0122234B5A60A36A98065F
S214006B10FCD402230125A3606362204B5D600EF067
S214006B2069FA1C4BE5609A6AD106FCD402221A6305
S214006B309A6AD206FCD40323174A5361A2F5805200
S214006B4093614FF48022164B1A604AF6E850154BB4
S214006B50154CDA6ED96E22F003021866134842F01E
S214006B60020241F00301C0F82044DA66D966DA660C
S214006B70D966DA66D966DA66D966DA66BFF34F8F03
S214006B80BFF36F8F30BFFEE7094B0A4A1A600CF05E
S214006B90B7FE00BF0040065000600650005006508A
S214006BA000E100E0004000500000FFFF00E003505E
S214006BB00000002002020FF01FB500239A6AB2F50B
S214006BC0804F1ED2126BB2F5804F1AD2012201A856
S214006BD002938DF80420FFF76EFF039BDB0310D5AE
S214006BE0029B1A0E0DD0012A03D1C3F307430A2BCA
S214006BF007D900239B6A1B6B1B6C05B05DF804EB82
S214006C00184740F2011005B05DF804FB006800B9B3
S214006C107047037A8B42F9D190F85030002B08BFAA
S214006C200020704708B503683BB901790448FFF7B0
S214006C30EDFF08B190F8500008BD93F85000FBE750
S214006C40843E0020054A08B502F1B800FFF7EAFFC7
S214006C5005281CBF012382F8C43008BDC80A0020DE
S214006C60022808B509D1042906D100210948FFF7F2
S214006C70CDFF012380F8A03008BD0328FCD10429ED
S214006C80FAD10022044B5B68002BF5D0C3E926221C
S214006C901B68F9E7843E0020803E00202DE9F04383
S214006CA01D46062387B0137049681446302900F045
S214006CB081801AD8042906D80139032940D8DFE88C
S214006CC001F04368495320296ED0A1F5E063FF2BFD
S214006CD000F2BC80C9B241F4E0635E486360FFF72F
S214006CE095FF58B390F8A00028E040F2022399429E
S214006CF07FD00ED8502960D0B1F5007F62D04029F1
S214006D00E3D1516050F8380CC3699847A060082357
S214006D104EE040F20133994270D0B1F5885F72D0F0
S214006D20A1F58053FF2BD0D8C9B241F4805349480F
S214006D305360FFF76BFF08B190F85000207207E031
S214006D4000235360A360E2E7012353600623137217
S214006D5005232DE0042303220921C4E9012301238E
S214006D60C4E90313102323E01346042243F8042F38
S214006D70394A116859605168128999609A810E23C0
S214006D80638001234374638804332B6007B0BDE837
S214006D90F083022301215360082210F8333C6280FE
S214006DA013FB0213A360EEE7516050F8302C2281EB
S214006DB06380E8E75160C36BC4E7516050F8380C55
S214006DC0036AA2E7516003A8FFF775FE049BE36021
S214006DD0002323619DF80C30012B02D1032323727C
S214006DE0C0E723B923724FF0FF33E360BAE704230A
S214006DF0F5E71A4B5160D3F8C830A3E7174B51603C
S214006E0093F8CC309EE7516002F1070802F187093B
S214006E1000221646531C6846CDE90066CDE9036697
S214006E208DF804208DF8103002960596FFF7FAFECE
S214006E30074603A8FFF7F6FE47EA001708F8017FA3
S214006E400232C145D2B2E5D18423B1E700236360A4
S214006E500D2377E7843E0020AC830200C80A00209A
S214006E6008B50146FFF7F8F950B1D1F8880040B9E7
S214006E70D1F8843023B9B1F86800B0FA80F0400940
S214006E8008BD0020FCE7EFF31182302383F311885E
S214006E908368013B836082F31188BFF36F8F70476E
S214006EA008B508B9022008BDEFF31182302383F33A
S214006EB01188836823B982F31188BFF36F8FF1E7D7
S214006EC00133836082F31188BFF36F8F21B10368AB
S214006ED013B100200B60E6E7FFF7D5FFE2E738B511
S214006EE00446EFF31185302383F31188037C63B1E6
S214006EF08068214640300CF01DFDA26892F84430B0
S214006F00013B82F844300023237485F31188BFF3D5
S214006F106F8F38BD2DE9F041044617460E4600290E
S214006F203DD0806E11F0FBFE0546F8B134220021FC
S214006F301CF0D6FDEFF31188302383F311887B1EF7
S214006F40042B2ED8DFE803F0182D03210300B4F835
S214006F505820B4F86630013A93420ADB2946A06E00
S214006F6011F0D8FE88F31188BFF36F8F1A20BDE8A2
S214006F70F0810133A4F8663088F31188BFF36F8F71
S214006F800020EF74AC613560F1E7B4F86430B4F813
S214006F905A209A42E2D90133A4F86430ECE7222062
S214006FA0E5E72120E3E72DE9F3479146042204466E
S214006FB08846D0F8A4000DEB02019A46FFF7AAFF18
S214006FC0074660B91AF00E0F667A019D0AF00203B2
S214006FD01AD0B20707D42846FFF7F2FB2127384617
S214006FE002B0BDE8F087A3B91AF0040F14D11AF066
S214006FF0080613D1324694F85030052B10D0284698
S214007000FFF7DEFB0227EAE716F00106E3D10122CE
S214007010F1E706463A46EEE70426FBE70E26F9E7D2
S214007020C5F80480A5F80C906C61237A6B740A9BF3
S2140070302B62CAB1A37AE27A1B01DBB21343CAF30E
S214007040001A43EACA0A85F810A0A37A013303F0AF
S2140070500703A37249464046FFF722F92946E8810E
S214007060204611F0DAFEBAE766F03F062E74F1E726
S2140070702DE9FF410F4603A9064615469846FFF739
S2140070800FFF38BB45B30398D0F8A43090F8A02083
S214007090B3F85C4040F6F773002C08BF1C46C2EB02
S2140070A0423204EBC204A4B2A5420ED80A9B39466B
S2140070B000932A464346FFF776FF01463046FFF721
S2140070C0E2FE084604B0BDE8F0813046FFF7DBFE7E
S2140070D02B21F6E70221F4E72121F2E710B578B17B
S2140070E0FFF730FB044660300CF01CFC014610B184
S2140070F0A06F11F00FFE2046FFF7A4F9002010BD88
S2140071002220FCE708B50CF00DFC20B110F81E3C60
S2140071103038013B837408BD8B7C01F130020133AB
S2140071208B74036813B90B63026070471846F8E760
S21400713038B581624469EFF31185302383F31188F3
S214007140D4F8A430014603F11000FFF7E5FF85F3FD
S2140071501188BFF36F8FD4F8A420074902F11800F6
S21400716011F017FE4FF6FF72B4F8683093421CBF5A
S2140071700133A4F8683038BD8776000010B50446A1
S214007180A37C0846013B04F13001A3740CF0D2FB4B
S2140071902046BDE810403321CAE72DE9F74389466B
S2140071A0174601A9032206461D469DF82880FFF7CC
S2140071B0B1FE38BB306F019C11F0B1FD606028B99C
S2140071C0204603B0BDE8F043FFF7FABA012165F0A8
S2140071D06F05A181C4F814906774257480F8008048
S2140071E06068FFF75DF8E081EFF31185302383F3E5
S2140071F01188214606F10800FFF78EFF85F31188F7
S214007200BFF36F8F03B0BDE8F08310B504461822B5
S21400721000211CF065FC204610BD0368D90444BF5D
S21400722043F4806303609A0444BF43F4006303603E
S214007230704707B50022084B014683F8CC20028829
S214007240064B0432009392B201230548FFF710FF65
S21400725003B05DF804FB00BF803E00201D760000F2
S214007260800B0020002307B5012219460E4811F0B6
S21400727063F868B90C4801A9FFF712FE40B9019BF4
S2140072800A4A09489A65FFF7FEFDFFF709FE18B19E
S214007290002003B05DF804FB019B054A02485A67CC
S2140072A0FFF7F1FD0120F4E7800B00201D760000BB
S2140072B0456C000010F1840F12DA10F1950F25DBF3
S2140072C09530102822D8DFE800F01D2121211B214F
S2140072D021211913110F151F170923000F207047BE
S2140072E0003818BF012070471D2070472E207047B9
S2140072F02D20704724207047212070471A207047A1
S2140073002F2070472C20704725207047012070479B
S214007310082070470146054B93F8CC0083F8CC1044
S214007320D3F8D03003B11847704700BFC80A002012
S2140073302DE9F0470646C06C86B0836998478046BC
S214007340002800F06781F36823B9B368002B39D1B1
S2140073501B2533E0B04B93F8CC3003F0FB03012B36
S214007360F3D1EFF31185302383F3118806F10C0077
S214007370FFF7C8FE044685F31188BFF36F8F002819
S214007380E3D0237C9F097F2BA36898BF002743BBCD
S214007390F06E11F0C4FC206028BBEFF3118230239E
S2140073A083F31188A37C0133A374B36844F8303F99
S2140073B0B46082F31188BFF36F8F1A25284606B093
S2140073C0BDE8F087EFF31185302383F3118806F1CB
S2140073D00800FFF797FE044685F31188BFF36F8F0A
S2140073E0CFE74FF00008A189002939D08B1C9BB24B
S2140073F0D4F814C037B9227C9CF80B0022F00702A0
S21400740002432274207C25687F28D4F808A029D857
S21400741041B3BAF1000F28D19CF8A090B9F1000F43
S21400742027D07D4A92F8CC2002F0FB02012A1ED01B
S2140074302946304611F06FFCC4F800A0EFF3118225
S214007440302383F31188A37C0133A374F36844F8D4
S214007450303FF46082F31188BFF36F8F0025ADE7ED
S2140074600B46C5E7BAF1000F22D04FF000090833EB
S2140074709BB21421627CAB701B0A2970287105210F
S21400748028466A70EB70FEF70BFF6871000AA87159
S214007490B9F1000F7BD0D6F8800011F040FC2168CF
S2140074A00546A06030B9304611F035FC256084E70B
S2140074B0D146DEE70B79584D03F0070923F00703A2
S2140074C00B71D4F814A0D4E900129AF80800D4F886
S2140074D008C08DF80C00DAF89C00A3890590D5F852
S2140074E0DB00CDF80D00B5F8DF00ADF8110095F81B
S2140074F0E100CDF800C08DF8130003A811F07CFE63
S214007500804698B9DAF89C300133CAF89C30D5F832
S214007510E4300133B3F1005FC5F8E43006D195F8E6
S214007520CC30052B02D10320FFF7F4FE4046FFF7D0
S214007530C1FE2268054613794FF0000823F00703C2
S21400754049EA030982F80490A26870B122B1114694
S214007550D6F8800011F0DEFB30462168C4F80880BB
S21400756011F0D9FBC4F8008028E7D4F80480B4F8FA
S2140075700C90C144C1452BD102F1080512F8011B3D
S214007580FEF780FE9542F9D14FF00008E081EFF358
S2140075901189302383F31188F06C2146436998479C
S2140075A00546D0B1A37C0133A3742346B26843F8E2
S2140075B0302FB360B8F1000F05D03046216811F0C7
S2140075C0AAFB0023236089F31188BFF36F8FF5E6CB
S2140075D018F8011BFEF756FECCE7606938B9022F93
S2140075E015D089F31188BFF36F8F0125E6E677B9CA
S2140075F021468C30FFF790FD6269D37B0133D3734D
S2140076006469237C1BB91EF01BFAC4E9060189F3E2
S214007610118821E73425D1E6C80A0020094A13B1AB
S214007620012382F8C4300121074B83F8CC1092F86E
S214007630CC30042B04D100230520C2F8E43069E6E0
S214007640704700BFC80A0020803E0020EFB50646FF
S2140076500D46843803A91746FFF79EF888B9062317
S214007660039909228B8105230D7245F48055CB8141
S2140076700E600D610F750123009130460C31FFF747
S214007680F7FC04B0E0BD2DE9F047064630274FF082
S214007690020900F1100833697BB1EFF3118A87F312
S2140076A011884046FFF72EFD4469054694F8503091
S2140076B02BB98AF31188BFF36F8FBDE8F087B4F853
S2140076C06830002BF5D0013BA4F868308AF31188A7
S2140076D0BFF36F8F037C7F2B4FEA931232D9032AB6
S2140076E00AD14069D0F864A0BAF1000F04D0AB6AA2
S2140076F02A6A6968007AD04794F85030062B25D05D
S214007700082B23D0032B17D12046FFF7A9FB98B1EF
S214007710637A84F85090DB060ED5EFF3118230239F
S21400772083F31188D4F8A430596844F8041F5C60C9
S21400773082F31188BFF36F8F002328466B60FFF734
S2140077403FF8A8E74069D0F858A0CDE72046FEF7F6
S21400775083FD0028F0D0D4F8A4000922217A8430D2
S214007760FFF774FF18B1092384F85030E4E794F863
S2140077705030062BE0D10723F6E7054BD3F8E83068
S214007780584043085B4240421843C017704700BF4A
S214007790C80A0020F8B5C3880E46B2EB830F076808
S2140077A04FEA83041AD813469C420CD81546002389
S2140077B0AB4215D1A24204D90021121B30191CF08D
S2140077C08FF90020F8BD23F003003D5803F00301B5
S2140077D0C900CD40EDB26DB90133E5E72546E6E7D1
S2140077E023F00301795803F00300C000C140F154B0
S2140077F00133DDE76FF00700E4E7034670B51C6869
S214007800DB880846B2EB830F4FEA830519D9521B73
S2140078108E1800211CF064F930462A4600231044D6
S214007820934210D1002070BD23F00301615803F08D
S2140078300306F600F140C9B281B901339D42F3D880
S214007840ECE71346FAE723F00301615803F003055B
S214007850ED00E94000F8011D0133E1E76FF0070095
S214007860E1E71FB54FF001130191039302A901ABA5
S2140078700293FEF72EFE05B05DF804FB10B50C4C27
S214007880D4F8E820D4F8E8304240594081EA0200B3
S214007890C00FFFF772FFD4F8E830521A434022EACE
S2140078A0030208401043C00FBDE8104065E700BF64
S2140078B0C80A0020013901D20020704750F8213054
S2140078C0002BF7D0B3FA83F00131C0EB41107047BC
S2140078D0C1880068EEE753098B42F0B402F01F043B
S2140078E001D805D13CB3F0BC8A0000211CF0F8B8E2
S2140078F01F2A22D834B1002200EB8101C4F12006F1
S21400790081420FD1F0BC704752F8047B45F8047FE3
S214007910B242F9D10022CB1A8B42EBD240F8232098
S2140079200133F9E751F8045D25FA04F313430B60BD
S21400793005FA06F2E4E71F2AE4D900EB8302051FE6
S21400794000EB8106E4E708B50A46C18811B1006875
S214007950FFF7C1FF002008BD01F18041013900EBAF
S21400796081018142034600D270471B680A681BBA31
S21400797012BA40F8042B41F80439F2E70346C0690E
S21400798020B15B6A002B14BF012002207047002242
S2140079900123C0E90023C0E90223C0E9042370479D
S2140079A038B5002401250146C0E90254C0E9045454
S2140079B00470446085611C30FFF7E9FFC1E90D459E
S2140079C0C1E90F44C1E91144C1E91344C1E91544B2
S2140079D0CC6538BD70B50646FFF7D0FF02280C46CA
S2140079E005461DD100212046FEF734FD60BB01216F
S2140079F02046FEF72FFD024630BB2046FFF768FF05
S214007A00336C591C88421FD1FE2B07D129462046CD
S214007A10FEF720FD0D4B021E18BF1A46104670BD1D
S214007A2001280FD101462046FFF71BFF00280BDB7D
S214007A30204606F13401FEF74CFD0028034AB8BF85
S214007A400022EBE7024AE9E7004AE7E780B3FFFFD8
S214007A5080B0FFFF70B5066C0D460736B3EBD60F49
S214007A60114604464FEAD60203D200230D482B6087
S214007A7070BD2A60B0F866307BB1FFF77FFF022842
S214007A8004D104F16000BDE8704083E6012806D109
S214007A9004F16000BDE87040AFE60348E8E76FF029
S214007AA06D00E5E700B1FFFF80B0FFFF10B5034BA8
S214007AB00A461B6900210446984710BDE05F020095
S214007AC010B5044610B109B1FFF7F0FF2046BDE837
S214007AD010401DF061BE10B5044648B1006818B1EC
S214007AE0E1888900FFF7ECFF00220123C4E90023A8
S214007AF010BD10B50446FFF7EEFF04F10800FFF7CF
S214007B00EAFF04F11000BDE81040E4E700B1F0E73A
S214007B10704742F21073994270B504460D4602D97A
S214007B206FF00F0070BDC3888B4213D20421284625
S214007B300EF06CFC06460028F2D0216841B1E288BF
S214007B4092001CF031F9E18820688900FFF7B8FF41
S214007B50E58026600020E5E72DE9F0410D46C9885E
S214007B6004461646FFF7D5FF014618BB3046FFF71A
S214007B7004FE03461C4EB4F90420D6F8E800013291
S214007B80584022EA0002B5F90400013018400243CA
S214007B90013AA280D5F800E02268B5F80680724562
S214007BA003D08C46043AE04507D8DB43EA88E088F1
S214007BB0824211D30846BDE8F081D6F8E87052F844
S214007BC0040F5F4020EA07005EF82C700CF1010CF1
S214007BD01F4038431060E6E7256855F82200184035
S214007BE045F822000132E2E7C80A0020F8B505464B
S214007BF08D420E46104601D10020F8BDFFF7BDFDB0
S214007C00C98804462846FFF784FF10B16FF00F00BE
S214007C10F3E73046E988FFF77CFF0028F6D11E4AD6
S214007C20B6F90430B5F90410D2F8E8000131013392
S214007C30604021EA000023400343013BAB80B6F9D5
S214007C400430D2F8E80001336040214023EA000304
S214007C500B43013BB38031682B68EE888B42CBD058
S214007C60043903EB8606B342C6D0D2F8E8001D6896
S214007C7051F8047F604025EA00002740384343F867
S214007C80040BD2F8E8700868674020EA0700254031
S214007C9028430860E7E700BFC80A002038B5044656
S214007CA00D4619B9FFF717FF002038BDC2888A4273
S214007CB007D10021006892001BF012FF0123A38069
S214007CC0F2E7FFF708FF29462046BDE8384020E7E0
S214007CD02DE9F84312F0030318BF012303EB9206C5
S214007CE08946314680461546FFF7D8FF0446F0B968
S214007CF0B8F80620D8F80070B2421BD33FB1014650
S214007D00920038461BF0ECFE23469D4202D12046E8
S214007D10BDE8F88319F80310DA0023F0030002F038
S214007D20180291403A5801330A433A50EDE76FF093
S214007D300F04ECE76FF00704E9E72DE9F84312F0CB
S214007D40030318BF012303EB92068846314681469B
S214007D501446FFF7A3FF0546D0B9B9F80670B74238
S214007D6019D397B1D9F80090BE000146324648466E
S214007D701BF0B6FE2CB1301B2246414648441CF090
S214007D8013F839464846FFF7E7FD2846BDE8F8836E
S214007D906FF00F05F9E76FF00705F6E7884270B554
S214007DA005460E4609D0C988C28841B92AB10123C2
S214007DB09200838000681BF093FE002070BD4C1E6E
S214007DC06CB9B6F904300134A242AB800ED221461B
S214007DD02846FFF79EFE88B16FF00F00EEE7336887
S214007DE053F82430002BECD1013CE9E72868121B3D
S214007DF00021920000EB84001BF072FE31682868B8
S214007E00A2001BF0D1FFD8E738B504460D46FFF7B1
S214007E10C5FF68B905F1080104F10800FFF7BEFFC9
S214007E2030B905F1100104F11000BDE83840B5E79F
S214007E306FF00F0038BD70B50E4601210446FFF7FF
S214007E4068FE054648B9E2880146920020681BF0A5
S214007E5047FE23681E600123A380284670BD10B528
S214007E6001210446FFF7E7FF58B9012104F1080095
S214007E70FFF7E1FF014620B904F11000BDE810400D
S214007E80D9E76FF00F0010BDF8B5C3880646B1EB12
S214007E90431F0C4617464FEA511514D2012231688B
S214007EA004F01F0451F82530A24023EA020341F8EB
S214007EB02530326807FA04F452F82530234342F896
S214007EC025300020F8BD002AFBD0691CFFF721FEF4
S214007ED00028E3D06FF00F00F4E7F8B504460D462F
S214007EE0FFF7F6FCE3882844B0EB431F24D81F2D89
S214007EF02368E1884FEA551005F01F0412D96FF089
S214007F0003060A4606FB0036904202F1FF3521D3EF
S214007F10421A814238BF002200250A4403EB82023F
S214007F209A421DD134B1002503EB8003C4F120072B
S214007F30814218D80020F8BD10F01F0118BF01219B
S214007F4001EB50112046FFF7E4FD0028CFD06FF07C
S214007F500F00F0E756F8252043F825202A46D3E7F9
S214007F6042F8045DDCE71E68013006FA04F22A4394
S214007F7043F8042B26FA07F5DAE72DE9F843054619
S214007F800E469046D4887CBBF1882846FFF7C1FD94
S214007F900746002864D1F28894420BD2AE4209D03C
S214007FA028683168121B920001EB840100EB840004
S214007FB01BF0FAFEEA88F088824207D92B68121A6C
S214007FC00021920003EB80001BF08AFD002213467E
S214007FD0D5F800C0D6F800E0D8F80080944214D156
S214007FE043BB0123AB800DE0D8F8003003EB8403DD
S214007FF053F8043C0BB9013CC5E7F188A142C4D252
S2140080006FF009073846BDE8F8835EF8226058F836
S2140080102200F11A81422CBF4FF000094FF00109EF
S214008020091A4CF822109E422CBF4B4609F1010358
S2140080300132D3E72A68E98802EB840402EB810266
S214008040944202D1002BCCD0DAE72168C91A34BF9B
S21400805001230023003B18BF012344F8041BEFE76D
S2140080606FF00F07CEE738B50C46051D29462046AB
S214008070FEF72FFA002801DA002006E02A462146FD
S2140080802046FFF77AFF0028F0D038BD2DE9F843E8
S2140080901446B1F904709288054612FB07F2534362
S2140080A00E461ED521463046FEF7E4F9B0F1FF3FF6
S2140080B080460DD0224631462846FFF75EFF28B997
S2140080C0B8F1000F08BF01270020AF80BDE8F88395
S2140080D032462846FFF751FF0028F7D17F42AF808F
S2140080E0F4E7844202D0814212D126460123AB80B7
S2140080F0B6F80690B9F1000FE6D033684FEA890863
S21400810003EB890353F8043C4BB909F1FF39F1E757
S214008110FFF744FE0028E8D06FF00F00D6E7494688
S2140081202846FFF7F6FC04460028F5D131682646B7
S2140081302B68181F50F8042FA2182CBF4FF0010C04
S2140081404FF0000C51F82640013612194CF100048D
S214008150B1450260EED14344002CB5D0EA8806F162
S2140081600108B24208D841462846FFF7D2FC00284C
S214008170D2D12B6803EB86031A68464612192CBF29
S21400818001240024003C18BF012443F8042BE3E735
S21400819001237BE770B50C460546114620461A4675
S2140081A0FFF7F6FF064630B9043529462046FEF7A7
S2140081B090F9002801DA304670BD2A46214620464E
S2140081C0FFF7DBFE0028F0D00646F4E74FF0FF335B
S2140081D05CE770B50C460646114620461A46FFF781
S2140081E0F5FF054688B90436B4F90430002B0CDADE
S2140081F000212046FFF735FB30B1324621462046A7
S214008200FFF7C6FF0028EFD00546284670BDF7B535
S2140082100D4601230021083504462846CDE9001303
S2140082201646FFF71EFB211D07462A466846FFF73F
S214008230CDFF044648B9002F0CBF002206F001020D
S21400824069462846FFF788FC04466846FFF743FC65
S214008250204603B0F0BD2DE9F34104460F4615460F
S214008260CE8836B13B6803EB860353F8043C33B143
S2140082703DB90021204602B0BDE8F041DBE5013EF5
S214008280EFE72046711CFFF744FC28B16FF00F089B
S214008290404602B0BDE8F08139462046FFF77EFD35
S2140082A080460028F2D1013D009533463A68E188C1
S2140082B0206810F05BFCEBE72DE9F047112104463F
S2140082C0FFF727FC002840F0B58125682B682A6A4E
S2140082D0D5F82C9099182CBF012300236A6AD5F88C
S2140082E03080521843F10003914588BF013BA2EB52
S2140082F0090EF04588BF013BD5F834C0AEEB080642
S214008300B44588BF013BAF6BA6EB0C018F4288BF1C
S214008310013BC91B29602568DEB2002B696880F224
S2140083208B815A4291424FF0FF3228BF00221944F7
S2140083306B6AD5F830905B18A96A42F10002C9183A
S2140083402CBF4FF0010A4FF0000A5AFA82F2894514
S21400835088BF013AD5F83480A1EB090EF04588BFF6
S214008360013AD5F838C0AEEB0806B44588BF013AE6
S214008370EF6BA6EB0C039F4288BF013ADB1B6B60DA
S2140083802568D6B252B2002AA96880F25A815342B2
S21400839099424FF0FF3328BF00231144AA6AD5F84C
S2140083A034E0521843F10001EB6AD5F838C09B1848
S2140083B02CBF4FF001084FF0000858FA81F19E4597
S2140083C088BF0139A3EB0E06B44588BF0139EF6BB1
S2140083D0A6EB0C02974288BF0139D21BAA6022681E
S2140083E0CEB249B20029D56880F230814B429D4218
S2140083F04FF0FF3328BF00230D44D16AD2F83CE08B
S2140084004D1943F100034919156B43F10003691830
S21400841043F100036D18516B43F1000349192CBF5B
S2140084204FF001084FF0000858FA83F38E4588BFD6
S214008430013BD2F820C0A1EB0E06B44588BF013B35
S214008440576AA6EB0C05AF4288BF013BED1BD56013
S2140084502168DEB25BB2002B0D6980F2FC805A42C6
S21400846095424FF0FF3228BF00221D440B6B4F6A27
S2140084705D1942F100025B194D6B42F10002EB18E8
S21400848042F10002ED188B6B42F100025B192CBF23
S2140084904FF0010C4FF0000C5CFA82F29F4288BF4E
S2140084A0013A8E6ADD1BAE4288BF013AAD1B0D61F4
S2140084B02568D3B252B2002A696980F2D18053424D
S2140084C099424FF0FF3328BF002311446E6BEF6ACA
S2140084D0721843F10001AB6BB61841F10001EA6B6C
S2140084E09E1941F100019B1941F10001D2182CBFE1
S2140084F04FF0010C4FF0000CAE6A5CFA81F1964228
S21400850088BF0139931B9F4288BF0139DB1B6B6113
S2140085102268CEB249B20029956980F2A6804B4205
S2140085209D424FF0FF3328BF00230D44916BD66B5E
S2140085304D1943F100034D1943F10003751943F13A
S21400854000037619556B43F10003891943F10003C4
S2140085506D182CBF4FF0010C4FF0000C176A5CFA38
S21400856083F3AF4288BF013B566AE91B8E4288BF41
S214008570013B891B91612168DDB25BB2002BCA69A1
S21400858078DA5D42AA424FF0FF3528BF00251A442C
S214008590CB6BD1F828A09A1845F100059A1845F13A
S2140085A000059B180A6A45F10005D2182CBF012366
S2140085B0002353FA85F3924588BF013BD1F82C90EF
S2140085C0A2EB0A08C14588BF013BD1F830E0A8EB12
S2140085D0090CE64588BF013B4F6BACEB0E06B74275
S2140085E088BF013BF61BCE6122685BB223EAE371CB
S2140085F0116200250822E188013291423FD8002B03
S21400860018DA00222568A958C943A9500432242A3A
S214008610F8D100222568A9580131A95021688D5843
S21400862015B90432242AF5D14FF6FF72A2800A6AE1
S214008630D21A0A62BDE8F08789192CBF01220022EF
S21400864076E689192CBF01230023A7E6AD192CBFB7
S21400865001230023D1E6AD192CBF0122002205E735
S214008660C9182CBF0123002330E7AD192CBF012306
S21400867000235BE752192CBF0125002588E72168F7
S21400868041F82250B7E72DE9F04F99B0CDE9031233
S214008690824600211046FFF7E4F80028C0F2F68173
S2140086A005D16FF00B03184619B0BDE8F08F4FF0F8
S2140086B00109DDE90301924BADF83090149315AB38
S2140086C0ADF83890CDF84090CDF848901393FDF76C
S2140086D0D1FE013019D1BAF1000F06D050460399E9
S2140086E0FFF75CFB002840F0B28100215046FFF700
S2140086F0B8F80028C0F2B98150460499FDF7E9FEA3
S214008700002880F2B9810023CDE7002503990BA845
S2140087100B95ADF83250FFF741FB0B9E0446BDF8B3
S2140087203270002840F09A810D90ADF83A00049916
S2140087300DA8FFF733FB0D9B0546BDF83A80019365
S214008740002840F09081039B0F90D9880FA8023133
S214008750ADF83890ADF83090FFF7DBF9044628B155
S2140087602C460F9B02936FF00F03A8E001460FA85C
S214008770FFF761FB0F9B02930028F4D1039B119037
S214008780D98811A80231FFF7C4F9119C02460028C7
S214008790E9D10DA8FFF79CF800F01F001F287AD03B
S2140087A0C0F11F0319460BA80593FFF796FB0B9E17
S2140087B0BDF832700028D6D105990DA8FFF78DFBBD
S2140087C00D9BBDF83A8001930028CCD1C1463D46AA
S2140087D0A7EB080B4FEA4B130793019B4FEA4B118D
S2140087E00DA80D93ADF83A80FFF777FB0D9BBDF80B
S2140087F03A8001930028B6D1029B03EB8B0B019BBA
S2140088000DA90BA80B96ADF832700D93ADF83A8013
S214008810FDF75FFE002842DA09F1FF3307990DA83D
S2140088200693FFF790F8019B09F1FF3203EB8203F2
S2140088300793019A09F18043023B02EB830305F19B
S214008840FF3B05F180450893013D029BA5EB09051A
S21400885003EB8505069B5B4554D3BAF1000F18D091
S21400886005990BA80B96ADF83270FFF76CF8039BD2
S2140088700BA99B885046ADF83030FFF78FFA0146BB
S21400888000287FF470AF5046FEF7EBFF002800F09C
S214008890DA80002313E0C1463D46059298E7DBF8F0
S2140088A000300BA90133CBF8003008460DAAFFF7BD
S2140088B08DFC0B9E0346BDF8327000289FD00BA897
S2140088C003930B96ADF83270FFF705F9019B0DA8E0
S2140088D00D93ADF83A80FFF7FEF8029B0FA80F93B2
S2140088E0FFF7F9F811A81194FFF7F5F80C2115A871
S2140088F0FFF7DCF8039B002B3FF4F7AED3E600BF90
S21400890001000300079B56F82B101A684FEA8B09E4
S214008910A9F104003318914209934AD20023305833
S2140089201AF0BCFE002914BF4FF0FF330346BBF11C
S214008930010F2B600EBF0023B14459F8083C159375
S214008940099B1B68169306EB8B031B6817932B6813
S21400895001332B602B680021013B2B6011A811947A
S214008960FFF769FA119C00287FF4FDAE069B1BB347
S214008970089B1B682360079B11A91B680846636059
S2140089802A68FFF768FC119C00287FF4ECAE13A958
S21400899011A8FDF79EFD0028DCDC019B2A680DA9C6
S2140089A011A80D93ADF83A80FFF755FC30B1119C35
S2140089B0D9E64FF0FF33BAE7069BDBE76FF0070315
S2140089C0029A4FEAC50902FB039911A84946FFF728
S2140089D084FA119C00287FF4C6AE0BA9084611AA9B
S2140089E00B96ADF83270FFF7F1FB0B9E0346BDF811
S2140089F0327000287FF463AF01460BA8FEF731FF04
S214008A0000281CDA0DA911A8FFF7C8F90028CED156
S214008A10494611A8FFF761FA119C00287FF4A3AE1F
S214008A200BA9084611AAFFF7B3FB0B9E0346BDF839
S214008A30327000287FF443AF2B68013B2B600BF1AC
S214008A40FF3B043D06E70123AAF8043021E7002493
S214008A50A046274626460294019484E62C46A8465D
S214008A60029501957FE602947DE651465046049AAB
S214008A70FFF78EFB03463EE751465046049AFFF743
S214008A80A5FB034600283FF437AE0CE66FF009035B
S214008A9009E62DE9F04F99B001900D4610460121E8
S214008AA09146FEF7DEFE002840F3048201230022F2
S214008AB0294614A8CDE91023CDE91223CDE90823D1
S214008AC0CDE91423CDE916230F930D930B9307934B
S214008AD005930393FFF762F988B36FF00F0B14A8A2
S214008AE0FEF7F9FF16A8FEF7F6FFBBF1000F40F001
S214008AF0C581012112A8FEF7B4FE0446002840F006
S214008B00C4814A46294610A8FFF7BDFD83460028C3
S214008B1040F0B5810E9010A90EA8FFF73FF90E9C05
S214008B2028B9494608A8FFF739F900286AD0002670
S214008B30B046B246354637466FF00F0B6CE14946F5
S214008B4016A8FFF72BF90028C7D114A8FDF76CFF6D
S214008B50064616A8FDF768FF044650B9014616A853
S214008B60FDF778FC28B9294612A8FFF717F98346BF
S214008B70B5E70123ADF85C30ADF85430002114A8F9
S214008B80FEF76FFE80B9A642314616A828BF2146DA
S214008B90FFF7A3F90028A0D116A912A8FFF7FEF840
S214008BA0834600289BD098E714A8FDF73DFF0146B2
S214008BB014A8FEF7C8FE16A8FDF736FF014616A84D
S214008BC0FEF7C1FE16A914A8FDF783FC00280DDBEE
S214008BD014A9084616AAFFF7D0F9834600287FF4A2
S214008BE07EAF012114A8FEF7AEFEC7E716A9084619
S214008BF014AAFFF7C2F9834600287FF470AF01215C
S214008C0016A8F0E7494606A8CDF818B0FFF7C6F84C
S214008C10DDF818A0002840F0418101210CA8CDF80D
S214008C2030B0FFF708F90C9E002840F03A8159460C
S214008C300AA8CDF828B0FFF7FEF8DDF8288000284F
S214008C4040F03381594604A8CDF810B0FFF7F3F88A
S214008C50049D002840F02C81012102A8CDF808B020
S214008C60FFF7E9F8029F00287FF466AF2368D8076D
S214008C7052D5DAF80030DB077CD506A90EA80E948C
S214008C80CDF818A0FDF725FC0028C0F29E800EA99E
S214008C90084606AAFFF79AFA0E9C8346002840F07C
S214008CA0BB800CA9084604AA0C960495FFF78EFA1A
S214008CB00C9E8346002840F0AF800AA9084602AA08
S214008CC0CDF828800297FFF781FADDF828808346E2
S214008CD0002840F0A18000210EA80E94FEF7C1FDEA
S214008CE00028C3D1002104A80495FEF7BAFD002889
S214008CF0C0F28880494604A80495FDF7EAFB0028E0
S214008D0080F2B180019804A9FFF748F8B0F1000B93
S214008D1018BF6FF00F0B7FE001210EA80E94FEF730
S214008D2012FE3368DA0703D4D8F80030DB0715D50F
S214008D300CA9084608AA0C96FFF72AFA0C9E83464A
S214008D40002869D10AA9084610AACDF82880FFF79E
S214008D503DFADDF82880834600285DD101210CA865
S214008D600C96FEF7F0FD01210AA8CDF82880FEF744
S214008D70EAFD7BE7012106A8CDF818A0FEF7E3FD83
S214008D802B68D90702D43B68DA0713D504A908462E
S214008D9008AA0495FFF7FCF9049D834600283BD1FA
S214008DA002A9084610AA0297FFF710FA029F834608
S214008DB0002831D1012104A80495FEF7C4FD012145
S214008DC002A80297FEF7BFFD53E706A908460EAABB
S214008DD0FFF7FCF9DDF818A08346E8B904A90846B1
S214008DE00CAA04950C96FFF7F1F9049D834698B9F2
S214008DF002A908460AAA0297CDF82880FFF7E6F9E6
S214008E00029F64E704A94A460846FFF7C1F9049D95
S214008E10834600283FF466AF10A8FEF75CFE0EA857
S214008E200E94FEF758FE0CA80C96FEF754FE0AA801
S214008E30CDF82880FEF74FFE12A8FEF74CFE08A8D5
S214008E40FEF749FE06A8CDF818A0FEF744FE04A8D3
S214008E500495FEF740FE02A80297FEF73CFE584631
S214008E6019B0BDE8F08F04A94A460846FFF7AEF9E8
S214008E70049D834600283FF43DAFCDE700242646F8
S214008E80A046A24625462746C6E75C465E46D84626
S214008E90DA465D465F466FF00D0BBDE75E46D84688
S214008EA048E6D8465D465F4646E65D465F4643E68C
S214008EB05F4641E66FF0030BD1E72DE9F04F16460B
S214008EC01D46002201238BB0B14281460C46CDE9F7
S214008ED00623CDE908231ED106A8FEF75FFFC8B11A
S214008EE06FF00F03029308A8FEF7F5FD06A8FEF73D
S214008EF0F2FD029B002B40F0B080D9F84850002DC0
S214008F0070D12146204609F104020BB0BDE8F04FAF
S214008F10FFF7B9BB06AEAC4206D1214608A8FEF75D
S214008F203DFF0028DCD108ADB6F80680B8F1000F8A
S214008F3036D1B8FA88F3EF885B09002F3AD1002FB4
S214008F4008BF43F0010308EB070A51462046049386
S214008F50FEF7DFFD01460028C2D12046FEF76BFF74
S214008F6002900028BCD13268236801460392184656
S214008F704FEA8A02D5F800B01AF0B2FDABF1040A47
S214008F80834600EB870708F10101BB451BD1049B14
S214008F9033BBB388AA8813FB02F39BB2A380A2E775
S214008FA0336803EB880353F8043C002BC1D108F167
S214008FB0FF38BBE72A6802EB870252F8042C002A27
S214008FC0BDD1013FB9E75AF8043F58460093039ACB
S214008FD0434605910BF1040B0FF0C8FD0599D4E745
S214008FE00123DBE7B4F90430002B04DA20460299AB
S214008FF0FEF737FCA0BB2046FEF76AFCD9F83C30EB
S214009000B0EB430F2CD82046A847054680B909F197
S2140090100406B4F90430002B04DA00212046FEF7DB
S21400902020FC48B931462046FDF753FA00280CDAF2
S21400903028460BB0BDE8F08F324621462046FFF7A3
S214009040A7F80028E5D00546F2E732462146204636
S214009050FEF793FF0028E5D0F5E76FF00F05E7E78A
S214009060004DE5E780B0FFFF2DE9F74301F110065C
S2140090700546894630460021FEF7F3FB0446A0B3BA
S21400908000230127314668462A1DCDE90037FFF741
S21400909000FD044630BB09F108086B4642464146CF
S2140090A02846FFF70AFF0446E0B96B466A4669465B
S2140090B02846FFF702FF0446A0B96B464A464946D3
S2140090C02846FFF7FAFE044660B96B46424641461C
S2140090D02846FFF7F2FE044620B939463046FEF72A
S2140090E0AAFE04466846FEF7F6FC204603B0BDE836
S2140090F0F0832DE9F84F1E4603F10805C3680446C1
S2140091008A469046002B40F0A58002F110031A46CE
S2140091102946FFF7D2FE002840F09A8006F1100795
S2140091202B46424639462046FFF734F8002840F0E2
S2140091308F8006F118092B46424649462046FFF71F
S21400914048F8002840F084804B463A462946204698
S214009150FFF7B3FE00287BD1032229463046FFF7EF
S2140091607AF8002872D131462046FEF77CFF0028A8
S2140091706ED108F1080B06F110075B465A463946D1
S2140091802046FFF79AFE002862D1394620460EF0A8
S214009190FDFF00285CD13B46424629462046FFF7A5
S2140091A08CFE002854D1294620460EF0EFFF0028FA
S2140091B04ED106F118093B463A4649462046FFF787
S2140091C07CFE002844D1494620460EF0DFFF0028EA
S2140091D03ED13346324639462046FFF76EFEB8BBD0
S2140091E02B463A4639462046FEF7F3FF80BB2B4611
S2140091F03A4639462046FEF7ECFF48BB3B462A4631
S21400920029462046FEF7E5FF10BB33462A46294688
S2140092102046FFF752FED8B94B462A462946204636
S214009220FEF7D7FFA0B95A464946204608F1100374
S214009230FFF743FE60B9494620460EF0A7FF38B94F
S21400924039465046FEF7AAFD002841D06FF00F00C1
S214009250BDE8F88F13462946FFF72FFE0028F7D102
S214009260032229463046FEF7F6FF0028EED13146A7
S2140092702046FEF7F8FE0028EAD104F10C07014666
S2140092803846FEF7EEFA00283FF473AF08F11003F5
S2140092901A4629462046FFF710FE0028D8D106F1C8
S2140092A010092B462A4649462046FFF706FE0028A8
S2140092B0CED13B464A4629462046FFF7FEFD00280B
S2140092C0C6D12B46324631462046FEF763FF4EE7B0
S2140092D029460AF10800FEF761FD0028B6D1494686
S2140092E00AF11000BDE8F84FFEF758BD2DE9F14F22
S2140092F09A461B6904460E4691460A9D002B00F0CE
S214009300D38002F1100700213846FEF7AAFA30B9DA
S2140093105146304601B0BDE8F04FFEF775BD0AF184
S214009320100800214046FEF79CFA08B94946F0E7C7
S21400933001214046FEF795FA002840F0B5803B46EE
S2140093403A4629462046FFF7B8FD002840F0AD8093
S21400935005F108083B462A4641462046FFF7ADFD84
S214009360002840F0A28053462A4629462046FFF7AA
S214009370A4FD002840F099804246414620460AF166
S2140093800803FFF79AFD002840F08F804B462A46D8
S21400939029462046FEF71DFF002840F0868009F18A
S2140093A0080B5B46424641462046FEF712FF002861
S2140093B07BD100212846FEF754FA014688B940467C
S2140093C0FEF74FFA38B92B464A463146204601B0DA
S2140093D0BDE8F04F8DE6304601B0BDE8F04FFEF731
S2140093E03EBD2B463A46204606F11001FFF765FDC6
S2140093F000285AD105F110072B462A463946204642
S214009400FFF75BFD002850D105F1180A2B463A46B7
S21400941051462046FFF751FD002846D14B463A46B6
S21400942039462046FFF749FD00283ED139462846F2
S214009430FEF7B4FCE0BB294620460EF0A7FEA0BB14
S2140094404346424631462046FFF737FD68BB2B466B
S214009450324631462046FEF7BCFE30BB5346324607
S21400946031462046FEF7B5FEF8B933463A46394649
S2140094702046FEF7AEFEC0B943463A463946204679
S214009480FFF71BFD88B95B46524651462046FFF75C
S21400949014FD50B953463A46204606F1080101B07D
S2140094A0BDE8F04FFEF795BE034801B0BDE8F08F6B
S2140094B06FF00F00F9E700BF80B0FFFF2DE9F04323
S2140094C00E460546012189B006F11000FEF7C9F9DF
S2140094D00446002840F0E2802846FEF74FFA0228AD
S2140094E0804660D13046FEF7F3F92B6C0730073321
S2140094F0C008B0EBD30F00F2D18021463046FEF70D
S214009500B0F90028C0F2CA800123314604A82F789B
S21400951004940593FEF742FC002841D10435294601
S21400952004A8FCF7D6FF002807DA012104A8FEF7F6
S21400953098F9002810DC5B4C07E004A92A46084688
S214009540FEF744FE04460028E9D004A8FEF7C3FA56
S214009550204609B0BDE8F083092F0BD1524904A874
S214009560FCF7B7FF0028E6D0504904A8FCF7B1FF87
S2140095700028E0D0012302934FF0011304A90793BB
S214009580084602AB06AA0693FEF702FE044600282B
S214009590DBD1294604A8FCF79CFF0028D5D1CAE7F2
S2140095A06FF00F04D1E701287AD121463046FEF746
S2140095B058F9002872DB06F1080921464846FEF7EE
S2140095C050F900286ADB2F1D39463046FCF781FF2C
S2140095D0002863DA39464846FCF77BFF00285DDA48
S2140095E04B464A46284602A9CDE90248CDE904483A
S2140095F0FFF763FC044600284CD133463246284623
S21400960004A9FFF75AFC0446002843D1EB68002B58
S21400961036D1032301934FF0011304A9079308469C
S21400962001AB06AA0693FEF7D1FD044690BBBDF932
S2140096301430002B04DA002104A8FEF712F9C8B98A
S21400964004AA334611462846FFF737FC044608BBF3
S21400965004AA1146284605F11403FEF79BFD0446AE
S214009660C0B904A902A8FCF734FF0E4B041E18BFAD
S2140096701C460FE004A93A460846FEF789FDD4E7E3
S21400968004AA1146284605F10C03FEF783FD04469E
S2140096900028D5D002A8FEF71EFA56E7014C57E779
S2140096A0034C55E780B3FFFFF45F0200FC5F020047
S2140096B080B0FFFF70B5044658B3436C012B11D041
S2140096C00C30FEF708FA04F11400FEF704FA04F171
S2140096D01C00FEF71BFA04F13400FEF7FCF9201D0F
S2140096E0FEF7F9F9A36D8BB92046BDE870406021FE
S2140096F0FEF7DCB906FB0500FEF708FA0135D4E9EB
S2140097001603AB42F6D81CF047F8EDE700251826FE
S214009710F5E770BD10B5044658B1FFF7CBFF04F16E
S2140097206000FEF7D8F904F16800BDE81040FEF7C7
S214009730EDB910BDF0B504460E4685B0FFF7BAFF8A
S2140097402046FEF72DF9032E267005D0092E30D0C0
S21400975000233F4D237029E03E4B3F4AA3643F4B16
S214009760A260A261A2632262A26203F18002626228
S2140097704FF0011203F12001616103F140016360C3
S214009780616303F16001A033E362E1612263201D9F
S214009790FEF79EF8E06304F13400FEF799F8012323
S2140097A063640023C4E9163320640025284605B008
S2140097B0F0BD2B4B2B49A36404F10C00FEF73BFBDA
S2140097C000283FD1271D01213846FEF734FB00282C
S2140097D038D1FF213846FEF780FB98BB1323019350
S2140097E04FF0011339460393384601AB02AA0293A1
S2140097F0FEF7ECFC054638BB3846FEF769F804F180
S2140098003407E063102238461749FEF796FA0546F5
S214009810D0B90122FC213846FEF736FB90B9314616
S21400982004F11C00FEF707FB60B9012104F12C00CF
S214009830FEF701FB30B904F12400FEF74CF9FE23D5
S2140098402364B2E76FF00F052046FFF733FFADE75E
S21400985080B1FFFFB982000001000800046002002A
S2140098604F6A000042DB0100A8600200434213F08A
S2140098707F0320D0584210F15F0F80F2C98010F1AC
S2140098806C0F48DA10F1700F00F0F28010F16F0FD5
S21400989080F2B68010F5645F00F08E8000F3A5803D
S2140098A010F5685F6DD000F39D8010F56C5F1DD0DD
S2140098B010F56A5F64E010F56E5F00F0D680DADCC3
