S02B00002F73646B323032362D6669726D776172652F67656E6572617465642F636D616B655F6763632F62756F
S214004000C80A0020F732010001BB010005BB010011
S2140040107139010009BB010011BB0100F532010036
S214004020F5320100F5320100F5320100F5320100EB
S21400403015BB0100D4680200F5320100F5730100DB
S214004040F5320100F5320100F5320100316700005B
S214004050F5320100F5320100F5320100F5320100BB
S214004060F5320100F5320100436D0100F532010022
S21400407049C80000F5320100F5320100F5320100B2
S214004080F5320100F5320100F5320100F53201008B
S214004090F5320100CF3A0100F5320100F532010099
S2140040A0F53201005533010035330100F5320100C9
S2140040B0F5320100F5320100F532010075340200D8
S2140040C07F5402007B540200A52B02009554020088
S2140040D0835402003534020087540200F51A0200A9
S2140040E0B5340200F5320100F5320100F532010068
S2140040F0F5320100F5320100F5320100F53201001B
S214004100F5320100F5320100F5320100F53201000A
S214004110F5320100F5320100F5320100F5320100FA
S214004120F5320100F5320100F5320100F5320100EA
S208004130F53201005E
S21400414070B5104A104C114DE3695E0714D4082868
S21400415001D12B4213D103EA00068E4207D10B4A47
S2140041601A40002A14BF6FF00100002070BD013A0B
S214004170EAD16FF00200F9E74FF0FF30F6E76FF094
S2140041800100F3E78096980000000350020001004B
S214004190000000000000000000000000000000001A
S2140041A02DE98048B74BCBB05B691A0B03F03F0391
S2140041B0012B8DF8D8208DF8D93015D1B24B9A6DD9
S2140041C0D50311D45A6B6FF3162242F4BC1242F494
S2140041D0A0625A631A6B22F4704242F440421A6399
S2140041E01A6B42F4E0621A63BDF8D830B3F5807FEC
S2140041F00CD14FF000531B68A44B1B68A44B1B68E4
S214004200A44B1B68A44B1B68A44B1B68A44AD2F89B
S214004210803043F00303C2F88030EFF3118330227E
S21400422082F311889F4D95F87D21002A40F077840F
S214004230012285F87D2183F31188BFF36F8F6FF01D
S21400424004035024984A994913F0800F03F10100A3
S21400425040F05D840B443D2883F800430346F3D1C9
S214004260934BD3F84C21140300F15F84D3F85041EC
S214004270E4B2904B904A93F90060904B26441A6043
S214004280874B86F308061B6F03F00703032B01D149
S21400429021F084FD13F0B6FA032842D045F60E034B
S2140042A00221794AC2F88030854B9962012103F5D4
S2140042B080539962936DD803FCD4824B8249136174
S2140042C0936903F0004343EA064343EA042343F0BA
S2140042D0407343F03C039361136A23F00D031362AB
S2140042E0936A23F0330343F001039362664A936DA7
S2140042F031EA0303FBD10221714B9962936D590099
S214004300FCD4136923F4700343F4001313614FF0D5
S21400431000426B4B9A61022203F580539A62012297
S2140043209A62634BD3F89840684B5A68012A00F0AB
S214004330038413F067FA042807D1654813F01AFAC5
S214004340574A136F43F480631367624A24F040733E
S214004350D16811F0060FFBD19168936090684340D6
S21400436013F4F81F05BF5C4B594A91601A6013F0AE
S21400437049FA042812D121F011FD13F0FBF90120AF
S21400438010F05CFF5549464A884294BF0020012041
S214004390136F23F4806343EA80231367444B504A29
S2140043A0D3F8C0303E4C23F040739360266F4848E5
S2140043B0C6F38026731C85F87E3113F0DBF9236F75
S2140043C043F480632367236F23F0070343F002035D
S2140043D0236721F0E3FC13F0CDF9236F324923F471
S2140043E0806343EA86232367236F23F4505343F402
S2140043F080632367D1F8FC2012F080721EBFD1F8CC
S214004400FC3023F08073C1F8FC30D4F8803023F001
S214004410030343F00203C4F8803032B1224AD2F8D4
S214004420FC3043F08073C2F8FC301D4BD3F82021DB
S21400443022F0070242F00102C3F82021D3F88021BF
S21400444022F0030242F00102C3F88021D3F8402193
S21400445022F0030242F00102C3F84021D3F86021A3
S21400446022F0030242F00102C3F86021D3F8402292
S21400447022F0030242F00102C3F84022D3F80022E1
S21400448030E000BF00C0075000C0005000400020D1
S2140044900080002000C00020000001200040012015
S2140044A000800050D819002000ED00E000E100E098
S2140044B00080E00F5033002000F049024041002009
S2140044C000D000502008B00B0300014000C001508F
S2140044D000B4C404000001503C41002080F0FA0201
S2140044E00040015A22F0070242F00102C3F80022FF
S2140044F0D3F8082222F0070242F00102C3F808228D
S214004500BB4A536A23F0010353624FF0E02213695B
S21400451043F004031361B74B5A6F42F001025A6727
S214004520DA6E22F03002DA66EFF31186302383F378
S214004530118895F87F31002B3ED14FF0B044AE4A3B
S2140045401360AE4A1360AE4A136063680BB111F095
S21400455023F801230021AB4A5360A160AA494B60AF
S2140045600223E3606023E3631F23936153614FF0EC
S214004570B0439A6A12F00802FBD11A625A685B6866
S2140045800BB111F009F801279F4C676011F004F891
S2140045904FF0B0434FF48062DF609C4BC3F880213D
S2140045A01A601220A76136A922F003F8369A984BB3
S2140045B01A60002A40F0C78286F31188BFF36F8F17
S2140045C012F0B6F8934A944CD2F8C030934E23F0CB
S2140045D0FF0343F0A003B4429149C2F8C03000F094
S2140045E0098326F01F03203BB3F1005F80F00383AE
S2140045F08C4B0A68874823F01F0343F00303C0F878
S2140046009820C0F89C30884B0132C0F8A0300A6071
S214004610BFF35F8F05267F4BC3F894605A6A42F457
S21400462080325A62BFF34F8FBFF36F8FBFF34F8F47
S214004630BFF36F8F7D4C7E4817F05DFAB4F85830A4
S214004640B4F85A10A26E01EB43010139342012F07F
S21400465032F804F16C0017F04EFAB4F85830B4F89B
S2140046605A10E26E01EB43010139072012F023F8DD
S21400467004F1700017F03FFAB4F85810226F49089A
S2140046800131012012F017F804F1740017F033FA24
S214004690606D626F113080B2B4F85810043012F0BA
S2140046A00AF804F1780017F026FAB4F85810A26F4A
S2140046B001390C2011F0FFFF04F17C0017F01BFA03
S2140046C031460026E26F942011F0F5FF04F18000D9
S2140046D017F011FAD4F88020B4F85A10082011F018
S2140046E0EAFFC4E9186610F049FF4FF050234FF474
S2140046F00032C7071A6709D401221146164601FA86
S21400470006F3034002F1010200F08582494B03EBF9
S21400471046035B8B484A062B1168484808918AB2C4
S2140047204FEA114140F07E824FF20F03994240F06B
S2140047307682B2F5406F28BF4FF4C06202804FF019
S21400474000534CF23C325A80324A536A43F4702388
S2140047505362EFF308834FF0CD31394A043B93425E
S21400476080F0718200239B6AB3F5804F80F09980B9
S2140047701A68344B9A4240F0948095F8806116F09F
S214004780FD0640F08E80304F3B78002B00F05E82B6
S21400479002233B7008214FF480331C4A2B48C2F892
S2140047A08011C36011602A4A136100239B6ADB698B
S2140047B098473B788046012B40F0DD8202F08AFA6B
S2140047C0013040F0C982D5F89421224B1A66D5F8FC
S2140047D098215A66D5F89C21C3F87021D5F8A021F7
S2140047E0D20700F1C5821C4A536801334AD135E02E
S2140047F000C0075000400050983200207033002060
S2140048006C330020002000580010005800E100E043
S214004810B40D002000ED00E0E03F0020803F0020C7
S21400482064330020FF3F0020E1FF0020E43F00202B
S2140048304C400020007502000000002046110020B9
S2140048400800002007B0CD5ED20A002000A0004479
S21400485000900044008000449C41002095F8803180
S21400486083B9BE494968C80748BF5360BC4B5B68FC
S214004870D90744BF01235360BA4B5B68DB0744BFCC
S214004880022353601BF032FFD5F8843183F311887E
S214004890BFF36F8F3E70B8F1000F02D1012385F889
S2140048A08031B149B14811F02DFE11F055FFB04BE3
S2140048B01A68900104D44FF00072C3F880211A6081
S2140048C01A68510104D44FF08062C3F880211A6040
S2140048D00026A84B314618463C22A3F184081FF058
S2140048E049FCC4E90266C4E90846C4E90D46E06C22
S2140048F02661266484F84460A4F8006184F8286081
S214004900E66184F83C602663C4E90066836808F1C3
S2140049105001984750BBE06C0368984730BBE06C8A
S2140049204146436898470646D0B947460146C4F80C
S214004930D400C4F8FC0084F8F800A4F8D0002022C4
S21400494008F1D8001FF016FC47F8C06FC7E90166EB
S214004950E06CC8F8CC60C3689847002800F00D8269
S214004960854802F05EFB854802F05BFB05F07AFAAC
S21400497021F028FA0021824B08465B6811F0C2FD40
S21400498008B1122809D136A813F020FC28B94FF038
S214004990FF309DF8D8101FF0BDFE002612F01AFB5F
S2140049A01422002136A81FF0E5FB764B36A94FF0FF
S2140049B0FF30379320F040F80123B34636A94FF076
S2140049C0FF30CDE936668DF8DA301FF003FF6FF062
S2140049D00A014FF0FF3020F032F817F0C7FE4022F1
S2140049E0314669481FF0C6FB3022314667481FF043
S2140049F0C1FB654F664B674ADFF8E8A1DFF8E89130
S214004A00DFF8E881A3F1180C07F1400E24260021F8
S214004A1006FB0BF6604843E9061743F8040C0CEB5C
S214004A20060043E904A943F8088C01770162CBF13C
S214004A30000000F01800704442F8140C574842F882
S214004A40181C42F8100C564843F8241B42F80C0C6D
S214004A505448203742F8080C534842F8040C534890
S214004A6030440BF10106022E01774FF0010B016274
S214004A7042F8241BCAD10AF019F80346002840F071
S214004A801B82002000214A4A4FF6FF7AC2E9000145
S214004A9041F60B22DFF858817F21A8F80420454A0A
S214004AA04548C5F830222022C8F800300293ADF8F9
S214004AB01CA08DF81EB01FF05DFB47F67F714FF00F
S214004AC080034FF0FF393D4AA5F8443211803C4A36
S214004AD03C491288029BA5F840223B4AC5F8501272
S214004AE012682439C5F84822384A36A8128807AF13
S214004AF0A5F84222364ACDF8D8901268C5F84C225E
S214004B001A4617F091FE002800F05781FEE703F0E2
S214004B100F03043B13441C760346FFF795BB83F351
S214004B201188BFF36F8FFFF79BBB2A4B1C88FF2CA7
S214004B3088BF8024FFF79DBB27494A609A69920781
S214004B40FCD1FFF7F6BB002340F2E73123481FF005
S214004B50EFF8234B85F87F7118602DE5008005502F
S214004B6000C0055000000650F46E02007C1B0020BA
S214004B7000E100E068400020FC3F002010400020DC
S214004B8000ED00E0006A1800981B0020D81B0020EB
S214004B90D00D0020F80F0020A125010079DC0000D0
S214004BA015D40000A9DC0000B1DC0000E00F0020F6
S214004BB058110020FD2A0100A7130020A51300208D
S214004BC0629002002C1C0020689002006090020098
S214004BD0649002000001E00F00E0015018FCFFFFA7
S214004BE0B00D0020452501000BD400001DDC0000A0
S214004BF0741100209C4B08689C4FC2F8980043F044
S214004C0001030130B442C2F89C70C2F8A0300860BC
S214004C103FF4FEACECE4102A7FF470AD7AE54FF476
S214004C20C0628BE540F20726B3420AD14FF20F0668
S214004C30B14206D19A4202BF4FF000524CF23C31CC
S214004C405180038080E543F8041988E54FF0010899
S214004C501E96269687F80080EFF31183302282F3A3
S214004C601188C5F884311BF039FD95F888314BB9A9
S214004C7011F072FD30B97E497E4814F049FC08B93F
S214004C8085F888817C4B5A68C5F8A0217B4A9A60D3
S214004C901A6EC5F894215A6EC5F89821D3F870316B
S214004CA0774AC5F89C31774B5968481C3BD04FF47F
S214004CB080138B4013660423714A4FF080411366BD
S214004CC04FF480631366102313664FF400534FF0BF
S214004CD00008136611665366D8F82830B3F5804F7F
S214004CE010D2012336A88DF8D830CDE9378801F0E8
S214004CF070FF389B590505D5D8F8283026A91B6CB7
S214004D001EA898471E9A5E4B1A66269A5A6695F80B
S214004D108821002A3FF43EADD5F88C211A66D5F8D6
S214004D2090215A6636E595F88031002BC3D1564B54
S214004D305B6813B94FF480131366544B5A68504B94
S214004D4012B94FF400121A66514A5268002AB2D1BC
S214004D504FF480021A66AEE701F0BCFF40F2011382
S214004D6098423FF430AD4B4AD368DB07FCD42AE5C3
S214004D7000229A6037E501268CE5384606F050FC9E
S214004D8000287FF4EDAD05F06DF8064600287FF4A8
S214004D90E7AD4FF4844009F05CFD003818BF0120F1
S214004DA03D4A3E4B85F87C011A603D4B02201E6151
S214004DB002F052FB02F0F8FAD8E53A49369818F0B5
S214004DC0B3F800B1FEE7314636981FF01CFD00B17F
S214004DD0FEE73549369818F09FFA00B1FEE75946C7
S214004DE036981FF0FCFE00B1FEE7594636981FF0D5
S214004DF004FF064600B1FEE7014680222B481FF05E
S214004E00B9F92A4B59463698A3F83C9083F87E9019
S214004E1083F83EA0A3F87CA0DFF8949017F06AFD14
S214004E20369BC9F8003003B9FEE70DA3D3E900238B
S214004E304FF0FF304FF0FF3109F03BFE3146404661
S214004E400AF046F85946584620F05CFB3946D9F831
S214004E50000017F027FD68B3FEE700BFAFF3008041
S214004E600AE020FF220200000000012003000020CC
S214004E70641B0020D80A00200080004455CEAC00F9
S214004E80009000449C4100200080055000C0055062
S214004E9000000650000004407D6D0000980B0020C6
S214004EA09C0B0020070011003C750200E01100205A
S214004EB0341100200EF05AF810F060FBCC4B4FF483
S214004EC0003218604FF050234FF00009C94EDFF84B
S214004ED070A31A6796F8E430002B40F0A480C6E969
S214004EE00136C6E9033673614FF6FF73DFF8548365
S214004EF0B8F800709F4200D1FEE7FFB93B460DF1BF
S214004F00240BC7F1040136AA89B20BEB07003693CF
S214004F1013F00DFA0023002840F09D80369A1744BF
S214004F20032FEED9DBF80030002B00F095806FF0F1
S214004F300042934208BF0123AF4A1360B8F800301E
S214004F40C6E9076601337662A8F8003008F08BFAE7
S214004F500027AA4B06F13001B06200F18040A84A53
S214004F607363F163B063F76206F1080036630AF014
S214004F708CFB0B22FB231E2186F84420A6F8583013
S214004F809C4AF36930209B1ADB10B3FBF1F34FF613
S214004F90FF7B9C49DBB200FB0313C6E91277C6E928
S214004FA01C3606F18000C6E91E773664A6F846B0C1
S214004FB0376576650AF09CFA06F190000AF098FAD2
S214004FC006F1A0000AF094FA8F4B06F15408C6F8D2
S214004FD0BC3006F1B803C6F8C4304046C6F8B86020
S214004FE00BF07EFA0B22404686F84420C6E913777B
S214004FF0B764A6F846B00BF073FA0C23C6E9377709
S214005000C6F8CC30C6F8C860A6F8CE70A6F8D07041
S21400501086F8DA7086F8E4700AF0AAFA0123C6F871
S214005020E80086F8E43009F10103022B4AF8046B25
S2140050304FF0010906F1F0067FF44CAFD5F8D482A4
S214005040C5F8DC82B8F1000F08D16A216F4B704AB0
S214005050704816F099FDFEE701236DE7D5F8D89263
S2140050606D4D00272B4643F8E98B6B6105F6E90387
S214005070AB614FF4006305F114063046AB83C5E917
S21400508008770BF09BFA2E662B460426013EC3E9F2
S214005090197703F10803F9D1C823604A0421C5E94A
S2140050A02C234FF6FF73A5F8B8305D4B0022C5E9F8
S2140050B0303600235B4FC5E92266C5E92466C5E99C
S2140050C02666C5E93423C5E93623A5F8846085F845
S2140050D0A860C5F8AC60C5F8BC80C5F8C86085F89F
S2140050E0E010C5F8E46085F8E86085F8ED6885F8B6
S2140050F0EE68A5F86869A5F86E69A5F87069C5F840
S2140051008069C5F88469C5F88869C5F88C6985F82A
S2140051109069C5F8946947E90223D5F800A0C5F858
S214005120A069A5F8A469BAF1000F00D1FEE73E4ACF
S2140051303E4B3146C5E90A25A7F1B00078221D602E
S2140051401FF018F84FF0FF32C5F87629384AC5F830
S2140051507269C5F87A69C5F86A69C5F8E968CAE97E
S2140051603725DFF8E4A07721A7F50D60CAE94D25BD
S2140051700CF0E0FBA7F6E4000AF010FA2C4A2B4BE2
S214005180C8E93725C9E937252A4A1B68C7F8182809
S214005190294AAB42C7F82428284AC5E90168C5F859
S2140051A00C90A7F80668C7F81488C7F81C68C7F8F4
S2140051B02088C7F82868C7F82C88C7F83028C7F8AA
S2140051C0346813D14FF0E0252B699B073ED10F20A2
S2140051D010F034F80A23CAF82801B0FBF3F00138BF
S2140051E0B0F1807FC0F0AA80022330E0FEE700BF67
S2140051F04C140020000E00200C130020F1F60000D6
S2140052003C6902002013002099290100BB8F020090
S21400521068750200C58F0200501D002000F8FF07C9
S21400522039250100F0260020E52401003011002079
S214005230DB0D0100EB07010099DF000055F60000CA
S214005240AC1C002008130020D81900200123CAF83F
S214005250003001234F4D2B606B6801336B6094F870
S214005260003143B12368002B40F088804A4884F818
S214005270003106F0D5F9A66C3746002F40F0858041
S214005280EFF31182302383F31188A36C9B1BA36476
S21400529082F31188BFF36F8F94F8D03023B13E4865
S2140052A006F02AF984F8D07094F8F83093B1032306
S2140052B0394826AA36A912F081FD58B9BDF89830AB
S2140052C036982BB10278D4F8FC301344C4F8FC307E
S2140052D001F0A6FF314E33782BB106F08CF9337807
S2140052E0002B40F087802E4B1B78002B00F082802E
S2140052F00DF12809012349462A480DF11A0212F039
S2140053005DFD0646002840F0B382D9F800707B8821
S2140053105A1E042A6AD80622DFF89480398802FBCF
S2140053200382B2F87E20914260D1023B032B41D823
S214005330DFE813F0230135015A018802CAE94B045D
S214005340EFF3108272B64FF00071174B2E61596062
S21400535083F82360DAF82C316B610E4BAE61CAF825
S21400536008601E6001238AF80630BFF34F8FBFF334
S2140053706F8F07232B6182F310886AE793F850201B
S214005380022A7FF478AF1B686DE7084807F0EEFB4B
S214005390013F72E7700D0020A44000208C0B002017
S2140053A0E8400020800B002000ED00E0E43F0020F5
S2140053B0007502000421B74B3A7983F8E012002109
S2140053C083F8E112012183F8E2126FF07F0183F87F
S2140053D0E31293F87C11002940F0CD80012A18BF13
S2140053E02426C3F8E462AC4801F0C5FFD9F80000F3
S2140053F001F016FFA3680BB9E36823B1A74802F0D3
S21400540039F80028F6D0A54B5B68002B40F04382A5
S214005410A24B302793F844804646EFF3118987F372
S21400542011889F480EF098FB89F31188BFF36F8FA1
S214005430002840F06C82EFF31182302383F311884A
S214005440964B93F84430984540F26D82002393497A
S21400545081F8443082F31188BFF36F8FAB68002267
S2140054600133AB6002232B6003238A4E2B60D6F8F1
S214005470DC325F685A60002F40F05982EB680133D7
S214005480EB6004232B6005232B60864DD6F8DC32B8
S2140054902A780293022AD3B200F07782032B00F018
S2140054A051820BB901232B707F4B1D68002D00F035
S2140054B0458528460AF080F805F58D5001230BAA8D
S2140054C016A9083012F07AFC002840F0288505F569
S2140054D0805393F8A62112B9012283F8A62100234F
S2140054E0169ABDF82C609A4208BF1E460121C5F8E0
S2140054F0902004220DF1170B05F1900985F86F191D
S21400550048465946A5F89460A5F89630A5F89860E0
S21400551085F89A30A5F89C6085F8E02085F8A830D4
S2140055208DF817300BF0FAFCD8B99DF917309DF8B6
S2140055301780002B15DAD5F884390133C5F884397D
S214005540C8F3011385F87139039305EB83035B6891
S2140055502B60002B40F052820622414628460CF073
S21400556027FC002385F86F39169801F059FE0028AD
S21400557000F0D584FEE7122633E70423454880F87A
S214005580E032002380F8E132022380F8E2326FF046
S2140055907F0380F8E3322423C0F8E43277E0434AFE
S2140055A03B1D07F1240153F8040B8B4242F8040B11
S2140055B0F9D115F08DFA3E4B3E491A68064601F5BC
S2140055C0D6701EF03BFF06227B88CAF8E46202FB18
S2140055D003886FEA43436FEA5343B8F88020AAF87B
S2140055E0E232AAF8E022FEE62A4890F87C31002B48
S2140055F000F01981202200211EA81EF0BBFD2E4BB4
S21400560007F104081B78052B02D1032001F024FFC4
S21400561026AA08F1200C1346D8F80000D8F8041083
S21400562008F1080803C3E0451A46F4D14021234890
S21400563004F0F7FBB8B9214B0DF1B80C03F1200EBE
S214005640624618685968083303C273459446F7D112
S21400565000230DF1580836934246402136AB26A863
S21400566012F05EFB70B301260A4BC3F8E462062113
S2140056707B88134A074801FB03226FEA43436FEA1D
S2140056805343B2F88020A0F8E232A0F8E02200F5FA
S2140056903870A9E6D8190020B81C0020E43F002086
S2140056A0244000201013002030110020341B00205E
S2140056B09C410020141B0020940B0020C01C0020DE
S2140056C000750200B74B98E803009980090C9DF816
S2140056D06620186099711898BDF864105A73C3F85C
S2140056E00700A3F80B1007F1240236AB07F1440EAF
S2140056F09C46106851680832ACE803007245634661
S214005700F6D1A94B0DF1F80C03F1200E624618688D
S2140057105968083303C273459446F7D10023012223
S2140057204FF4844010A90B9304F09BFA78BBDDF885
S2140057304080D8F82030D8F824100293D8F80430E7
S21400574003911B0A28D1B8F800B0584604F030F987
S214005750039968B944F201022BF44050904207D0F6
S2140057600BF44F40B0F5824F02D0B0F5844F16D1FF
S2140057700BAB00930298102346AA04F03BFB83462B
S214005780404609F051F8BBF1000F00D150B150214E
S21400579036A802F02DFA66E76FF0860BF0E76FF09A
S2140057A0850BEDE7502110AB1EAA36A8CDF840B009
S2140057B012F0B6FA8046502136A802F019FAB8F16F
S2140057C0000F02D020211EA8E3E7784B1B78032B9E
S2140057D003D1774B186804F097FA10A801F0B7FDCC
S2140057E0744B0BA813934FF440730B9301F0B7FD63
S2140057F00B9BDFF8DCE1129300231EA9CDE910E332
S214005800159320226A4B10A804F0E6FE804620215D
S2140058101EA802F0EDF9B8F1000F7FF424AF0420C3
S21400582001F01AFE20E7112280F8E53280F8E42223
S21400583080F8E63280F8E732402100F53A7002F050
S214005840D7F914E74FF0AA334FF0AA32CDE90C236C
S2140058500423594880F8E032002380F8E13205231B
S21400586080F8E2326FF07F0380F8E332082393E695
S2140058701B280DD1504E96F82833002B3FF4BAADB6
S21400588006F2293001F077FD002386F82833B1E5CB
S21400589005F0B1FEAEE5EFF31186302787F31188E9
S2140058A046480EF059F9804686F31188BFF36F8F8D
S2140058B098F84C30A8F10406022B19D1304601F0B6
S2140058C071FBA8B108F12C00D8F8A09020F098FC45
S2140058D04FF00003314688F84C3048460EF044F945
S2140058E0304620F0A3FAD9F888300133C9F888305A
S2140058F0EFF3118687F3118830480EF02DF98046B5
S21400590086F31188BFF36F8F0028D1D180E54FF062
S2140059100003013E03744368C068984716F0FF060C
S2140059207FF47BAD87E5A3EB0803DBB28FE5B868B1
S214005930874216BF83680027BB60002383604368E6
S214005940984798E50CF031FE1D4BD3E900239042B2
S2140059509941FFF4A9AD1B4E306800B9FEE71E2240
S214005960194B1A49C31ADB10B3FBF2F33022DBB231
S21400597002FB03110B7F0F7667F382030B770CF0A5
S21400598035FE012337602B708EE50CF00EFE0C4BB7
S214005990D3E9002390429941FFF486AD094E306862
S2140059A0C0B9FEE79C0B0020E01C0020940B0020F2
S2140059B0B40C002000024805D8190020E83F00205B
S2140059C01813002058140020000E0020201300207A
S2140059D000240001B54B4FF0300EA0EB030C1E2345
S2140059E04FEAEC0CBCFBF3FCB1495FFA8CFC0B23D2
S2140059F03A460EFB0C110CF0A7FFC2E748461EA95C
S214005A000BF016FE002840F0B180DDF878B0BBF150
S214005A10010F08D040F2BE80ABF10203032B40F228
S214005A20B180052259E202238DF84030B5F8963051
S214005A30B34205D0484610A90BF070FA00B1FEE755
S214005A409DF84030022B40F08C800DF1D809484676
S214005A50D5F8008009F04CFD00211E26954BD8F89D
S214005A601C201970914BDFF858C2D01AC010B0FB3A
S214005A70F6F0C0B240220CEB80101EF07BFBD8F88C
S214005A801C208A4B8C48D31ADB10B3FBF6F3DBB230
S214005A904022002100EB831008F11C0B1EF06AFB6D
S214005AA009F004F848B1584609F056FD00B1FEE783
S214005AB001201FF03FFD00B9FEE700264FF6FF71FC
S214005AC0D8F81C0009F018F8584626A9CDE926662D
S214005AD00AF030FD4FF6FE71D8F81C0009F04EF8BB
S214005AE0484609F005FDCDF800904A464B4631463B
S214005AF0D8F81C0012F0D4FA3146D8F81C0009F089
S214005B00E1FB304613F09EFA4FF6FF790B2308F1BF
S214005B10540088F84430C8E91366C8F84860A8F806
S214005B2046900AF0DDFC95F871392B4483F86A69D3
S214005B3083F8726983F8769983F87A69286EC5F8CF
S214005B408069C5F88469C5F88869C5F88C690AF063
S214005B5035FD7022802128460CF02AF9002872D0E4
S214005B60FEE7032B0CD101F04BF81B200BF016FFC1
S214005B709DF817600246314628460CF016F962E09A
S214005B800DF0D8FF269026A948460BF051FD18B117
S214005B900BF004FF0246A0E1BBF1030F269E13D0D4
S214005BA0ABF10403012B08D85B4632464146284633
S214005BB00CF0A7FA002846D0D8E733460022414624
S214005BC028460CF085F8F5E733460EA81D223B491B
S214005BD00CF078FADDE90E3000F0010B002B40F0F7
S214005BE08181BBF1000F40F07D81712E6AD0B6F541
S214005BF06F5F55D00C2E40F06081484636A90BF0FA
S214005C008DF9002840F04D819DF8D830022B3BD00E
S214005C1003D9DA1E012A88BF0323002685F8E03060
S214005C200C2201234146284685F8E8600CF0E6FA87
S214005C3095F8E030042B30D0012338BB6A6C85F829
S214005C40A830C5F8E42095F8ED2895F8EE389A4285
S214005C5002D028460CF084FB95F871299DF8173081
S214005C602A4492F8E91803F00F0331B18B421EBFA5
S214005C70D5F888190131C5F888190F2B0CBF0123F8
S214005C80013382F8E9386CE40123C6E7C5F8E4601E
S214005C9085F8A83085F8E880D5E70028D3D0F9E75E
S214005CA0414628460CF09EF884E700BF000E002010
S214005CB02013002091130020AC100020A4750200D1
S214005CC02C1000202B689A6C002A00F0F2801E6FC1
S214005CD0002E00F0F080484610AA36A90BF06EFDA4
S214005CE0002840F0DE80BDF840207F2A00F2D880F1
S214005CF03346B28053F8060B369903931EF09EFB8C
S214005D00039B484619460BF009F9002840F0C98065
S214005D10B3794846B37640F6047333837F23F3762D
S214005D20337FC6E904BB23F0170343F0040333773D
S214005D3006F118010BF0F2F8002852D1484606F199
S214005D4019010BF0EBF800284BD10DF1180B594652
S214005D5048460BF0F3F8002843D1337F9DF818200F
S214005D600DF11A0B62F382035946484633770BF05F
S214005D70E5F8B0BB337F9DF81A200DF1190B62F3DE
S214005D8000035946484633770BF0D8F848BB337FB4
S214005D909DF819200DF1280B62F341035946484639
S214005DA033770BF0CBF8E0B9337F9DF828204846D0
S214005DB062F30413337706F114010BF043FB80B94A
S214005DC0484606F110010BF03DFB50B9484606F177
S214005DD01A010BF0A3F820B9484606F11B010BF098
S214005DE0AAFAD5F80090D9F84830002B61D099F877
S214005DF05A3009F15406052B5BD0D9F870B0DBF8A1
S214005E00000013F0D7F9B0B39BF81C30D80632D494
S214005E10584636A909F0DFFE68BB9BF81C30D90748
S214005E2004D4584699F8B41009F0FEFEB9F8583074
S214005E309A0620D49DF8D830082B1CD1D9F870309B
S214005E4009F190029A60D9F87000037FDB070CD442
S214005E50D9F8B0B0594609F0CEFED9F8B0309B4517
S214005E6024BF0BF10101C9F8B010D9F8700009F190
S214005E7062010AF0D6F80023304689F85B3089F8CC
S214005E805C3089F8B5300CF0A5FCB44BC9F84C3042
S214005E90C8F301132B4408F00F0883F87289D2E682
S214005EA006200BF07BFD4146024628460BF080FF9D
S214005EB080E60D20F5E70320F3E7A6F57053B3F56B
S214005EC0806F09D243F601439E4285F86FB94FF0C2
S214005ED0010B1CD085F86FB90D22414628460BF001
S214005EE064FF67E6002285F86F29421005EB600024
S214005EF0BBF1000F01D0AA58D3589847012385F864
S214005F006F3900287FF444AE3346012257E64846F0
S214005F100BF0B2FA172885F86FB9F2D1DCE705F571
S214005F20805393F8A6314BB105F114000AF026FC15
S214005F3020B905F58D50143009F030FB00210846D5
S214005F4020F074FA4FF00009DFF84082844DEFF33A
S214005F50108072B6B8F8026020F06AFA002E3ED1C1
S214005F604FF4F8501FF0E6FA68B34FF480701FF055
S214005F70E1FA7C4D8046002800F09D802B68314673
S214005F801B684FF480701B7813F0200F764B0CBF05
S214005F904FF0000898461FF0B5FA334600212A68ED
S214005FA0C2E90411EFF31180302282F311886F4AA0
S214005FB082F8711380F31188BFF36F8F2968424609
S214005FC0886A0CF0C1FC6A4A029B9B1A1E22DB10F0
S214005FD0B3FBF2F3DBB2012B40F28F80FEE785F8CD
S214005FE00090EFF3108072B6B8F80220A2B1B8F8AD
S214005FF00030013A08EB8301CE68B8F8041001338C
S214006000B3FBF1FC01FB1C33A8F80220A8F8003013
S21400601020F00EFA16B9FEE71646F9E7DFF870B17B
S214006020337B9BF81720C3F3800363F341028BF89E
S2140060301720337B03F0FB0333739BF81720DB0931
S21400604063F300028BF81720337B03F07F03337370
S21400605073788BF80630334613F80C2BABF8042015
S214006060CBF8003096F90330424A8BF8153013709F
S214006070B378414A8BF8163013707368CBF8283023
S214006080B36803930CF091FA0022039B8342DBF87B
S214006090280028BF01F1FF31D218CBE9022118B938
S2140060A0334809F05BFD354809F058FD3146344861
S2140060B012F01EFE4BE74FF400701FF03BFA064648
S2140060C030B141464FF400701FF01CFA0F2365E70D
S2140060D04FF480601FF02EFA804638B131464FF4F8
S2140060E080601FF00FFAB0460E2357E701464FF4C4
S2140060F080501FF007FA0B2350E7224A52F823007D
S21400610020B10368022B01D108F05AFEEFF310808D
S21400611072B61D4D6E8820F08BF9002E41D008F027
S214006120A9FC00283DD1EFF3108072B6698861B1F2
S2140061302B8805EB8302D768AA880133B3FBF2F6F7
S21400614002FB16332B804B1E6B8020F071F907B9CB
S214006150FEE73B79F3B1012B3AD0FEE7E51B0100E1
S214006160801300204C110020B0110020D819002008
S214006170000E00209313002092130020F00E002043
S2140061800C160020501100205C150020C0150020C1
S21400619080110020B96838680CF028FA38461FF0DD
S2140061A045FE1E4808F04AFCC0B11C4808F046FCF4
S2140061B0054618BB1A4808F041FC054698B1284623
S2140061C0184908F03EFC2846174908F021FCF4E779
S2140061D07A89397A386808F07CFFDFE7104808F0DB
S2140061E02DFC0028E1D1114B1A6901321A615A6957
S2140061F001325A6106221A60FFF72BB80C4B0D4A83
S21400620019780D4B2846002918BF1A46114608F083
S21400621018FC2846094908F0FBFBC9E7B80D002022
S214006220E00F002035D8000028100020700D002058
S2140062302C1100201BD8000061D80000000E0020A2
S2140062400348044B834202D0034B03B11847704700
S214006250684200206842002000000000064B074904
S214006260C91A891048BF0131491003D0044B0BB13D
S21400627001481847704700BF684200206842002067
S2140062800000000010B5064C237843B9FFF7D8FF8E
S214006290044B13B10448AFF300800123237010BDF4
S2140062A0A83E002000000000D4AC020008B5054B54
S2140062B01BB105490548AFF30080BDE80840FFF76D
S2140062C0CDBF00BF0000000058310020D4AC020053
S2140062D0A3F5803A704700BF174B002B08BF134B3F
S2140062E09D46FFF7F5FF00218B460F461348144ADC
S2140062F0121A1DF03FFF0E4B002B00D098470D4B97
S214006300002B00D098470020002104000D000D4807
S214006310002802D00C48AFF3008015F063FD200083
S2140063202900FDF73DFF15F04DFC00BF00000800FA
S2140063300000000000000000C80A0020C80A002074
S214006340E03E0020000000000000000008B5C36F1B
S2140063500A462BB1D0F88010007A9847012008BD75
S2140063601846FCE70246D0F8940068B9937B73B9E8
S214006370D2F8900050B9D2F88C3043B9537B127BD8
S2140063809B1A58425841704700207047184670477D
S21400639040BA80B24140C1F303135940080380B2AB
S2140063A04840490101F4FF5148407047024610B585
S2140063B044180020A24200D110BD12F8011BFFF7BE
S2140063C0E7FFF7E738B5044645180020AC4203D18E
S2140063D0831A5842584138BD14F8011BFFF7D8FFFE
S2140063E0F4E721B10020012308800B7070472220BB
S2140063F07047EFF31183302282F31188064A107833
S21400640020B1064A1088003818BF012083F311888F
S214006410BFF36F8F704700BFE03F0020C80A002020
S2140064204FF4E13070474FF4E1307047EFF31183DB
S214006430302282F3118883F31188BFF36F8F704781
S2140064403021094A937852684B4303F1A04303F581
S2140064508023DB6E92689B1AB3F5897F3ABF038070
S21400646000200120704700BFC80A0020F8B5164675
S214006470044600258F1FAF4201DC00200CE02046BA
S21400648003780134142B08D10521B0F80520FFF756
S21400649099FF10B106B13580F8BD0135EBE72DE95F
S2140064A0F3470746EFF31188302383F3118801255D
S2140064B0DFF880A01E4E9AF802400DF10600A540B7
S2140064C05C4304F1A044B56204F58024D4F86490DB
S2140064D0FFF7B6FF28B1756288F31188BFF36F8F98
S2140064E009E0BDF80630BB4208D3756288F3118810
S2140064F0BFF36F8F2E2002B0BDE8F0874A46FB1A26
S2140065009BB2013B63F30E126266236F43F00203F5
S2140065102367636E43F4801363667565236FAAF87A
S214006520087023F003031A7B60F341021A73D2E764
S21400653000100450C80A00208B7C01F12C020133A5
S2140065408B74036813B9CB62026070471846F8E78D
S214006550C06C836A03B11847704701230B747047F9
S214006560C388B1EB431F3FBF03684A0953F82200B4
S21400657001F01F013ABFC84000F00100002070473C
S21400658010B5C38823B9CA885AB9ABB1012017E041
S214006590026802EB830252F8042C002AF3D1013B76
S2140065A0F0E70C6804EB820454F8044C0CB9013A8A
S2140065B0EAE79A42EAD30FD8013B5A1C01D10020E1
S2140065C010BD026852F823400A6852F8232094420D
S2140065D0DCD803F1FF33F0D24FF0FF30F0E730B5F0
S2140065E0C38823B9CA885AB9002B3DD136E0026861
S2140065F002EB830252F8042C002AF3D1013BF0E7A9
S2140066000C6804EB820555F8045C4DBB013AEAE7DA
S214006610B1F9045003D2B1F90400404226E0B0F9C3
S2140066200420002A03DD002D0CDA01201EE0002DD8
S21400663008DD3AB14FF0FF3018E003F1FF330BD21C
S214006640504213E0013B016851F8235054F82310E0
S2140066508D42F2D9104609E0591CF4D1002005E01D
S214006660002BD8D09342D3D9B0F9040030BD002215
S214006670154BB3F90010884202D1B3F902007047F7
S2140066800132042A03F10403F3D110F1910F15D05F
S21400669010F1900F0ADA10F1970F12D010F1930F45
S2140066A014BF4FF0FF306FF06F00704710F1860F89
S2140066B014BF4FF0FF306FF0710070476FF06F003F
S2140066C070476FF06D007047606602008A4228D0FF
S2140066D001F0FE43B3F1A06F14D102F0FE43B3F114
S2140066E0A06F0FD182EA010333F47E130AD10B04A4
S2140066F008D5C1F30541C2F3054291428CBF002084
S2140067000120704721F47F03B3F1106F0BD102F024
S214006710FE42B2F1106F06D104480B1A5842584197
S2140067207047012070470020704700BF0000020934
S21400673007B51E48837A03B9FEE700236946103082
S214006740CDE9003312F0E4FEE8B9194AD2F8403138
S214006750D2F840211F2B4FF001030FD9203A934067
S214006760019A1A43019208236A46124912480EF00B
S214006770A7FB124B124A1A600DF0DCF99340009A00
S2140067801A430092EFE72D28F3D1094AD2F8403198
S214006790D2F840211F2B4FF0010385BF203A9340CB
S2140067A09340019398BF0093DDE700BFC80A00201E
S2140067B00080004400710800D80A00200000002075
S2140067C00B020FF008B50DF0C7F920B110F81A3C0F
S2140067D02C38013B837408BD38B50C46EFF31185A1
S2140067E0302383F311880848FFF7ECFF206028B9B0
S2140067F085F31188BFF36F8F1B2038BD85F3118892
S214006800BFF36F8F0020F8E7400B002038B50D4827
S214006810002284780C497C3012F0FDFD30230125DF
S2140068200A4AA54003FB0423196F21F002011967E9
S214006830596E21F48011596602F500535D651D6599
S21400684038BD00BFC80A0020B1C1000000000450D7
S21400685010B550F8044C011F606F12F09DFD2046E5
S21400686010BD38B505460C4661B1486820B1FFF743
S214006870EFFF2846FFF76CFE2146A86FBDE83840BC
S21400688012F08ABD38BD38B50446406F0D4612F08A
S21400689088FD034620B1002043F8044B2B6038BD2A
S2140068A01A20FBE710B50C4661B1C06F12F079FDF7
S2140068B0206048B1002303601846226813722268DD
S2140068C0536010BD2220FCE71A20FAE7F8B504460C
S2140068D0002852D0837C002B51D10168856911B104
S2140068E0284612F05AFDA16819B1D5F8800012F0BA
S2140068F053FDE37C022B11D0032B11D0012B11D1B9
S214006900606820B1FFF7A4FF2846FFF721FE636901
S21400691023B9D5F89C300133C5F89C30012602E037
S2140069206168E1B90026EFF31187302383F31188FD
S2140069302146A86E12F030FDE37C042B13D1B5F887
S2140069406430013BA5F8643087F31188BFF36F8F7E
S2140069501EB1E86C436A03B198470020F8BD286F63
S21400696012F01AFDDEE7052B01D0032BECD1B5F8AB
S2140069706630013BA5F86630E6E72220EEE7042005
S214006980ECE770B516461C460D46B1B1806F12F0A6
S21400699008FDA0B1002303606B68048143600223F6
S2140069A0837234683CB9022330602846EB74FFF7E4
S2140069B08DFF204670BD2646F3E72220FAE71A2010
S2140069C0F8E7F7B540F201130125012204216846D5
S2140069D0ADF800300EF010FE2A46022101A8ADF8F0
S2140069E004500EF009FE032001A91FF0E2FD019BF2
S2140069F040F6AA6259014FF4E11301F561213A48C5
S214006A00B1FBF3F1394B456041F205075A610022AC
S214006A10374C384E9A60DA65DF601A61DA61DA64FC
S214006A20A6649A651A655A65656045609E68203951
S214006A3046F080469E60304EDF6006EAC1010226C0
S214006A408260D9612D499A65C1F8AC650421E1657B
S214006A504FF440645C611023294AC2F8AC354FF00D
S214006A600113C2F8C435C2F8BC55456041614561A2
S214006A700DEB010011F0AAFB88BB9DF80460214CC9
S214006A8001A8A67011F0A2FB48BB9DF8043084F85C
S214006A909030D4F894301A68127DB24221D9EFF3C0
S214006AA01182302181F3118817491B6943F826109B
S214006AB082F31188BFF36F8F4FF48023C4F89830A9
S214006AC0124BC4E92700C4E92B00C4F8A400C4F89C
S214006AD0B400C4F8A83084F8A15084F8B15003B0CC
S214006AE0F0BD2120FBE700BF009005500080055058
S214006AF000A00550FFFF0100F8FF7F0000E00350F4
S214006B0000C00350C80A0020B9BD000002000400FF
S214006B1010B5682101200FF093FD044618B16822D5
S214006B2000211DF027FB204610BD10B524210120B2
S214006B300FF086FD044618B1242200211DF01AFB32
S214006B40204610BD0022C188914201D8002070471F
S214006B50036853F8223033B193FAA3F0B0FA80F00A
S214006B6000EB421070470132EEE7F0B5C4880546E8
S214006B70082C8BB017D9083C082C17D80668A70035
S214006B8020363A46314602A81DF058FC3A46002107
S214006B9030461DF0EFFA2623009309212346286885
S214006BA002AA12F025FB00200BB0F0BD0048FBE760
S214006BB080B0FFFF0FF0B7B810B504460FF094F89A
S214006BC02046BDE810401FF031B90FF092B80FF024
S214006BD090B800239A6AB2F5804F03D21168074A2C
S214006BE0914203D000230370836070470122027035
S214006BF09A6A926842609B6A9B69F5E707B0CD5E29
S214006C001FB501238DF80430002301A80293FFF777
S214006C10E0FF039B9C0245D5254C63680BB10EF044
S214006C2003FB0122234B5A60A36A9806FCD4022376
S214006C300125A3606362204B5D600EF0F5FA1C4BE5
S214006C40E5609A6AD106FCD402221A639A6AD206D2
S214006C50FCD40323174A5361A2F5805293614FF484
S214006C608022164B1A604AF6E850154B154CDA6E21
S214006C70D96E22F003021866134842F0020241F071
S214006C800301C0F82044DA66D966DA66D966DA66A1
S214006C90D966DA66D966DA66BFF34F8FBFF36F8FB1
S214006CA030BFFEE7094B0A4A1A600CF043FF00BFEC
S214006CB000400650006006500050065000E100E01C
S214006CC0004000500000FFFF00E0035000000020DE
S214006CD002020FF01FB500239A6AB2F5804F1ED24B
S214006CE0126BB2F5804F1AD2012201A802938DF8DA
S214006CF00420FFF76EFF039BDB0310D5029B1A0EE2
S214006D000DD0012A03D1C3F307430A2B07D900236A
S214006D109B6A1B6B1B6C05B05DF804EB184740F2D2
S214006D20011005B05DF804FB006800B97047037AEF
S214006D308B42F9D190F85030002B08BF00207047E6
S214006D4008B503683BB901790448FFF7EDFF08B1C1
S214006D5090F8500008BD93F85000FBE7E43F002091
S214006D60054A08B502F1B800FFF7EAFF05281CBF80
S214006D70012382F8C43008BDC80A0020022808B5DE
S214006D8009D1042906D100210948FFF7CDFF0123C8
S214006D9080F8A03008BD0328FCD10429FAD10022CF
S214006DA0044B5B68002BF5D0C3E926221B68F9E785
S214006DB0E43F0020E03F00202DE9F0431D46062377
S214006DC087B0137049681446402900F086801CD8A6
S214006DD0042906D80139032942D8DFE801F0456ABC
S214006DE04B55202970D0302974D0A1F5E063FF2BD5
S214006DF000F2CD80C9B241F4E06367486360FFF7F4
S214006E0093FF58B390F8A00028E040F2013399426F
S214006E1000F087800DD8B1F5007F66D040F20223DF
S214006E20994279D05029E0D1516050F8740C036A29
S214006E3057E0B1F5806F00F09C80B1F5885F75D0A3
S214006E40A1F58053FF2BD0D8C9B241F480535248E5
S214006E505360FFF769FF08B190F85000207207E012
S214006E6000235360A3603EE00123536006231372A1
S214006E7005232DE0042303220921C4E9012301236D
S214006E80C4E90313102323E01346042243F8042F17
S214006E90424A116859605168128999609A810E2396
S214006EA0638001234374638804332B6007B0BDE816
S214006EB0F083022301215360082210F86F3C6280A1
S214006EC013FB0213A360EEE7516050F86C2C22818E
S214006ED06380E8E75160C36BC4E7516050F8740CF8
S214006EE0C3699847A0600823F2E7516003A8FFF73C
S214006EF070FE049BE360002323619DF80C30012B99
S214006F0002D103232372BDE723B923724FF0FF3368
S214006F10E360B7E70423F5E7214B5160D3F8C830A8
S214006F20A0E71F4B516093F8CC309BE7516002F10D
S214006F30070802F1870900221646531C6846CDE969
S214006F400066CDE903668DF804208DF810300296B1
S214006F500596FFF7F5FE074603A8FFF7F1FE47EA9A
S214006F60001708F8017F0232C145D2B2E5D184236A
S214006F70AEE7A0F13C03083253F8041B834242F804
S214006F80041BF9D14FF4806363604023A0E700231D
S214006F9063600D2366E700BFE43F0020488A0200D6
S214006FA0C80A002008B50146FFF7DCF950B1D1F851
S214006FB0880040B9D1F8843023B9B1F86800B0FA37
S214006FC080F0400908BD0020FCE7EFF31182302373
S214006FD083F311888368013B836082F31188BFF3D3
S214006FE06F8F704708B508B9022008BDEFF311820D
S214006FF0302383F31188836823B982F31188BFF3A3
S2140070006F8FF1E70133836082F31188BFF36F8FD0
S21400701021B1036813B100200B60E6E7FFF7D5FF48
S214007020E2E738B50446EFF31185302383F3118881
S214007030037C63B18068214640300CF095FDA26861
S21400704092F84430013B82F844300023237485F3E1
S2140070501188BFF36F8F38BD2DE9F04104461746FF
S2140070600E4600293DD0806E12F09BF90546F8B119
S214007070342200211DF07EF8EFF31188302383F3CD
S21400708011887B1E042B2ED8DFE803F0182D032171
S2140070900300B4F85820B4F86630013A93420ADB8D
S2140070A02946A06E12F078F988F31188BFF36F8F27
S2140070B01A20BDE8F0810133A4F8663088F3118801
S2140070C0BFF36F8F0020EF74AC613560F1E7B4F862
S2140070D06430B4F85A209A42E2D90133A4F86430F6
S2140070E0ECE72220E5E72120E3E72DE9F347914688
S2140070F0042204468846D0F8A4000DEB02019A4606
S214007100FFF7AAFF074660B91AF00E0F667A019DD0
S2140071100AF002031AD0B20707D42846FFF7D6FBB8
S2140071202127384602B0BDE8F087A3B91AF0040F4D
S21400713014D11AF0080613D1324694F85030052BB5
S21400714010D02846FFF7C2FB0227EAE716F0010632
S214007150E3D10122F1E706463A46EEE70426FBE7CE
S2140071600E26F9E7C5F80480A5F80C906C61237A22
S2140071706B740A9B2B62CAB1A37AE27A1B01DBB25C
S2140071801343CAF3001A43EACA0A85F810A0A37A82
S214007190013303F00703A37249464046FFF706F99A
S2140071A02946E881204612F07AF9BAE766F03F06EB
S2140071B02E74F1E72DE9FF410F4603A90646154652
S2140071C09846FFF70FFF38BB45B30398D0F8A430B6
S2140071D090F8A020B3F85C4040F6F773002C08BF88
S2140071E01C46C2EB423204EBC204A4B2A5420ED83F
S2140071F00A9B394600932A464346FFF776FF014628
S2140072003046FFF7E2FE084604B0BDE8F08130469F
S214007210FFF7DBFE2B21F6E70221F4E72121F2E758
S21400722010B578B1FFF714FB044660300CF094FC00
S214007230014610B1A06F12F0AFF82046FFF788F9AC
S214007240002010BD2220FCE708B50CF085FC20B11C
S21400725010F81E3C3038013B837408BD8B7C01F16E
S214007260300201338B74036813B90B6302607047F6
S2140072701846F8E738B581624469EFF31185302384
S21400728083F31188D4F8A430014603F11000FFF709
S214007290E5FF85F31188BFF36F8FD4F8A420074964
S2140072A002F1180012F0B7F84FF6FF72B4F8683023
S2140072B093421CBF0133A4F8683038BDCB7700007A
S2140072C010B50446A37C0846013B04F13001A374C4
S2140072D00CF04AFC2046BDE810403321CAE72DE9F1
S2140072E0F7438946174601A9032206461D469DF820
S2140072F02880FFF7B1FE38BB306F019C12F051F8C2
S214007300606028B9204603B0BDE8F043FFF7DEBA58
S214007310012165F06F05A181C4F814906774257487
S21400732080F800806068FFF741F8E081EFF3118590
S214007330302383F31188214606F10800FFF78EFFFD
S21400734085F31188BFF36F8F03B0BDE8F08310B5E7
S2140073500446182200211CF00DFF204610BD0368CD
S214007360D90444BF43F4806303609A0444BF43F4E3
S21400737000630360704707B50022084B014683F898
S21400738008210288064B0432009392B20123054876
S214007390FFF710FF03B05DF804FB00BFE03F0020DE
S2140073A061770000800B0020002307B501221946F4
S2140073B00E4811F0EFFA68B90C4801A9FFF712FE63
S2140073C040B9019B0A4A09489A65FFF7FEFDFFF798
S2140073D009FE18B1002003B05DF804FB019B054AC6
S2140073E002485A67FFF7F1FD0120F4E7800B002002
S2140073F061770000616D000010F1840F12DA10F161
S214007400950F25DB9530102822D8DFE800F01D21E7
S21400741021211B2121211913110F151F17092300E4
S2140074200F207047003818BF012070471D20704796
S2140074302E2070472D20704724207047212070474B
S2140074401A2070472F2070472C2070472520704741
S21400745001207047082070470146054B93F8CC0082
S21400746083F8CC10D3F8D03003B11847704700BF6C
S214007470C80A00202DE9F0470646C06C86B083692E
S21400748098478046002800F06781F36823B9B36800
S214007490002B39D11B2533E0B04B93F8CC3003F0EA
S2140074A0FB03012BF3D1EFF31185302383F311880F
S2140074B006F10C00FFF7C8FE044685F31188BFF3FB
S2140074C06F8F0028E3D0237C9F097F2BA36898BF8B
S2140074D0002743BBF06E11F064FF206028BBEFF37B
S2140074E01182302383F31188A37C0133A374B3681D
S2140074F044F8303FB46082F31188BFF36F8F1A25CB
S214007500284606B0BDE8F087EFF31185302383F3F5
S214007510118806F10800FFF797FE044685F31188E8
S214007520BFF36F8FCFE74FF00008A189002939D04D
S2140075308B1C9BB2D4F814C037B9227C9CF80B0085
S21400754022F0070202432274207C25687F28D4F8A4
S21400755008A029D841B3BAF1000F28D19CF8A09012
S214007560B9F1000F27D07D4A92F8CC2002F0FB023A
S214007570012A1ED02946304611F00FFFC4F800A09D
S214007580EFF31182302383F31188A37C0133A374B5
S214007590F36844F8303FF46082F31188BFF36F8FCE
S2140075A00025ADE70B46C5E7BAF1000F22D04FF035
S2140075B0000908339BB21421627CAB701B0A297049
S2140075C02871052128466A70EB70FEF7EFFE687199
S2140075D0000AA871B9F1000F7BD0D6F8800011F030
S2140075E0E0FE21680546A06030B9304611F0D5FEB1
S2140075F0256084E7D146DEE70B79584D03F007098E
S21400760023F007030B71D4F814A0D4E900129AF8FB
S2140076100800D4F808C08DF80C00DAF89C00A3899E
S2140076200590D5F8DB00CDF80D00B5F8DF00ADF815
S214007630110095F8E100CDF800C08DF8130003A8FE
S21400764012F024F9804698B9DAF89C300133CAF86B
S2140076509C30D5F8E4300133B3F1005FC5F8E43070
S21400766006D195F8CC30052B02D10320FFF7F4FEA7
S2140076704046FFF7C1FE2268054613794FF0000822
S21400768023F0070349EA030982F80490A26870B160
S21400769022B11146D6F8800011F07EFE30462168F1
S2140076A0C4F8088011F079FEC4F8008028E7D4F802
S2140076B00480B4F80C90C144C1452BD102F10805F2
S2140076C012F8011BFEF764FE9542F9D14FF0000850
S2140076D0E081EFF31189302383F31188F06C2146A3
S2140076E0436998470546D0B1A37C0133A37423466B
S2140076F0B26843F8302FB360B8F1000F05D03046BB
S214007700216811F04AFE0023236089F31188BFF335
S2140077106F8FF5E618F8011BFEF73AFECCE76069B6
S21400772038B9022F15D089F31188BFF36F8F012562
S214007730E6E677B921468C30FFF790FD6269D37B89
S2140077400133D3736469237C1BB91EF0C3FCC4E900
S214007750060189F3118821E73425D1E6C80A0020FE
S214007760094A13B1012382F8C4300121074B83F87C
S214007770081192F8CC30042B04D100230520C2F85F
S214007780E43069E6704700BFC80A0020E03F0020EA
S214007790EFB506460D46C03803A91746FFF782F830
S2140077A088B90623039909228B8105230D7245F4B7
S2140077B08055CB810E600D610F7501230091304618
S2140077C00C31FFF7F7FC04B0E0BD2DE9F0470646A4
S2140077D030274FF0020900F1100833697BB1EFF350
S2140077E0118A87F311884046FFF72EFD4469054647
S2140077F094F850302BB98AF31188BFF36F8FBDE829
S214007800F087B4F86830002BF5D0013BA4F8683058
S2140078108AF31188BFF36F8F037C7F2B4FEA931296
S21400782032D9032A0AD14069D0F864A0BAF1000F11
S21400783004D0AB6A2A6A6968007AD04794F8503058
S214007840062B25D0082B23D0032B17D12046FFF775
S214007850A9FB98B1637A84F85090DB060ED5EFF357
S2140078601182302383F31188D4F8A430596844F881
S214007870041F5C6082F31188BFF36F8F00232846D5
S2140078806B60FFF723F8A8E74069D0F858A0CDE76B
S2140078902046FEF767FD0028F0D0D4F8A4000922A1
S2140078A0217AC030FFF774FF18B1092384F85030EE
S2140078B0E4E794F85030062BE0D10723F6E7054BB3
S2140078C0D3F8E830584043085B4240421843C0179C
S2140078D0704700BFC80A0020F8B5C3880E46B2EB52
S2140078E0830F07684FEA83041AD813469C420CD8C5
S2140078F015460023AB4215D1A24204D90021121B23
S21400790030191CF037FC0020F8BD23F003003D586A
S21400791003F00301C900CD40EDB26DB90133E5E7D0
S2140079202546E6E723F00301795803F00300C0007C
S214007930C140F1540133DDE76FF00700E4E703468A
S21400794070B51C68DB880846B2EB830F4FEA8305E8
S21400795019D9521B8E1800211CF00CFC30462A4602
S21400796000231044934210D1002070BD23F0030181
S214007970615803F00306F600F140C9B281B901333D
S2140079809D42F3D8ECE71346FAE723F0030161586B
S21400799003F00305ED00E94000F8011D0133E1E7BF
S2140079A06FF00700E1E71FB54FF001130191039355
S2140079B002A901AB0293FEF712FE05B05DF804FBC8
S2140079C010B50C4CD4F8E820D4F8E83042405940C2
S2140079D081EA0200C00FFFF772FFD4F8E830521AAF
S2140079E0434022EA030208401043C00FBDE810409F
S2140079F065E700BFC80A0020013901D200207047A1
S214007A0050F82130002BF7D0B3FA83F00131C0EBE9
S214007A1041107047C1880068EEE753098B42F0B406
S214007A2002F01F0401D805D13CB3F0BC8A00002147
S214007A301CF0A0BB1F2A22D834B1002200EB810123
S214007A40C4F1200681420FD1F0BC704752F8047B87
S214007A5045F8047FB242F9D10022CB1A8B42EBD212
S214007A6040F823200133F9E751F8045D25FA04F3C2
S214007A7013430B6005FA06F2E4E71F2AE4D900EB8D
S214007A808302051F00EB8106E4E708B50A46C188B5
S214007A9011B10068FFF7C1FF002008BD01F1804169
S214007AA0013900EB81018142034600D270471B6812
S214007AB00A681BBA12BA40F8042B41F80439F2E7F8
S214007AC00346C06920B15B6A002B14BF0120022068
S214007AD0704700220123C0E90023C0E90223C0E961
S214007AE00423704738B5002401250146C0E9025436
S214007AF0C0E904540470446085611C30FFF7E9FF58
S214007B00C1E90D45C1E90F44C1E91144C1E9134477
S214007B10C1E91544CC6538BD70B50646FFF7D0FF01
S214007B2002280C4605461DD100212046FEF718FD0A
S214007B3060BB01212046FEF713FD024630BB2046FF
S214007B40FFF768FF336C591C88421FD1FE2B07D104
S214007B5029462046FEF704FD0D4B021E18BF1A46A6
S214007B60104670BD01280FD101462046FFF71BFFC7
S214007B7000280BDB204606F13401FEF730FD002816
S214007B80034AB8BF0022EBE7024AE9E7004AE7E704
S214007B9080B3FFFF80B0FFFF70B5066C0D4607365A
S214007BA0B3EBD60F114604464FEAD60203D20023A3
S214007BB00D482B6070BD2A60B0F866307BB1FFF7C9
S214007BC07FFF022804D104F16000BDE8704083E620
S214007BD0012806D104F16000BDE87040AFE6034816
S214007BE0E8E76FF06D00E5E700B1FFFF80B0FFFF4C
S214007BF010B5034B0A461B6900210446984710BD82
S214007C006066020010B5044610B109B1FFF7F0FF38
S214007C102046BDE810401EF009B910B5044648B12C
S214007C20006818B1E1888900FFF7ECFF0022012305
S214007C30C4E9002310BD10B50446FFF7EEFF04F1BB
S214007C400800FFF7EAFF04F11000BDE81040E4E783
S214007C5000B1F0E7704742F21073994270B50446DF
S214007C600D4602D96FF00F0070BDC3888B4213D249
S214007C70042128460EF0E4FC06460028F2D02168CF
S214007C8041B1E28892001CF0D9FBE18820688900A7
S214007C90FFF7B8FFE58026600020E5E72DE9F04114
S214007CA00D46C98804461646FFF7D5FF014618BBA1
S214007CB03046FFF704FE03461C4EB4F90420D6F8FF
S214007CC0E8000132584022EA0002B5F9040001300B
S214007CD018400243013AA280D5F800E02268B5F8C1
S214007CE00680724503D08C46043AE04507D8DB434D
S214007CF0EA88E088824211D30846BDE8F081D6F8CB
S214007D00E87052F8040F5F4020EA07005EF82C7017
S214007D100CF1010C1F4038431060E6E7256855F863
S214007D202200184045F822000132E2E7C80A002087
S214007D30F8B505468D420E46104601D10020F8BD26
S214007D40FFF7BDFDC98804462846FFF784FF10B13B
S214007D506FF00F00F3E73046E988FFF77CFF002856
S214007D60F6D11E4AB6F90430B5F90410D2F8E80088
S214007D7001310133604021EA000023400343013B08
S214007D80AB80B6F90430D2F8E800013360402140F9
S214007D9023EA00030B43013BB38031682B68EE886F
S214007DA08B42CBD0043903EB8606B342C6D0D2F85A
S214007DB0E8001D6851F8047F604025EA000027406F
S214007DC0384343F8040BD2F8E8700868674020EAA6
S214007DD00700254028430860E7E700BFC80A0020E0
S214007DE038B504460D4619B9FFF717FF002038BD11
S214007DF0C2888A4207D10021006892001CF0BAF9B6
S214007E000123A380F2E7FFF708FF29462046BDE8D6
S214007E10384020E72DE9F84312F0030318BF01238A
S214007E2003EB92068946314680461546FFF7D8FF93
S214007E300446F0B9B8F80620D8F80070B2421BD352
S214007E403FB10146920038461CF094F923469D4205
S214007E5002D12046BDE8F88319F80310DA0023F0B3
S214007E60030002F0180291403A5801330A433A5090
S214007E70EDE76FF00F04ECE76FF00704E9E72DE994
S214007E80F84312F0030318BF012303EB920688465B
S214007E90314681461446FFF7A3FF0546D0B9B9F828
S214007EA00670B74219D397B1D9F80090BE000146C4
S214007EB0324648461CF05EF92CB1301B224641463D
S214007EC048441CF0BBFA39464846FFF7E7FD28460B
S214007ED0BDE8F8836FF00F05F9E76FF00705F6E7E2
S214007EE0884270B505460E4609D0C988C28841B991
S214007EF02AB101239200838000681CF03BF9002021
S214007F0070BD4C1E6CB9B6F904300134A242AB8089
S214007F100ED221462846FFF79EFE88B16FF00F006E
S214007F20EEE7336853F82430002BECD1013CE9E748
S214007F302868121B0021920000EB84001CF01AF93E
S214007F4031682868A2001CF079FAD8E738B50446EC
S214007F500D46FFF7C5FF68B905F1080104F10800F2
S214007F60FFF7BEFF30B905F1100104F11000BDE8BF
S214007F703840B5E76FF00F0038BD70B50E460121EA
S214007F800446FFF768FE054648B9E28801469200B7
S214007F9020681CF0EFF823681E600123A3802846A3
S214007FA070BD10B501210446FFF7E7FF58B901215F
S214007FB004F10800FFF7E1FF014620B904F11000C4
S214007FC0BDE81040D9E76FF00F0010BDF8B5C388C4
S214007FD00646B1EB431F0C4617464FEA511514D21E
S214007FE00122316804F01F0451F82530A24023EA2C
S214007FF0020341F82530326807FA04F452F82530B7
S214008000234342F825300020F8BD002AFBD0691C27
S214008010FFF721FE0028E3D06FF00F00F4E7F8B575
S21400802004460D46FFF7F6FCE3882844B0EB431FF2
S21400803024D81F2D2368E1884FEA551005F01F0449
S21400804012D96FF003060A4606FB0036904202F18C
S214008050FF3521D3421A814238BF002200250A4448
S21400806003EB82029A421DD134B1002503EB800354
S214008070C4F12007814218D80020F8BD10F01F0177
S21400808018BF012101EB50112046FFF7E4FD002840
S214008090CFD06FF00F00F0E756F8252043F82520E4
S2140080A02A46D3E742F8045DDCE71E68013006FA8C
S2140080B004F22A4343F8042B26FA07F5DAE72DE9FB
S2140080C0F84305460E469046D4887CBBF188284681
S2140080D0FFF7C1FD0746002864D1F28894420BD210
S2140080E0AE4209D028683168121B920001EB840169
S2140080F000EB84001CF0A2F9EA88F088824207D9D7
S2140081002B68121A0021920003EB80001CF032F854
S21400811000221346D5F800C0D6F800E0D8F8008054
S214008120944214D143BB0123AB800DE0D8F8003055
S21400813003EB840353F8043C0BB9013CC5E7F18814
S214008140A142C4D26FF009073846BDE8F8835EF84E
S214008150226058F82200F11A81422CBF4FF0000925
S2140081604FF00109091A4CF822109E422CBF4B46CC
S21400817009F101030132D3E72A68E98802EB840497
S21400818002EB8102944202D1002BCCD0DAE72168C0
S214008190C91A34BF01230023003B18BF012344F84B
S2140081A0041BEFE76FF00F07CEE738B50C46051D4A
S2140081B029462046FEF713FA002801DA002006E0DA
S2140081C02A4621462046FFF77AFF0028F0D038BD21
S2140081D02DE9F8431446B1F904709288054612FB5F
S2140081E007F253430E461ED521463046FEF7C8F921
S2140081F0B0F1FF3F80460DD0224631462846FFF7B5
S2140082005EFF28B9B8F1000F08BF01270020AF8035
S214008210BDE8F88332462846FFF751FF0028F7D11D
S2140082207F42AF80F4E7844202D0814212D12646D4
S2140082300123AB80B6F80690B9F1000FE6D033689C
S2140082404FEA890803EB890353F8043C4BB909F15C
S214008250FF39F1E7FFF744FE0028E8D06FF00F0083
S214008260D6E749462846FFF7F6FC04460028F5D12F
S214008270316826462B68181F50F8042FA2182CBF0A
S2140082804FF0010C4FF0000C51F826400136121941
S2140082904CF10004B1450260EED14344002CB5D049
S2140082A0EA8806F10108B24208D841462846FFF798
S2140082B0D2FC0028D2D12B6803EB86031A68464608
S2140082C012192CBF01240024003C18BF012443F8D7
S2140082D0042BE3E701237BE770B50C460546114601
S2140082E020461A46FFF7F6FF064630B904352946FB
S2140082F02046FEF774F9002801DA304670BD2A469B
S21400830021462046FFF7DBFE0028F0D00646F4E7BD
S2140083104FF0FF335CE770B50C4606461146204624
S2140083201A46FFF7F5FF054688B90436B4F9043057
S214008330002B0CDA00212046FFF735FB30B1324621
S21400834021462046FFF7C6FF0028EFD00546284600
S21400835070BDF7B50D4601230021083504462846B2
S214008360CDE900131646FFF71EFB211D07462A46D9
S2140083706846FFF7CDFF044648B9002F0CBF002221
S21400838006F0010269462846FFF788FC0446684660
S214008390FFF743FC204603B0F0BD2DE9F341044649
S2140083A00F461546CE8836B13B6803EB860353F876
S2140083B0043C33B13DB90021204602B0BDE8F0418F
S2140083C0DBE5013EEFE72046711CFFF744FC28B1D1
S2140083D06FF00F08404602B0BDE8F08139462046EF
S2140083E0FFF77EFD80460028F2D1013D009533461A
S2140083F03A68E188206810F0FBFEEBE72DE9F047CD
S21400840011210446FFF727FC002840F0B5812568B7
S2140084102B682A6AD5F82C9099182CBF01230023C4
S2140084206A6AD5F83080521843F10003914588BF38
S214008430013BA2EB090EF04588BF013BD5F834C0DE
S214008440AEEB0806B44588BF013BAF6BA6EB0C014C
S2140084508F4288BF013BC91B29602568DEB2002B0E
S214008460696880F28B815A4291424FF0FF3228BFF2
S214008470002219446B6AD5F830905B18A96A42F15D
S2140084800002C9182CBF4FF0010A4FF0000A5AFA32
S21400849082F2894588BF013AD5F83480A1EB090EEF
S2140084A0F04588BF013AD5F838C0AEEB0806B445AB
S2140084B088BF013AEF6BA6EB0C039F4288BF013AD8
S2140084C0DB1B6B602568D6B252B2002AA96880F220
S2140084D05A81534299424FF0FF3328BF002311447C
S2140084E0AA6AD5F834E0521843F10001EB6AD5F8D1
S2140084F038C09B182CBF4FF001084FF0000858FA00
S21400850081F19E4588BF0139A3EB0E06B44588BFAE
S2140085100139EF6BA6EB0C02974288BF0139D21BDC
S214008520AA602268CEB249B20029D56880F23081AE
S2140085304B429D424FF0FF3328BF00230D44D16AC3
S214008540D2F83CE04D1943F100034919156B43F18D
S2140085500003691843F100036D18516B43F10003E3
S21400856049192CBF4FF001084FF0000858FA83F362
S2140085708E4588BF013BD2F820C0A1EB0E06B4455D
S21400858088BF013B576AA6EB0C05AF4288BF013B8C
S214008590ED1BD5602168DEB25BB2002B0D6980F260
S2140085A0FC805A4295424FF0FF3228BF00221D44FD
S2140085B00B6B4F6A5D1942F100025B194D6B42F17D
S2140085C00002EB1842F10002ED188B6B42F100023C
S2140085D05B192CBF4FF0010C4FF0000C5CFA82F2D6
S2140085E09F4288BF013A8E6ADD1BAE4288BF013AC1
S2140085F0AD1B0D612568D3B252B2002A696980F2BC
S214008600D180534299424FF0FF3328BF00231144D4
S2140086106E6BEF6A721843F10001AB6BB61841F14E
S2140086200001EA6B9E1941F100019B1941F100011E
S214008630D2182CBF4FF0010C4FF0000CAE6A5CFA5B
S21400864081F1964288BF0139931B9F4288BF01394A
S214008650DB1B6B612268CEB249B20029956980F2B5
S214008660A6804B429D424FF0FF3328BF00230D44A7
S214008670916BD66B4D1943F100034D1943F100037E
S214008680751943F100037619556B43F100038919F8
S21400869043F100036D182CBF4FF0010C4FF0000C97
S2140086A0176A5CFA83F3AF4288BF013B566AE91B40
S2140086B08E4288BF013B891B91612168DDB25BB2A7
S2140086C0002BCA6978DA5D42AA424FF0FF3528BF10
S2140086D000251A44CB6BD1F828A09A1845F100055E
S2140086E09A1845F100059B180A6A45F10005D2184C
S2140086F02CBF0123002353FA85F3924588BF013B24
S214008700D1F82C90A2EB0A08C14588BF013BD1F8EE
S21400871030E0A8EB090CE64588BF013B4F6BACEB9D
S2140087200E06B74288BF013BF61BCE6122685BB2DD
S21400873023EAE371116200250822E18801329142A2
S2140087403FD8002B18DA00222568A958C943A9503B
S2140087500432242AF8D100222568A9580131A950EC
S21400876021688D5815B90432242AF5D14FF6FF72C8
S214008770A2800A6AD21A0A62BDE8F08789192CBF5D
S2140087800122002276E689192CBF01230023A7E6E2
S214008790AD192CBF01230023D1E6AD192CBF012251
S2140087A0002205E7C9182CBF0123002330E7AD19C6
S2140087B02CBF012300235BE752192CBF012500259F
S2140087C088E7216841F82250B7E72DE9F04F99B0C5
S2140087D0CDE90312824600211046FFF7E4F8002890
S2140087E0C0F2F68105D16FF00B03184619B0BDE84C
S2140087F0F08F4FF00109DDE90301924BADF83090A0
S214008800149315ABADF83890CDF84090CDF848905D
S2140088101393FDF7B5FE013019D1BAF1000F06D05B
S21400882050460399FFF75CFB002840F0B281002118
S2140088305046FFF7B8F80028C0F2B98150460499B0
S214008840FDF7CDFE002880F2B9810023CDE7002594
S21400885003990BA80B95ADF83250FFF741FB0B9E22
S2140088600446BDF83270002840F09A810D90ADF8AD
S2140088703A0004990DA8FFF733FB0D9B0546BDF89B
S2140088803A800193002840F09081039B0F90D9888E
S2140088900FA80231ADF83890ADF83090FFF7DBF94D
S2140088A0044628B12C460F9B02936FF00F03A8E0F6
S2140088B001460FA8FFF761FB0F9B02930028F4D137
S2140088C0039B1190D98811A80231FFF7C4F9119CB7
S2140088D002460028E9D10DA8FFF79CF800F01F001B
S2140088E01F287AD0C0F11F0319460BA80593FFF77F
S2140088F096FB0B9EBDF832700028D6D105990DA8C0
S214008900FFF78DFB0D9BBDF83A8001930028CCD174
S214008910C1463D46A7EB080B4FEA4B130793019B56
S2140089204FEA4B110DA80D93ADF83A80FFF777FB91
S2140089300D9BBDF83A8001930028B6D1029B03EB4D
S2140089408B0B019B0DA90BA80B96ADF832700D93FF
S214008950ADF83A80FDF743FE002842DA09F1FF330E
S21400896007990DA80693FFF790F8019B09F1FF32CF
S21400897003EB82030793019A09F18043023B02EB63
S214008980830305F1FF3B05F180450893013D029BFB
S214008990A5EB090503EB8505069B5B4554D3BAF1A9
S2140089A0000F18D005990BA80B96ADF83270FFF79C
S2140089B06CF8039B0BA99B885046ADF83030FFF748
S2140089C08FFA014600287FF470AF5046FEF7EBFFA3
S2140089D0002800F0DA80002313E0C1463D460592E9
S2140089E098E7DBF800300BA90133CBF800300846D7
S2140089F00DAAFFF78DFC0B9E0346BDF832700028CB
S214008A009FD00BA803930B96ADF83270FFF705F9CD
S214008A10019B0DA80D93ADF83A80FFF7FEF8029B78
S214008A200FA80F93FFF7F9F811A81194FFF7F5F8C0
S214008A300C2115A8FFF7DCF8039B002B3FF4F7AEDC
S214008A40D3E600BF01000300079B56F82B101A68F8
S214008A504FEA8B09A9F104003318914209934AD2D0
S214008A60002330581BF064F9002914BF4FF0FF3381
S214008A700346BBF1010F2B600EBF0023B14459F82B
S214008A80083C1593099B1B68169306EB8B031B6823
S214008A9017932B6801332B602B680021013B2B605A
S214008AA011A81194FFF769FA119C00287FF4FDAE17
S214008AB0069B1BB3089B1B682360079B11A91B68BA
S214008AC0084663602A68FFF768FC119C00287FF45C
S214008AD0ECAE13A911A8FDF782FD0028DCDC019B93
S214008AE02A680DA911A80D93ADF83A80FFF755FC3A
S214008AF030B1119CD9E64FF0FF33BAE7069BDBE7AF
S214008B006FF00703029A4FEAC50902FB039911A802
S214008B104946FFF784FA119C00287FF4C6AE0BA9DD
S214008B20084611AA0B96ADF83270FFF7F1FB0B9EC4
S214008B300346BDF8327000287FF463AF01460BA8E9
S214008B40FEF731FF00281CDA0DA911A8FFF7C8F9B7
S214008B500028CED1494611A8FFF761FA119C0028DB
S214008B607FF4A3AE0BA9084611AAFFF7B3FB0B9E32
S214008B700346BDF8327000287FF443AF2B68013BF4
S214008B802B600BF1FF3B043D06E70123AAF80430F7
S214008B9021E70024A046274626460294019484E650
S214008BA02C46A846029501957FE602947DE651463E
S214008BB05046049AFFF78EFB03463EE75146504662
S214008BC0049AFFF7A5FB034600283FF437AE0CE6F1
S214008BD06FF0090309E62DE9F04F99B001900D46B4
S214008BE0104601219146FEF7DEFE002840F304827F
S214008BF001230022294614A8CDE91023CDE912232B
S214008C00CDE90823CDE91423CDE916230F930D9360
S214008C100B93079305930393FFF762F988B36FF0FE
S214008C200F0B14A8FEF7F9FF16A8FEF7F6FFBBF128
S214008C30000F40F0C581012112A8FEF7B4FE0446DD
S214008C40002840F0C4814A46294610A8FFF7BDFD1B
S214008C508346002840F0B5810E9010A90EA8FFF7B5
S214008C603FF90E9C28B9494608A8FFF739F90028AD
S214008C706AD00026B046B246354637466FF00F0B30
S214008C806CE1494616A8FFF72BF90028C7D114A8AF
S214008C90FDF758FF064616A8FDF754FF044650B9E0
S214008CA0014616A8FDF75CFC28B9294612A8FFF76E
S214008CB017F98346B5E70123ADF85C30ADF85430BC
S214008CC0002114A8FEF76FFE80B9A642314616A80A
S214008CD028BF2146FFF7A3F90028A0D116A912A89D
S214008CE0FFF7FEF8834600289BD098E714A8FDF708
S214008CF029FF014614A8FEF7C8FE16A8FDF722FFB6
S214008D00014616A8FEF7C1FE16A914A8FDF767FCD3
S214008D1000280DDB14A9084616AAFFF7D0F98346EB
S214008D2000287FF47EAF012114A8FEF7AEFEC7E749
S214008D3016A9084614AAFFF7C2F9834600287FF44E
S214008D4070AF012116A8F0E7494606A8CDF818B07E
S214008D50FFF7C6F8DDF818A0002840F04181012191
S214008D600CA8CDF830B0FFF708F90C9E002840F0AC
S214008D703A8159460AA8CDF828B0FFF7FEF8DDF884
S214008D802880002840F03381594604A8CDF810B05A
S214008D90FFF7F3F8049D002840F02C81012102A87B
S214008DA0CDF808B0FFF7E9F8029F00287FF466AF19
S214008DB02368D80752D5DAF80030DB077CD506A939
S214008DC00EA80E94CDF818A0FDF709FC0028C0F2F6
S214008DD09E800EA9084606AAFFF79AFA0E9C8346BE
S214008DE0002840F0BB800CA9084604AA0C960495FF
S214008DF0FFF78EFA0C9E8346002840F0AF800AA943
S214008E00084602AACDF828800297FFF781FADDF817
S214008E1028808346002840F0A18000210EA80E94EA
S214008E20FEF7C1FD0028C3D1002104A80495FEF773
S214008E30BAFD0028C0F28880494604A80495FDF7CC
S214008E40CEFB002880F2B180019804A9FFF748F80D
S214008E50B0F1000B18BF6FF00F0B7FE001210EA8DA
S214008E600E94FEF712FE3368DA0703D4D8F8003003
S214008E70DB0715D50CA9084608AA0C96FFF72AFAB0
S214008E800C9E8346002869D10AA9084610AACDF888
S214008E902880FFF73DFADDF82880834600285DD15C
S214008EA001210CA80C96FEF7F0FD01210AA8CDF8CA
S214008EB02880FEF7EAFD7BE7012106A8CDF818A07A
S214008EC0FEF7E3FD2B68D90702D43B68DA0713D513
S214008ED004A9084608AA0495FFF7FCF9049D8346F2
S214008EE000283BD102A9084610AA0297FFF710FAFD
S214008EF0029F8346002831D1012104A80495FEF77D
S214008F00C4FD012102A80297FEF7BFFD53E706A99C
S214008F1008460EAAFFF7FCF9DDF818A08346E8B964
S214008F2004A908460CAA04950C96FFF7F1F9049DCF
S214008F30834698B902A908460AAA0297CDF828805F
S214008F40FFF7E6F9029F64E704A94A460846FFF7DA
S214008F50C1F9049D834600283FF466AF10A8FEF7CB
S214008F605CFE0EA80E94FEF758FE0CA80C96FEF7B4
S214008F7054FE0AA8CDF82880FEF74FFE12A8FEF78A
S214008F804CFE08A8FEF749FE06A8CDF818A0FEF786
S214008F9044FE04A80495FEF740FE02A80297FEF7DA
S214008FA03CFE584619B0BDE8F08F04A94A4608466C
S214008FB0FFF7AEF9049D834600283FF43DAFCDE7AA
S214008FC000242646A046A24625462746C6E75C4617
S214008FD05E46D846DA465D465F466FF00D0BBDE747
S214008FE05E46D84648E6D8465D465F4646E65D4657
S214008FF05F4643E65F4641E66FF0030BD1E72DE997
S214009000F04F16461D46002201238BB0B142814622
S2140090100C46CDE90623CDE908231ED106A8FEF7A7
S2140090205FFFC8B16FF00F03029308A8FEF7F5FDC7
S21400903006A8FEF7F2FD029B002B40F0B080D9F8A0
S2140090404850002D70D12146204609F104020BB08D
S214009050BDE8F04FFFF7B9BB06AEAC4206D12146DD
S21400906008A8FEF73DFF0028DCD108ADB6F806805C
S214009070B8F1000F36D1B8FA88F3EF885B09002FF5
S2140090803AD1002F08BF43F0010308EB070A514608
S21400909020460493FEF7DFFD01460028C2D1204695
S2140090A0FEF76BFF02900028BCD1326823680146A9
S2140090B0039218464FEA8A02D5F800B01BF05AF819
S2140090C0ABF1040A834600EB870708F10101BB45B4
S2140090D01BD1049B33BBB388AA8813FB02F39BB255
S2140090E0A380A2E7336803EB880353F8043C002B05
S2140090F0C1D108F1FF38BBE72A6802EB870252F8B5
S214009100042C002ABDD1013FB9E75AF8043F58465F
S2140091100093039A434605910BF1040B10F068F890
S2140091200599D4E70123DBE7B4F90430002B04DA11
S21400913020460299FEF737FCA0BB2046FEF76AFCE5
S214009140D9F83C30B0EB430F2CD82046A84705464C
S21400915080B909F10406B4F90430002B04DA0021C2
S2140091602046FEF720FC48B931462046FDF737FA80
S21400917000280CDA28460BB0BDE8F08F32462146B0
S2140091802046FFF7A7F80028E5D00546F2E7324666
S21400919021462046FEF793FF0028E5D0F5E76FF05E
S2140091A00F05E7E7004DE5E780B0FFFF2DE9F74341
S2140091B001F110060546894630460021FEF7F3FB0E
S2140091C00446A0B300230127314668462A1DCDE990
S2140091D00037FFF700FD044630BB09F108086B4670
S2140091E0424641462846FFF70AFF0446E0B96B466A
S2140091F06A4669462846FFF702FF0446A0B96B4652
S2140092004A4649462846FFF7FAFE044660B96B46CA
S214009210424641462846FFF7F2FE044620B9394644
S2140092203046FEF7AAFE04466846FEF7F6FC2046E1
S21400923003B0BDE8F0832DE9F84F1E4603F108059C
S214009240C36804468A469046002B40F0A58002F18B
S21400925010031A462946FFF7D2FE002840F09A80EF
S21400926006F110072B46424639462046FFF734F8EB
S214009270002840F08F8006F118092B4642464946E2
S2140092802046FFF748F8002840F084804B463A46D0
S21400929029462046FFF7B3FE00287BD10322294645
S2140092A03046FFF77AF8002872D131462046FEF79E
S2140092B07CFF00286ED108F1080B06F110075B460C
S2140092C05A4639462046FFF79AFE002862D13946AC
S2140092D020460FF089FA00285CD13B4642462946D4
S2140092E02046FFF78CFE002854D1294620460FF072
S2140092F07BFA00284ED106F118093B463A46494605
S2140093002046FFF77CFE002844D1494620460FF051
S2140093106BFA00283ED13346324639462046FFF7E0
S2140093206EFEB8BB2B463A4639462046FEF7F3FF9C
S21400933080BB2B463A4639462046FEF7ECFF48BB34
S2140093403B462A4629462046FEF7E5FF10BB334635
S2140093502A4629462046FFF752FED8B94B462A46EB
S21400936029462046FEF7D7FFA0B95A46494620466A
S21400937008F11003FFF743FE60B9494620460FF098
S21400938033FA38B939465046FEF7AAFD002841D0D0
S2140093906FF00F00BDE8F88F13462946FFF72FFE43
S2140093A00028F7D1032229463046FEF7F6FF0028AC
S2140093B0EED131462046FEF7F8FE0028EAD104F149
S2140093C00C0701463846FEF7EEFA00283FF473AF66
S2140093D008F110031A4629462046FFF710FE00281B
S2140093E0D8D106F110092B462A4649462046FFF7F3
S2140093F006FE0028CED13B464A4629462046FFF7C1
S214009400FEFD0028C6D12B46324631462046FEF7E2
S21400941063FF4EE729460AF10800FEF761FD0028C3
S214009420B6D149460AF11000BDE8F84FFEF758BD20
S2140094302DE9F14F9A461B6904460E4691460A9D51
S214009440002B00F0D38002F1100700213846FEF70B
S214009450AAFA30B95146304601B0BDE8F04FFEF7E3
S21400946075BD0AF1100800214046FEF79CFA08B9BF
S2140094704946F0E701214046FEF795FA002840F0FD
S214009480B5803B463A4629462046FFF7B8FD0028F9
S21400949040F0AD8005F108083B462A464146204686
S2140094A0FFF7ADFD002840F0A28053462A46294625
S2140094B02046FFF7A4FD002840F09980424641462A
S2140094C020460AF10803FFF79AFD002840F08F8037
S2140094D04B462A4629462046FEF71DFF002840F048
S2140094E0868009F1080B5B46424641462046FEF759
S2140094F012FF00287BD100212846FEF754FA0146C9
S21400950088B94046FEF74FFA38B92B464A463146E8
S214009510204601B0BDE8F04F8DE6304601B0BDE80C
S214009520F04FFEF73EBD2B463A46204606F11001A8
S214009530FFF765FD00285AD105F110072B462A468D
S21400954039462046FFF75BFD002850D105F1180A82
S2140095502B463A4651462046FFF751FD002846D195
S2140095604B463A4639462046FFF749FD00283ED18D
S21400957039462846FEF7B4FCE0BB294620460FF0E5
S21400958033F9A0BB4346424631462046FFF737FD37
S21400959068BB2B46324631462046FEF7BCFE30BB43
S2140095A05346324631462046FEF7B5FEF8B93346F6
S2140095B03A4639462046FEF7AEFEC0B943463A461E
S2140095C039462046FFF71BFD88B95B465246514692
S2140095D02046FFF714FD50B953463A46204606F19A
S2140095E0080101B0BDE8F04FFEF795BE034801B094
S2140095F0BDE8F08F6FF00F00F9E700BF80B0FFFF07
S2140096002DE9F0430E460546012189B006F110000B
S214009610FEF7C9F90446002840F0E2802846FEF727
S2140096204FFA0228804660D13046FEF7F3F92B6CDD
S21400963007300733C008B0EBD30F00F2D1802146C5
S2140096403046FEF7B0F90028C0F2CA800123314642
S21400965004A82F7804940593FEF742FC002841D115
S2140096600435294604A8FCF7BAFF002807DA0121CA
S21400967004A8FEF798F9002810DC5B4C07E004A964
S2140096802A460846FEF744FE04460028E9D004A809
S214009690FEF7C3FA204609B0BDE8F083092F0BD1C8
S2140096A0524904A8FCF79BFF0028E6D0504904A8BE
S2140096B0FCF795FF0028E0D0012302934FF001133A
S2140096C004A90793084602AB06AA0693FEF702FE15
S2140096D004460028DBD1294604A8FCF780FF0028B2
S2140096E0D5D1CAE76FF00F04D1E701287AD1214619
S2140096F03046FEF758F9002872DB06F108092146C5
S2140097004846FEF750F900286ADB2F1D39463046DA
S214009710FCF765FF002863DA39464846FCF75FFF2A
S21400972000285DDA4B464A46284602A9CDE902489B
S214009730CDE90448FFF763FC044600284CD13346C5
S2140097403246284604A9FFF75AFC0446002843D1AF
S214009750EB68002B36D1032301934FF0011304A9C5
S2140097600793084601AB06AA0693FEF7D1FD04460A
S21400977090BBBDF91430002B04DA002104A8FEF7D4
S21400978012F9C8B904AA334611462846FFF737FC33
S214009790044608BB04AA1146284605F11403FEF742
S2140097A09BFD0446C0B904A902A8FCF718FF0E4B9F
S2140097B0041E18BF1C460FE004A93A460846FEF7EA
S2140097C089FDD4E704AA1146284605F10C03FEF7E6
S2140097D083FD04460028D5D002A8FEF71EFA56E7F9
S2140097E0014C57E7034C55E780B3FFFF7466020051
S2140097F07C66020080B0FFFF70B5044658B3436C29
S214009800012B11D00C30FEF708FA04F11400FEF715
S21400981004FA04F11C00FEF71BFA04F13400FEF70C
S214009820FCF9201DFEF7F9F9A36D8BB92046BDE8BB
S21400983070406021FEF7DCB906FB0500FEF708FA6B
S2140098400135D4E91603AB42F6D81CF0EFFAEDE783
S21400985000251826F5E770BD10B5044658B1FFF789
S214009860CBFF04F16000FEF7D8F904F16800BDE80C
S2140098701040FEF7EDB910BDF0B504460E4685B0B3
S214009880FFF7BAFF2046FEF72DF9032E267005D007
S214009890092E30D000233F4D237029E03E4B3F4A2F
S2140098A0A3643F4BA260A261A2632262A26203F19C
S2140098B0800262624FF0011203F12001616103F140
