S0030000FC
S31500004000C80A00208B3201002DB8010031B801002A
S315000040100539010035B801003DB8010089320100BB
S31500004020893201008932010089320100893201009A
S3150000403041B801004466020089320100893201005C
S31500004040893201008932010089320100BB66000015
S31500004050893201008932010089320100893201006A
S315000040608932010089320100D76C010089320100D2
S3150000407019C9000089320100893201008932010024
S31500004080893201008932010089320100893201003A
S3150000409089320100633A0100893201008932010048
S315000040A089320100E9320100C9320100893201007A
S315000040B0893201008932010089320100A1310200F2
S315000040C0AB510200A7510200D1280200C1510200E3
S315000040D0AF51020061310200B35102002118020003
S315000040E0E131020089320100893201008932010082
S315000040F089320100893201008932010089320100CA
S3150000410089320100893201008932010089320100B9
S3150000411089320100893201008932010089320100A9
S315000041208932010089320100893201008932010099
S3090000413089320100C9
S3150000414070B5104A104C114DE3695E0714D4082867
S3150000415001D12B4213D103EA00068E4207D10B4A46
S315000041601A40002A14BF6FF00100002070BD013A0A
S31500004170EAD16FF00200F9E74FF0FF30F6E76FF093
S315000041800100F3E78096980000000350020001004A
S315000041900000000000000000000000000000000019
S315000041A02DE98048B74BCFB05B691A0B03F03F038C
S315000041B0012B8DF8E8208DF8E93015D1B24B9A6DB8
S315000041C0D50311D45A6B6FF3162242F4BC1242F493
S315000041D0A0625A631A6B22F4704242F440421A6398
S315000041E01A6B42F4E0621A63BDF8E830B3F5807FDB
S315000041F00CD14FF000531B68A44B1B68A44B1B68E3
S31500004200A44B1B68A44B1B68A44B1B68A44AD2F89A
S31500004210803043F00303C2F88030EFF3118330227D
S3150000422082F311889F4D95F85120002A40F017829D
S31500004230012285F8512083F31188BFF36F8F6FF049
S3150000424004035024984A994913F0800F03F10100A2
S3150000425040F0FE810B443D2883F800430346F3D12A
S31500004260934BD3F84C21140300F1FE81D3F850414F
S31500004270E4B2904B904A93F90060904B26441A6042
S31500004280874B86F308061B6F03F00703032B01D148
S3150000429021F01AFC13F0FCF8032842D045F60E0371
S315000042A00221794AC2F88030854B9962012103F5D3
S315000042B080539962936DD803FCD4824B8249136173
S315000042C0936903F0004343EA064343EA042343F0B9
S315000042D0407343F03C039361136A23F00D031362AA
S315000042E0936A23F0330343F001039362664A936DA6
S315000042F031EA0303FBD10221714B9962936D590098
S31500004300FCD4136923F4700343F4001313614FF0D4
S3150000431000426B4B9A61022203F580539A62012296
S315000043209A62634BD3F89840684B5A68012A00F0AA
S31500004330A18113F0ADF8042807D1654813F060F8A1
S31500004340574A136F43F480631367624A24F040733D
S31500004350D16811F0060FFBD19168936090684340D5
S3150000436013F4F81F05BF5C4B594A91601A6013F0AD
S315000043708FF8042812D121F0A7FB13F041F8012091
S3150000438010F026FF5549464A884294BF0020012076
S31500004390136F23F4806343EA80231367444B504A28
S315000043A0D3F8C0303E4C23F040739360266F4848E4
S315000043B0C6F38026731C85F8523013F021F8236F5C
S315000043C043F480632367236F23F0070343F002035C
S315000043D0236721F079FB13F013F8236F324923F496
S315000043E0806343EA86232367236F23F4505343F401
S315000043F080632367D1F8FC2012F080721EBFD1F8CB
S31500004400FC3023F08073C1F8FC30D4F8803023F000
S31500004410030343F00203C4F8803032B1224AD2F8D3
S31500004420FC3043F08073C2F8FC301D4BD3F82021DA
S3150000443022F0070242F00102C3F82021D3F88021BE
S3150000444022F0030242F00102C3F88021D3F8402192
S3150000445022F0030242F00102C3F84021D3F86021A2
S3150000446022F0030242F00102C3F86021D3F8402291
S3150000447022F0030242F00102C3F84022D3F80022E0
S3150000448030E000BF00C0075000C0005000400020D0
S315000044900080002000C00020000001200040012014
S315000044A000800050B019002000ED00E000E100E0BF
S315000044B00080E00FF831002000F04902A43F002000
S315000044C000D000502008B00B0300014000C001508E
S315000044D000B4C40400000150A03F002080F0FA029E
S315000044E00040015A22F0070242F00102C3F80022FE
S315000044F0D3F8082222F0070242F00102C3F808228C
S315000045006D4A536A23F0010353624FF0E0221369A8
S3150000451043F004031361694B5A6F42F001025A6774
S31500004520DA6E22F03002DA66EFF31186302383F377
S31500004530118895F85330002B3DD14FF0B044604AB6
S315000045401360604A1360604A136063680BB110F031
S31500004550EDFF012300215D4A5360A1605C494B6079
S315000045600223E3606023E3631F23936153614FF0EB
S31500004570B0439A6A12F00802FBD11A625A685B6865
S315000045800BB110F0D3FF0127514C676010F0CEFF3E
S315000045904FF0B0434FF48062DF604E4BC3F880218A
S315000045A01A601220A7613AA921F08CFE3A9A4A4B6A
S315000045B01A60002A64D186F31188BFF36F8F12F058
S315000045C081F8464A464CD2F8C030464E23F0FF03E7
S315000045D043F0A003B4424449C2F8C0305BD026F091
S315000045E01F03203BB3F1005F56D2404B0A683B489D
S315000045F023F01F0343F00303C0F89820C0F89C3053
S315000046003B4B0132C0F8A0300A60BFF35F8F052232
S31500004610324BC3F894205A6A42F480325A62BFF38E
S315000046204F8FBFF36F8FBFF34F8FBFF36F8F314E37
S315000046303AAC0FCE0FC43368032023602AA921F0B9
S3150000464041FE10B92A9A002A62D1062012F04AFECB
S3150000465003F00F03043B13441C760346F4E583F38F
S315000046601188BFF36F8FFBE5234B1C88FF2C88BF97
S315000046708024FEE521494A609A699207FCD158E6F2
S31500004680002340F2E7311E481FF0E8F91D4B85F87C
S31500004690537018608FE71C4B08681C4FC2F89800CF
S315000046A043F001030130B442C2F89C70C2F8A03056
S315000046B00860AAD099E700BF00C00750004000502C
S315000046C0403100201832002014320020002000580B
S315000046D00010005800E100E08C0D002000ED00E025
S315000046E0803E0020203E00200C3200209F3E00200D
S315000046F0E1FF0020C07302000001E00F00E001505E
S3150000470018FCFFFF880D0020000001200300002098
S315000047109DF8F4308DF8F900032B98BFC0494FF08F
S31500004720010698BFC85C4FF4E1335843430803EBD6
S315000047304213B3FBF0F3203BC3F313033C9340F265
S3150000474001130421012222A8ADF8883010F01EFFC3
S315000047503AA813F07FFB4FF00112B24B0027C3F8C3
S31500004760C425102203F58053C3F8AC25042203F5B3
S31500004770E033AD4C5E6000205A612E7112F0D0FD20
S31500004780AA4817F04EF8B4F85830B4F85A10A26E8A
S3150000479001EB43010139342011F057FF04F16C009D
S315000047A017F03FF8B4F85830B4F85A10E26E01EB3F
S315000047B043010139072011F048FF04F1700017F09A
S315000047C030F8B4F85810226FF1403144304611F0F9
S315000047D03CFF04F1740017F024F8606D626F11302D
S315000047E080B2B4F85810043011F02FFF04F17800AD
S315000047F017F017F8B4F85810A26F01390C2011F011
S3150000480024FF04F17C0017F00CF80521E26F9420D8
S3150000481011F01BFF04F1800017F003F8D4F8802094
S31500004820B4F85A10082011F010FF0920C4E91877CF
S3150000483012F076FD10F06CFE4FF050234FF400326C
S315000048401A67C30709D432463146174601FA07F3F9
S31500004850034002F1010200F05182754B03EB47035E
S315000048601B8D744A062B116873480C918AB24FEA65
S31500004870114140F04A824FF20F03994240F04282C2
S31500004880B2F5406F28BF4FF4C06202804FF000536C
S315000048904CF23C325A80694A536A43F4702353629D
S315000048A0EFF308834FF0CD31654A043B934280F025
S315000048B03D820A2012F034FD012012F031FD022063
S315000048C012F02EFD032012F02BFD00239B6AB3F598
S315000048D0804F5AD21A685B4B9A4256D195F854606B
S315000048E016F0FD0651D1584F3B78002B00F0588248
S315000048F002233B7008214FF48033544A5448C2F8CF
S315000049008011C3601160534A136100239B6ADB69FF
S3150000491098473B788046012B40F0D08202F00CF994
S31500004920013040F0BC82AA6E4B4B1A66EA6E5A669C
S315000049302A6FC3F870216A6FD20700F1BC82474A1A
S315000049405368013313D195F8543083B94449496803
S31500004950C90748BF5360434B5B68DB0744BF01236D
S315000049605360414B5B68D80744BF022353601BF07A
S3150000497053FDAB6D83F31188BFF36F8F3E70B8F1B3
S31500004980000F02D1012385F85430042012F0C8FC30
S31500004990052012F0C5FC3549354811F07DFD06208D
S315000049A012F0BEFC072012F0BBFC11F09FFE08209F
S315000049B012F0B6FC0B2012F0B3FC244B1A689101DE
S315000049C004D44FF00072C3F880211A601A685201AD
S315000049D004D44FF08062C3F880211A600C2012F0D4
S315000049E09FFC0D2012F09CFC0023C4E90233C4E9AD
S315000049F00843C4E90D431F4AE06C2361236484F82D
S31500004A004430A4F8C43084F82830E36184F83C309C
S31500004A102363C4E9003311468368A2F150082BE0F2
S31500004A20A566020000C00350843E0020EC3E002034
S31500004A30AC730200000000201E11002000ED00E013
S31500004A400800002007B0CD5ED20A002000E100E099
S31500004A5000A0004400900044008000440040002074
S31500004A600080055000C0055000000650A06D0200F1
S31500004A70281A0020D43E0020984750BBE06C0368FB
S31500004A80984730BBE06C4146436898470646D0B924
S31500004A9047460146C4F89800C4F8C00084F8BC0034
S31500004AA0A4F89400202208F19C001FF0F9F947F8B9
S31500004AB0846FC7E90166E06CC8F89060C3689847E0
S31500004AC0002800F0FD819B4802F0C9F99A4802F0DF
S31500004AD0C6F901230E206B7112F022FC0F2012F092
S31500004AE01FFC102012F01CFC112012F019FC05F01E
S31500004AF00BF8122012F014FC132012F011FC1420F3
S31500004B0012F00EFC152012F00BFC162012F008FC19
S31500004B10172012F005FC20F0EBFF884B18205B688D
S31500004B2012F0FEFB192012F0FBFB0021084611F0E3
S31500004B30B3FC08B1122809D13AA813F0F9F928B93B
S31500004B404FF0FF309DF8E8101FF07AFC1A2012F0A3
S31500004B50E7FB1B2012F0E4FB12F006FA1C2012F011
S31500004B60DFFB1D2012F0DCFB142200213AA81FF007
S31500004B7097F9734B3AA94FF0FF303B931FF0F2FDC4
S31500004B801E2012F0CDFB1F2012F0CAFB00270123C6
S31500004B903AA94FF0FF30CDE93A778DF8EA301FF0A9
S31500004BA0AFFC202012F0BCFB212012F0B9FB6FF005
S31500004BB00A014FF0FF301FF0D8FD222012F0B0FBA3
S31500004BC0232012F0ADFB17F067FC394640225D4802
S31500004BD01FF066F9302239465B481FF061F9594EDD
S31500004BE05A4B5B4ADFF8AC91DFF8AC81DFF8ACE1F9
S31500004BF0BB4606F1400CA3F118074FF0240A00212A
S31500004C000AFB0BFA534843E9061643F8040C07EB74
S31500004C100A0043E9049843F808EC01770162CBF1F6
S31500004C20000000F01800604442F8140C4A4842F8AC
S31500004C30181C42F8100C494843F8241B42F80C0C87
S31500004C404748203642F8080C464842F8040C4648C5
S31500004C5050440177016242F8241B0BF1010102293D
S31500004C604FF0010B0391C8D1584620F0F9FA0346DC
S31500004C70002840F09881002000213C4A4FF6FF7939
S31500004C80C2E9000141F60B22394F7F21BA80394A29
S31500004C903948C5F8042120223B600493ADF82C90D6
S31500004CA08DF82EB01FF0FCF847F67F714FF0FF38F5
S31500004CB04FF0800A314A049B1180314A31491288EB
S31500004CC0C5F82411A5F814212F4A243912683AA8E8
S31500004CD0C5F81C212D4A0BAE1288CDF8E880A5F840
S31500004CE016212B4AA5F818A11268C5F820211A46E4
S31500004CF017F030FC002800F00481FEE7102A7FF44C
S31500004D00A4ADAEE54FF4C062BFE540F20726B3425C
S31500004D100AD14FF20F06B14206D19A4202BF4FF0B6
S31500004D2000524CF23C3151800380B4E543F804193B
S31500004D30BCE500BF9C3E0020B03E002000ED00E038
S31500004D40006A1800441A0020841A0020A80D0020CA
S31500004D50D00F0020CD1D010071DC00006DD40000D5
S31500004D60A1DC0000A9DC0000B80F002030110020F3
S31500004D704C1100208D2A01007F1300207D13002096
S31500004D80068E0200D81A00200C8E0200048E020045
S31500004D90088E0200711D010061D4000015DC0000C0
S31500004DA04FF0010822962A9687F80080EFF31183C8
S31500004DB0302282F31188AB651BF026FB95F85C3038
S31500004DC04BB911F093FC30B98D498E4814F03EFA78
S31500004DD008B985F85C808C4B5A686A678B4A9A607A
S31500004DE01A6EAA665A6EEA66D3F87031884A2B673D
S31500004DF0884B5968481C39D04FF480138B40136692
S31500004E000423834A4FF0804113664FF48063136690
S31500004E10102313664FF400534FF000081366116613
S31500004E205366D8F82830B3F5804F10D201233AA83C
S31500004E308DF8E830CDE93B8801F067FE3C9B5905CB
S31500004E4005D5D8F828302AA91B6C22A89847229A9B
S31500004E506F4B1A662A9A5A6695F85C20002A3FF428
S31500004E6049AD2A6E1A666A6E5A6643E595F854305D
S31500004E70002BC5D1684B5B6813B94FF480131366DA
S31500004E80664B5A68624B12B94FF400121A66644AAE
S31500004E905268002AB4D14FF480021A66B0E701F0D6
S31500004EA04BFE40F2011398423FF43DAD5D4AD36894
S31500004EB0D807FCD437E500229A6040E501265DE577
S31500004EC0384606F041FC00287FF4FDAD04F01CFED8
S31500004ED0064600287FF4F7AD4FF4844009F061FBE5
S31500004EE0003818BF0120504B504A83F85000504BF1
S31500004EF002201A604F4B1E6102F0CCF902F072F9E3
S31500004F00E7E54D493A9817F0A5FE00B1FEE703998B
S31500004F103A981FF00EFB00B1FEE748493A9818F0A0
S31500004F2091F800B1FEE759463A981FF0EEFC00B141
S31500004F30FEE759463A981FF0F6FC054600B1FEE733
S31500004F40014652463E481EF0ABFF3D4B59463A9845
S31500004F50A3F83C8083F87E8083F83E90A3F87C908B
S31500004F60DFF8E88017F05CFB3A9BC8F8003003B91D
S31500004F70FEE721A3D3E900234FF0FF304FF0FF31C6
S31500004F8009F03AFC2946384609F046FE5946584685
S31500004F9020F04EF93146D8F8000017F019FB00B1A1
S31500004FA0FEE70DF0ABFF10F0B3FA264B4FF40032DC
S31500004FB018604FF0502324201A6712F0B1F925200B
S31500004FC012F0AEF90027204DDFF8848095F8E43022
S31500004FD0002B40F0D780C5E90135C5E903356B6183
S31500004FE04FF6FF73DFF86C90B9F800609E4233D13C
S31500004FF0FEE700BFAFF300800AE020FF22020000B8
S31500005000101A0020D80A00200080004455CEAC00BB
S3150000501000900044004000200080055000C005506C
S315000050200000065000000440B0190020E16B0000AB
S31500005030980B00209C0B002007001100F47302005F
S31500005040B811002024140020D80D00200C110020D7
S31500005050581B0020E0120020FEB9B3460DF1340AB9
S31500005060C6F104013AAA89B20AEB0600CDF8E8B007
S3150000507013F00FF8002840F09D803A9B1E44032E43
S31500005080EED9DAF80030002B00F095806FF0004280
S31500005090934208BF0123B14A1360B9F80030C5E94D
S315000050A0075501336D62A9F8003008F008FA0026AA
S315000050B0AB4B05F13001A86200F18040A94A6B6351
S315000050C0E963A863EE6205F108002D630AF081F931
S315000050D0FB23A54AA5F85830EB6930219B1A1E22FE
S315000050E0DB10B3FBF2F34FF00B0B4FF6FF7A9F4A40
S315000050F0DBB201FB032305F18000C5E91C35C5E9D8
S315000051001266C5E91E662D6485F844B0A5F846A06A
S315000051102E656D650AF090F805F190000AF08CF89E
S3150000512005F1A0000AF088F8914B05F15409C5F87D
S31500005130BC3005F1B803C5F8C4304846C5F8B850C8
S315000051400AF060FE4846C5E91366AE6485F844B0C9
S31500005150A5F846A00AF056FE0C23C5E93766C5F841
S31500005160CC30C5F8C850A5F8CE60A5F8D06085F853
S31500005170DA6085F8E4600AF09FF80123C5F8E800D4
S3150000518085F8E4307B1C022B48F8045B4FF00107DE
S3150000519005F1F0057FF41AAF764ED6F8A881C6F869
S315000051A0B081B8F1000F08D16A21734B734A744875
S315000051B016F080FBFEE701236DE7724D4FF0000A03
S315000051C02B4643F8E98B6B6105F6E903AB614FF4B7
S315000051D0006305F114073846AB83C5E908AAD6F87B
S315000051E0AC910AF05FFE2F662B460427013FC3E908
S315000051F019AA03F10803F9D1C823DFF8ACA10020EE
S31500005200C5E92CA34FF6FF73A5F8B8305E4B002115
S31500005210C5E93037042385F8E0305C4BC5E92277D1
S31500005220C5E92477C5E92677C5E93401C5E936011C
S31500005230A5F8847085F8A870C5F8AC70C5F8BC8070
S31500005240C5F8C870C5F8E47085F8E87085F8ED789B
S3150000525085F8EE78A5F86879A5F86E79A5F87079DD
S31500005260C5F88079C5F88479C5F88879C5F88C7948
S3150000527085F89079C5F8947943E90201D5F800A03C
S31500005280C5F8A079A5F8A479BAF1000F00D1FEE718
S315000052903F4ADFF818B13946C5E90A25A3F1B0003F
S315000052A07822CBF800501EF0FBFD4FF0FF32374B53
S315000052B0C5F87629374AA3F50D607721C5F87279C6
S315000052C0C5F87A79C5F86A79C5F8E978CAE937255B
S315000052D0C6E902250BF0C4FF2C4BA3F6E4000AF046
S315000052E001F82C4A294BC8E93725C9E937252A4A46
S315000052F0A3F80678C3F81828284AC3F81488C3F810
S315000053002428274AC3F81C78C3F82088C3F82878CD
S31500005310C3F82C88C3F83028C3F83478DBF800309B
S31500005320C5E90178AB42C5F80C9016D1262011F0DC
S31500005330F7FFFF2011F0F4FF37711A4B93F8C430D2
S31500005340002B39D0174B1B6893BB164A02F1840019
S3150000535082F8C43006F0F8F92EE0FEE7E4120020E9
S3150000536039F40000D0660200D80D0020F8120020A3
S3150000537025290100B01900205F8D0200207402006B
S31500005380698D0200F81B0020651D0100982500208C
S31500005390111D01001D1101004300010009E000007C
S315000053A09DF30000843E002000F8FF07081100204E
S315000053B093F85020022AC6D0B84B9D6C2F46002F7A
S315000053C05AD1EFF31182302383F31188A36C5B1B50
S315000053D0A36482F31188BFF36F8F94F8943023B1DE
S315000053E0AF4806F01DF984F89470AC4B93F8BC30C6
S315000053F09BB10323AA482AAA3AA912F025FB60B951
S31500005400BDF8A8303A9833B1A4490278D1F8C03033
S315000054101344C1F8C03001F021FEA24D2B7823B110
S3150000542006F07DF92B78002B4BD19F4B1B78002B78
S3150000543047D001239D480DF12A020EA912F004FB64
S315000054400546002840F075820E9F7B885A1E042A66
S3150000545034D80622DFF878B2398802FB03B2B2F8F4
S315000054608A2091422AD1023B032B0AD8DFE813F0A7
S31500005470DE00EF0032014C02884807F0D7FB013FFF
S315000054809DE7042286F8B421002286F8B521012280
S3150000549086F8B6216FF07F023B7986F8B72196F839
S315000054A05020002A40F0C080012B18BF24258048D8
S315000054B0C0F8B85100F5DA7001F07BFE0E9801F0E5
S315000054C0CDFD764A93680BB9D36823B1734801F0D2
S315000054D0EFFE0028F5D0714B5B68002B40F03C8254
S315000054E06E4B302793F844804546EFF3118987F3D6
S315000054F0118870480EF0FAFA89F31188BFF36F8F9E
S31500005500002840F06082EFF31182302383F3118884
S31500005510624B93F84430984540F2748200235F4909
S3150000552081F8443082F31188BFF36F8F0022604BFD
S31500005530D3F8B0315F685A60002F40F067825E4D45
S31500005540D6F8B0312A780993022AD3B200F08F82B6
S31500005550032B00F066820BB901232B70574B1D6895
S31500005560002D00F09E84284609F0CAFE05F58D50F0
S31500005570012314AA1AA9083012F066FA002840F08E
S31500005580818405F5805393F8A62112B9012283F888
S31500005590A62100231A9ABDF850909A428DF8383009
S315000055A008BF99460121C5F8902004220DF1380B59
S315000055B005F1900A85F86F1950465946A5F894905A
S315000055C0A5F89630A5F8989085F89A30A5F89C909D
S315000055D085F8E02085F8A8300AF0EAFFD0B99DF9F1
S315000055E038309DF83880002B14DAD5F88439013329
S315000055F0C5F88439C8F3011385F8713905EB8303BF
S315000056005B682B60002B40F05582062241462846F7
S315000056100CF062F8002385F86F391A9801F01EFD28
S31500005620002800F02F84FEE7122540E7042386F8C1
S31500005630B431002386F8B531022386F8B6316FF00F
S315000056407F0386F8B7312423C6F8B83123E01C4A15
S315000056503B1D07F1240153F8040B8B4242F8040B5F
S31500005660F9D115F0CBF8174B17491A68054601F51D
S31500005670D6701EF079FD06227B88C6F8B85102FB6B
S3150000568003B26FEA43436FEA5343B2F88C20A6F89D
S31500005690B631A6F8B4210D480EE700BF843E0020BF
S315000056A0083F00208C0B00204C3F0020800B002080
S315000056B0B0190020C43E0020E81200200811002086
S315000056C0E019002000400020C0190020641B0020C3
S315000056D0AC730200C24890F85030002B00F00581F0
S315000056E02022002122A81EF0DBFBBE4B07F1040896
S315000056F01B78052B02D1032001F0CCFD2AAA08F164
S31500005700200C1346D8F80000D8F8041008F1080851
S3150000571003C3E0451A46F4D14021B34804F0D3F957
S31500005720B8B9B14B0DF1C80C03F1200E62461868EA
S315000057305968083303C273459446F7D100230DF127
S3150000574068083A93424640213AAB2AA812F02EF94D
S3150000575090B10125A24BC3F8B85106227B8802FB03
S3150000576003BB6FEA43436FEA5343BBF88C20A6F8AA
S31500005770B631A6F8B4218EE79C4B98E803009980D1
S31500005780090C9DF87620186099711C98BDF8741064
S315000057905A73C3F80700A3F80B1007F124023AABBB
S315000057A007F1440E9C46106851680832ACE80300C5
S315000057B072456346F6D18E4B0DF5847C03F1200EBF
S315000057C0624618685968083303C273459446F7D190
S315000057D0002301224FF4844014A905F00FF88046F7
S315000057E0A0BBDDF85090D9F80430D9E9081A1B0A95
S315000057F031D1B9F8003003F4E042B2F5805F10D041
S31500005800B2F5005F0DD044F2010223F440509042FD
S3150000581007D003F44F43B3F5824F02D0B3F5844F5C
S315000058201CD1BAF1100F1CD84AAB524618461EF0CE
S315000058309BFC0021CAF1100250441EF031FB484681
S3150000584008F09AFEB8F1000F00D168B150213AA8CD
S3150000585002F0ECF87DE76FF08608F0E76FF0850858
S31500005860EDE76FF08908EAE7502114AB22AA3AA8BF
S31500005870CDF8508012F09AF8804650213AA802F0EE
S31500005880D5F8B8F1000F02D0202122A8E0E7554B49
S315000058901B78032B03D1574B186804F0E2FF14A8BA
S315000058A001F073FC544B0FA817934FF440730F93FA
S315000058B001F073FC0F9BDFF848E11693002322A941
S315000058C0CDE914E3199320224A4B14A804F02CFDC9
S315000058D08046202122A802F0A9F8B8F1000F7FF433
S315000058E038AF042001F0D6FC34E7112280F8B93134
S315000058F080F8B82180F8BA3180F8BB31402100F534
S31500005900DE7002F093F828E74FF0AA334FF0AA3280
S31500005910CDE91023042386F8B431002386F8B53187
S31500005920052386F8B6316FF07F0386F8B731082372
S315000059308AE61B280DD12A4D95F8FC31002B3FF441
S31500005940C0AD05F2FD1001F034FC002385F8FC31F2
S31500005950B7E505F0E4FEB4E5EFF31185302787F3EC
S31500005960118826480EF0C2F8814685F31188BFF3E8
S315000059706F8F99F84C30A9F10405022B14D12846F3
S3150000598001F02EFA80B109F12C00D9F8A08020F0A0
S31500005990CDFA4FF000034046294689F84C300EF008
S315000059A0ADF8284620F0D8F8EFF3118587F3118873
S315000059B012480EF09BF8814685F31188BFF36F8F6E
S315000059C00028D6D18CE54FF00003013D03744368EF
S315000059D0C068984715F0FF057FF487AD93E500BFD3
S315000059E0B0190020940B00206C1B00209C0B00209B
S315000059F08C1B0020B40C002000024805883E0020C5
S31500005A0000240001A3EB0803DBB288E5B8688742EF
S31500005A1016BF83680027BB600023836043689847EE
S31500005A208AE50CF0D8F9B04BD3E9002390429941AE
S31500005A30FFF494ADDFF8E882D8F8000000B9FEE77D
S31500005A401E22AA4BAA49C31ADB10B3FBF2F330227B
S31500005A50DBB202FB03110B7F0F7667F382030B7732
S31500005A600CF0DAF90123C8F800702B7076E50CF01B
S31500005A70B2F99D4BD3E9002390429941FFF46EADF4
S31500005A80DFF89C82D8F8000000B9FEE7974B4FF08C
S31500005A90300EA0EB030C1E234FEAEC0CBCFBF3FC10
S31500005AA093495FFA8CFC0B233A460EFB0C110CF063
S31500005AB061FBD7E7504622A90AF0EBFF002840F029
S31500005AC05281DDF888B0BBF1010F08D040F2D881D1
S31500005AD0ABF10203032B40F2FD80052288E102238D
S31500005AE08DF83C30B5F896304B4505D050460FA999
S31500005AF00AF05EFD00B1FEE79DF83C300DF1E80AC4
S31500005B00022B40F08E805046D5F8009009F094FBA9
S31500005B1000214FF01E08774BD9F81C201970734BE3
S31500005B20DFF800C2D01AC010B0FBF8F0C0B24022B5
S31500005B300CEB80101EF0B4F9D9F81C206B4B6E48A4
S31500005B40D31ADB10B3FBF8F3DBB24022002100EBE3
S31500005B5083101EF0A5F9012009F11C0B1FF080FB34
S31500005B6048B1584609F09CFB00B1FEE701201FF042
S31500005B7077FB00B9FEE74FF000084FF6FF71D9F842
S31500005B801C0008F05DFE58462AA9CDE92A880AF0CD
S31500005B9063F94FF6FE71D9F81C0008F093FE5046E3
S31500005BA009F04AFBCDF800A0524653464146D9F8C3
S31500005BB01C0012F0BBF84146D9F81C0009F026FA81
S31500005BC0404613F0DDF84FF6FF7A0B2309F1540037
S31500005BD089F84430C9E91388C9F84880A9F846A06D
S31500005BE00AF010F995F871392B4483F86A8983F81D
S31500005BF0728983F876A983F87A89286EC5F8808930
S31500005C00C5F88489C5F88889C5F88C890AF04AF9E7
S31500005C107022802128460BF05FFD002800F0AC8042
S31500005C20FEE7032B54D101238DF8E83000235046BC
S31500005C30CDE93B3300F069FF3C9B9C0245D52F4CD8
S31500005C4063680BB10FF0BAFA01222D4B5A60A36AB2
S31500005C509806FCD402230125A3606362294B5D608C
S31500005C600FF0ACFA254BE5609A6AD106FCD4022205
S31500005C701A639A6AD206FCD40323214A5361A2F519
S31500005C80805293614FF480221F4B1A604AF6E85007
S31500005C901E4B1F4CDA6ED96E22F0030218661D48A1
S31500005CA042F0020241F00301C0F82044DA66D966E8
S31500005CB0DA66D966DA66D966DA66D966DA66BFF36F
S31500005CC04F8FBFF36F8F30BFFEE7134B134A1A6037
S31500005CD00DF0FAFE2A902AA950460AF0DAFE18B309
S31500005CE00BF0F2FA024683E0F0120020D80D0020F5
S31500005CF0F81200206913002084100020004006508E
S31500005D00006006500050065000E100E000400050E0
S31500005D100000FFFF00E003500000002002020FF029
S31500005D2030140020041000202A9BBBF1030F0493BB
S31500005D3043D0ABF10403012B0ED8BBF1050F42D1C2
S31500005D40049B0322BB493AA80BF050FE3A9B0393EF
S31500005D503B9B0593082341E0002241462846049BCD
S31500005D600BF04AFC40B10BF0AFFA9DF838800246C2
S31500005D70414628460BF0ADFC95F8ED2895F8EE382F
S31500005D809A4202D028460BF001FF95F871299DF83A
S31500005D9038302A4492F8E91803F00F0331B18B42E8
S31500005DA01EBFD5F888190131C5F888190F2B0CBF0D
S31500005DB00123013382F8E9382CE441462846049A47
S31500005DC00CF000FACEE7049B03229B4912A80BF0C5
S31500005DD00DFE129B0393139B059307230793059BC5
S31500005DE003F001030693039B3BB9069B2BB90D22D7
S31500005DF0414628460BF06DFCB4E70023B5F896B093
S31500005E0085F89B30A9EB0B0293B21A465046A5F8CB
S31500005E109CB0A5F89E903AA908930AF0FFFE0023CD
S31500005E20059A85F86F3905EB6200059B069AD945F8
S31500005E3088BFA5F896B05B101AB1039AEB589B5829
S31500005E400393039B9847012385F86F3900287FF455
S31500005E5047AF05F1600941464846049B079ADDF8BD
S31500005E60E8A00BF0D2F858B95146089A286E12F0FD
S31500005E7047FE28B948460BF009F900283FF47CAFE5
S31500005E800022B5E705F5805393F8A6314BB105F12D
S31500005E9014000AF09FF820B905F58D50143009F06A
S31500005EA021FA0021084620F057F94FF0000ADFF8E2
S31500005EB0AC91624DEFF3108072B6B9F8028020F013
S31500005EC04DF9B8F1000F3DD14FF4F8501FF0C8F965
S31500005ED060B34FF480701FF0C3F9594D8146002816
S31500005EE000F0C0802B6841461B684FF480701B7819
S31500005EF013F0200F534B0CBF4FF0000999461FF0CB
S31500005F0097F9434600222968C1E90422EFF311817B
S31500005F10302080F3118886F8452281F31188BFF37B
S31500005F206F8F29684A46886A0CF024F9464A099B0D
S31500005F309B1A1E22DB10B3FBF2F3DBB2012B40F2FD
S31500005F40B380FEE785F800A0EFF3108072B6B9F8CB
S31500005F500220BAB1B9F80030013A09EB8301D1F851
S31500005F600C80B9F804100133B3FBF1FC01FB1C33C0
S31500005F70A9F80220A9F8003020F0F0F8B8F1000FD7
S31500005F8002D1FEE79046F7E7DFF8D4B098F80C3078
S31500005F909BF81720C3F3800363F341028BF81720A5
S31500005FA098F80C3003F0FB0388F80C309BF81720A8
S31500005FB0DB0963F300028BF8172098F80C3003F026
S31500005FC07F0388F80C3098F801308BF8063043468A
S31500005FD013F80C2BABF80420CBF8003098F90330FB
S31500005FE01A4A8BF81530137098F80230184A8BF855
S31500005FF016301370D8F80430CBF82830D8F80830AB
S3150000600003930BF0E8FE0022039B8342DBF8280093
S3150000601028BF01F1FF31D218CBE9022118B90A488D
S3150000602009F07AFC0B4809F077FC41460A4812F061
S31500006030FDFC3FE7807402005C74020058130020E8
S315000060402411002088110020D80D00206B13002099
S315000060506A130020C80E0020E415002098150020C1
S31500006060581100204FF400701FF0FAF8804630B146
S3150000607049464FF400701FF0DBF80F2342E74FF458
S3150000608080601FF0EDF8814638B141464FF48060DC
S315000060901FF0CEF8C1460E2334E701464FF4805078
S315000060A01FF0C6F80B232DE7394A52F8230020B11A
S315000060B00368022B01D108F027FDEFF3108072B6BA
S315000060C0344DB5F8028020F049F8B8F1000F24D01D
S315000060D008F075FB08BBEFF3108072B6698861B1F2
S315000060E02B8805EB8302D768AA880133B3FBF2FC41
S315000060F002FB1C332B804B1E6B8020F02FF807B958
S31500006100FEE73B7913B1012B24D0FEE7B968386866
S315000061100BF082FE38461FF01FFD1F49A1F1480013
S3150000612008F01EFBE0B11C49A1F1480008F018FB7D
S315000061300546F0B91949A1F1480008F011FB0546DA
S3150000614000283FF4FAA82846154908F01FFB284600
S315000061501249F2E77A89397A386808F05EFED9E79B
S315000061600E49A1F1480008F0FBFA0028DBD1FFF741
S31500006170E4B80C4B0C4A19780C4B2846002918BF7A
S315000061801A46114608F002FB28460349CEE700BF2F
S315000061902811002034150020D80D00200010002002
S315000061A08DD800000411002073D80000B9D8000073
S315000061B00348044B834202D0034B03B11847704790
S315000061C0CC400020CC40002000000000064B0749D0
S315000061D0C91A891048BF0131491003D0044B0BB1CD
S315000061E001481847704700BFCC400020CC40002033
S315000061F00000000010B5064C237843B9FFF7D8FF1E
S31500006200044B13B10448AFF300800123237010BD83
S31500006210503D00200000000078AA020008B5054B9A
S315000062201BB105490548AFF30080BDE80840FFF7FC
S31500006230CDBF00BF000000000030002078AA020099
S31500006240A3F5803A704700BF174B002B08BF134BCE
S315000062509D46FFF7F5FF00218B460F461348144A6B
S31500006260121A1DF01DFE0E4B002B00D098470D4B49
S31500006270002B00D098470020002104000D000D4897
S31500006280002802D00C48AFF3008015F041FC200036
S315000062902900FDF785FF15F02BFB00BF0000080065
S315000062A00000000000000000C80A0020C80A002004
S315000062B0803D0020000000000000000008B5C36F0C
S315000062C00A462BB1D0F88010007A9847012008BD05
S315000062D01846FCE70246D0F8940068B9937B73B978
S315000062E0D2F8900050B9D2F88C3043B9537B127B68
S315000062F09B1A58425841704700207047184670470D
S3150000630040BA80B24140C1F303135940080380B23A
S315000063104840490101F4FF5148407047024610B514
S3150000632044180020A24200D110BD12F8011BFFF74D
S31500006330E7FFF7E738B5044645180020AC4203D11D
S31500006340831A5842584138BD14F8011BFFF7D8FF8D
S31500006350F4E721B10020012308800B70704722204A
S315000063607047EFF31183302282F31188064A1078C2
S3150000637020B1064A1088003818BF012083F311881F
S31500006380BFF36F8F704700BF803E0020C80A002011
S315000063904FF4E13070474FF4E1307047EFF311836B
S315000063A0302282F3118883F31188BFF36F8F704711
S315000063B03021094A937852684B4303F1A04303F511
S315000063C08023DB6E92689B1AB3F5897F3ABF038000
S315000063D000200120704700BFC80A0020F8B5164605
S315000063E0044600258F1FAF4201DC00200CE020464A
S315000063F003780134142B08D10521B0F80520FFF7E6
S3150000640099FF10B106B13580F8BD0135EBE72DE9EE
S31500006410F3470746EFF31188302383F311880125EC
S31500006420DFF880A01E4E9AF802400DF10600A54046
S315000064305C4304F1A044B56204F58024D4F864906A
S31500006440FFF7B6FF28B1756288F31188BFF36F8F27
S3150000645009E0BDF80630BB4208D3756288F311889F
S31500006460BFF36F8F2E2002B0BDE8F0874A46FB1AB5
S315000064709BB2013B63F30E126266236F43F0020385
S315000064802367636E43F4801363667565236FAAF80A
S31500006490087023F003031A7B60F341021A73D2E7F4
S315000064A000100450C80A00208B7C01F12C02013335
S315000064B08B74036813B9CB62026070471846F8E71D
S315000064C0C06C836A03B11847704701230B74704789
S315000064D0C388B1EB431F3FBF03684A0953F8220044
S315000064E001F01F013ABFC84000F0010000207047CC
S315000064F010B5C38823B9CA885AB9ABB1012017E0D1
S31500006500026802EB830252F8042C002AF3D1013B05
S31500006510F0E70C6804EB820454F8044C0CB9013A19
S31500006520EAE79A42EAD30FD8013B5A1C01D1002070
S3150000653010BD026852F823400A6852F8232094429C
S31500006540DCD803F1FF33F0D24FF0FF30F0E730B57F
S31500006550C38823B9CA885AB9002B3DD136E00268F0
S3150000656002EB830252F8042C002AF3D1013BF0E738
S315000065700C6804EB820555F8045C4DBB013AEAE76A
S31500006580B1F9045003D2B1F90400404226E0B0F953
S315000065900420002A03DD002D0CDA01201EE0002D68
S315000065A008DD3AB14FF0FF3018E003F1FF330BD2AC
S315000065B0504213E0013B016851F8235054F8231070
S315000065C08D42F2D9104609E0591CF4D1002005E0AD
S315000065D0002BD8D09342D3D9B0F9040030BD0022A5
S315000065E0154BB3F90010884202D1B3F90200704787
S315000065F00132042A03F10403F3D110F1910F15D0EF
S3150000660010F1900F0ADA10F1970F12D010F1930FD4
S3150000661014BF4FF0FF306FF06F00704710F1860F18
S3150000662014BF4FF0FF306FF0710070476FF06F00CE
S3150000663070476FF06D007047A06302008A4228D051
S3150000664001F0FE43B3F1A06F14D102F0FE43B3F1A3
S31500006650A06F0FD182EA010333F47E130AD10B0433
S3150000666008D5C1F30541C2F3054291428CBF002013
S315000066700120704721F47F03B3F1106F0BD102F0B4
S31500006680FE42B2F1106F06D104480B1A5842584127
S315000066907047012070470020704700BF00000209C4
S315000066A0037E022B06D1C3695A1C03D00133C36192
S315000066B0002070476FF09600704707B51D48837A33
S315000066C003B9FEE7002369461030CDE9003312F026
S315000066D0BDFDE8B9184AD2F84031D2F840211F2B47
S315000066E04FF001030FD9203A9340019A1A430192C1
S315000066F008236A46114912480EF0ACFB114B124AA8
S315000067001A600DF0E1F99340009A1A430092EFE700
S315000067102D28F3D1084AD2F84031D2F840211F2B58
S315000067204FF0010385BF203A93409340019398BFF1
S315000067300093DDE7C80A00200080004400710800CD
S31500006740D80A0020000000200B020FF008B50DF05B
S31500006750CDF920B110F81A3C2C38013B837408BDE2
S3150000676038B50C46EFF31185302383F311880848BA
S31500006770FFF7ECFF206028B985F31188BFF36F8F10
S315000067801B2038BD85F31188BFF36F8F0020F8E713
S31500006790400B002038B50D48002284780C497C3027
S315000067A012F0D7FC302301250A4AA54003FB042337
S315000067B0196F21F002011967596E21F4801159668B
S315000067C002F500535D651D6538BD00BFC80A00208F
S315000067D081C200000000045010B550F8044C011F9F
S315000067E0606F12F077FC204610BD38B505460C46A2
S315000067F061B1486820B1FFF7EFFF2846FFF760FE5A
S315000068002146A86FBDE8384012F064BC38BD38B5E3
S315000068100446406F0D4612F062FC034620B100208C
S3150000682043F8044B2B6038BD1A20FBE710B50C4625
S3150000683061B1C06F12F053FC206048B100230360C1
S315000068401846226813722268536010BD2220FCE7A6
S315000068501A20FAE7F8B5044600284BD0837C002BB3
S315000068604AD10168856911B1284612F034FCA16845
S3150000687019B1D5F8800012F02DFCE37C022B0AD06A
S31500006880032B0AD0012B0AD1606820B1FFF7A4FFC1
S315000068902846FFF715FE012602E06168E1B90026E9
S315000068A0EFF31187302383F311882146A86E12F087
S315000068B011FCE37C042B13D1B5F86430013BA5F839
S315000068C0643087F31188BFF36F8F1EB1E86C436A9B
S315000068D003B198470020F8BD286F12F0FBFBDEE7F6
S315000068E0052B01D0032BECD1B5F86630013BA5F89A
S315000068F06630E6E72220EEE70420ECE770B51646A0
S315000069001C460D46B1B1806F12F0E9FBA0B1002321
S3150000691003606B68048143600223837234683CB968
S31500006920022330602846EB74FFF794FF204670BDC3
S315000069302646F3E72220FAE71A20F8E770B540F278
S315000069400113012586B0012204216846394EADF8AF
S31500006950003001AC0EF01AFE2A46022101A8ADF85D
S3150000696004500EF013FE0FCE0FC433686946236041
S3150000697003201FF0A7FC4FF4E112009B01A85B0166
S3150000698003F56123B3FBF2F3203BC3F31303039335
S3150000699011F060FA4FF44062274B5A611022A3F5BA
S315000069A0E033C3F8AC254FF00112C3F8C425042226
S315000069B0C3F8BC5503F5E8335D600DEB02005A6180
S315000069C05D6111F0B5FA88BB9DF804601B4C01A807
S315000069D0A67011F0ADFA48BB9DF8043084F89030EB
S315000069E0D4F894301A68127DB24221D9EFF311829D
S315000069F0302181F3118812491B6943F8261082F36E
S31500006A001188BFF36F8F4FF48023C4F898300D4B75
S31500006A10C4E92700C4E92B00C4F8A400C4F8B400F4
S31500006A20C4F8A83084F8A15084F8B15006B070BDFF
S31500006A302120FBE7B063020000800550C80A002051
S31500006A40A5BE00000200040010B5682101200FF069
S31500006A50C1FD044618B1682200211DF021FA204626
S31500006A6010BD10B5242101200FF0B4FD044618B165
S31500006A70242200211DF014FA204610BD0022C188F0
S31500006A80914201D800207047036853F8223033B191
S31500006A9093FAA3F0B0FA80F000EB4210704701328F
S31500006AA0EEE7F0B5C4880546082C8BB017D9083C2C
S31500006AB0082C17D80668A70020363A46314602A8A1
S31500006AC01DF052FB3A46002130461DF0E9F9262317
S31500006AD0009309212346286802AA12F027FA00200B
S31500006AE00BB0F0BD0048FBE780B0FFFF0FF0E5B844
S31500006AF010B504460FF0C2F82046BDE810401FF05E
S31500006B002BB80FF0C0B80FF0BEB800239A6AB2F5E2
S31500006B10804F03D21168074A914203D000230370C5
S31500006B2083607047012202709A6A926842609B6A8B
S31500006B309B69F5E707B0CD5E1FB500239A6AB2F5EB
S31500006B40804F1ED2126BB2F5804F1AD2012201A8D5
S31500006B5002938DF80420FFF7D8FF039BDB0310D5C3
S31500006B60029B1A0E0DD0012A03D1C3F307430A2B49
S31500006B7007D900239B6A1B6B1B6C05B05DF804EB01
S31500006B80184740F2011005B05DF804FB006800B933
S31500006B907047037A8B42F9D190F85030002B08BF2A
S31500006BA00020704708B503683BB901790448FFF730
S31500006BB0EDFF08B190F8500008BD93F85000FBE7D0
S31500006BC0843E0020054A08B502F1B800FFF7EAFF47
S31500006BD005281CBF012382F8C43008BDC80A00205E
S31500006BE0022808B509D1042906D100210948FFF772
S31500006BF0CDFF012380F8A03008BD0328FCD104296D
S31500006C00FAD10022044B5B68002BF5D0C3E926229B
S31500006C101B68F9E7843E0020803E00202DE9F04302
S31500006C201D46062387B0137049681446302900F0C4
S31500006C3081801AD8042906D80139032940D8DFE80B
S31500006C4001F04368495320296ED0A1F5E063FF2B7C
S31500006C5000F2BC80C9B241F4E0635E486360FFF7AE
S31500006C6095FF58B390F8A00028E040F2022399421D
S31500006C707FD00ED8502960D0B1F5007F62D0402970
S31500006C80E3D1516050F8380CC3699847A0600823D7
S31500006C904EE040F20133994270D0B1F5885F72D070
S31500006CA0A1F58053FF2BD0D8C9B241F4805349488F
S31500006CB05360FFF76BFF08B190F85000207207E0B1
S31500006CC000235360A360E2E7012353600623137297
S31500006CD005232DE0042303220921C4E9012301230E
S31500006CE0C4E90313102323E01346042243F8042FB8
S31500006CF0394A116859605168128999609A810E2340
S31500006D00638001234374638804332B6007B0BDE8B6
S31500006D10F083022301215360082210F8333C62807D
S31500006D2013FB0213A360EEE7516050F8302C22816A
S31500006D306380E8E75160C36BC4E7516050F8380CD4
S31500006D40036AA2E7516003A8FFF7DFFE049BE36036
S31500006D50002323619DF80C30012B02D103232372FB
S31500006D60C0E723B923724FF0FF33E360BAE7042389
S31500006D70F5E71A4B5160D3F8C830A3E7174B5160BB
S31500006D8093F8CC309EE7516002F1070802F18709BB
S31500006D9000221646531C6846CDE90066CDE9036617
S31500006DA08DF804208DF8103002960596FFF7FAFE4E
S31500006DB0074603A8FFF7F6FE47EA001708F8017F23
S31500006DC00232C145D2B2E5D18423B1E70023636024
S31500006DD00D2377E7843E0020EC870200C80A0020D6
S31500006DE008B50146FFF776FA50B1D1F8880040B9E8
S31500006DF0D1F8843023B9B1F86800B0FA80F04009C0
S31500006E0008BD0020FCE7EFF31182302383F31188DD
S31500006E108368013B836082F31188BFF36F8F7047ED
S31500006E2008B508B9022008BDEFF31182302383F3B9
S31500006E301188836823B982F31188BFF36F8FF1E756
S31500006E400133836082F31188BFF36F8F21B103682A
S31500006E5013B100200B60E6E7FFF7D5FFE2E738B590
S31500006E600446EFF31185302383F31188037C63B165
S31500006E708068214640300CF041FEA26892F844300A
S31500006E80013B82F844300023237485F31188BFF355
S31500006E906F8F38BD2DE9F041044617460E4600298E
S31500006EA03DD0806E12F01BF90546F8B13422002160
S31500006EB01CF0F6FFEFF31188302383F311887B1E55
S31500006EC0042B2ED8DFE803F0182D03210300B4F8B5
S31500006ED05820B4F86630013A93420ADB2946A06E80
S31500006EE012F0F8F888F31188BFF36F8F1A20BDE807
S31500006EF0F0810133A4F8663088F31188BFF36F8FF1
S31500006F000020EF74AC613560F1E7B4F86430B4F892
S31500006F105A209A42E2D90133A4F86430ECE72220E1
S31500006F20E5E72120E3E72DE9F347914604220446ED
S31500006F308846D0F8A4000DEB02019A46FFF7AAFF97
S31500006F40074660B91AF00E0F667A019D0AF0020331
S31500006F501AD0B20707D42846FFF77CFC212738460B
S31500006F6002B0BDE8F087A3B91AF0040F14D11AF0E5
S31500006F70080613D1324694F85030052B10D0284617
S31500006F80FFF768FC0227EAE716F00106E3D10122C3
S31500006F90F1E706463A46EEE70426FBE70E26F9E752
S31500006FA0C5F80480A5F80C906C61237A6B740A9B73
S31500006FB02B62CAB1A37AE27A1B01DBB21343CAF38E
S31500006FC0001A43EACA0A85F810A0A37A013303F02F
S31500006FD00703A37249464046FFF7A0F92946E88110
S31500006FE0204612F0FAF8BAE766F03F062E74F1E78B
S31500006FF02DE9FF410F4603A9064615469846FFF7B9
S315000070000FFF38BB45B30398D0F8A43090F8A02002
S31500007010B3F85C4040F6F773002C08BF1C46C2EB81
S31500007020423204EBC204A4B2A5420ED80A9B3946EA
S3150000703000932A464346FFF776FF01463046FFF7A0
S31500007040E2FE084604B0BDE8F0813046FFF7DBFEFD
S315000070502B21F6E70221F4E72121F2E710B578B1FA
S31500007060FFF7BAFB044660300CF040FD014610B154
S31500007070A06F12F02FF82046FFF722FA002010BD6D
S315000070802220FCE708B50CF031FD20B110F81E3CBB
S315000070903038013B837408BD8B7C01F1300201332B
S315000070A08B74036813B90B63026070471846F8E7E0
S315000070B038B581624469EFF31185302383F3118873
S315000070C0D4F8A430014603F11000FFF7E5FF85F37D
S315000070D01188BFF36F8FD4F8A420074902F1180076
S315000070E012F037F84FF6FF72B4F8683093421CBFBF
S315000070F00133A4F8683038BD0776000010B50446A1
S31500007100A37C0846013B04F13001A3740CF0F6FCA5
S315000071102046BDE810403321CAE72DE9F7438946EA
S31500007120174601A9032206461D469DF82880FFF74B
S31500007130B1FE38BB306F019C11F0D1FF606028B9F9
S31500007140204603B0BDE8F043FFF784BB012165F09C
S315000071506F05A181C4F814906774257480F80080C7
S315000071606068FFF7DBF8E081EFF31185302383F3E6
S315000071701188214606F10800FFF78EFF85F3118876
S31500007180BFF36F8F03B0BDE8F08310B50446182235
S3150000719000211CF085FE204610BD0368D90444BFBB
S315000071A043F4806303609A0444BF43F400630360BE
S315000071B0704707B50022084B014683F8CC200288A9
S315000071C0064B0432009392B201230548FFF710FFE5
S315000071D003B05DF804FB00BF803E00209D750000F3
S315000071E0800B0020002307B5012219460E4811F036
S315000071F083FA68B90C4801A9FFF712FE40B9019B52
S315000072000A4A09489A65FFF7FEFDFFF709FE18B11D
S31500007210002003B05DF804FB019B054A02485A674B
S31500007220FFF7F1FD0120F4E7800B00209D750000BB
S31500007230C56B000010F1840F12DA10F1950F25DBF3
S315000072409530102822D8DFE800F01D2121211B21CE
S3150000725021211913110F151F170923000F2070473D
S31500007260003818BF012070471D2070472E20704738
S315000072702D20704724207047212070471A20704720
S315000072802F2070472C20704725207047012070471B
S31500007290082070470146054B93F8CC0083F8CC10C4
S315000072A0D3F8D03003B11847704700BFC80A002092
S315000072B02DE9F0470646C06C86B08369984780463C
S315000072C0002800F06781F36823B9B368002B39D131
S315000072D01B2533E0B04B93F8CC3003F0FB03012BB6
S315000072E0F3D1EFF31185302383F3118806F10C00F7
S315000072F0FFF7C8FE044685F31188BFF36F8F002899
S31500007300E3D0237C9F097F2BA36898BF002743BB4C
S31500007310F06E11F0E4FE206028BBEFF311823023FB
S3150000732083F31188A37C0133A374B36844F8303F18
S31500007330B46082F31188BFF36F8F1A25284606B012
S31500007340BDE8F087EFF31185302383F3118806F14A
S315000073500800FFF797FE044685F31188BFF36F8F89
S31500007360CFE74FF00008A189002939D08B1C9BB2CA
S31500007370D4F814C037B9227C9CF80B0022F007021F
S3150000738002432274207C25687F28D4F808A029D8D7
S3150000739041B3BAF1000F28D19CF8A090B9F1000FC3
S315000073A027D07D4A92F8CC2002F0FB02012A1ED09B
S315000073B02946304611F08FFEC4F800A0EFF3118283
S315000073C0302383F31188A37C0133A374F36844F854
S315000073D0303FF46082F31188BFF36F8F0025ADE76D
S315000073E00B46C5E7BAF1000F22D04FF0000908336B
S315000073F09BB21421627CAB701B0A2970287105218F
S3150000740028466A70EB70FEF789FF6871000AA8715A
S31500007410B9F1000F7BD0D6F8800011F060FE21682C
S315000074200546A06030B9304611F055FE256084E768
S31500007430D146DEE70B79584D03F0070923F0070321
S315000074400B71D4F814A0D4E900129AF80800D4F805
S3150000745008C08DF80C00DAF89C00A3890590D5F8D1
S31500007460DB00CDF80D00B5F8DF00ADF8110095F89A
S31500007470E100CDF800C08DF8130003A812F09CF8C7
S31500007480804698B9DAF89C300133CAF89C30D5F8B2
S31500007490E4300133B3F1005FC5F8E43006D195F866
S315000074A0CC30052B02D10320FFF7F4FE4046FFF750
S315000074B0C1FE2268054613794FF0000823F0070342
S315000074C049EA030982F80490A26870B122B1114614
S315000074D0D6F8800011F0FEFD30462168C4F8088019
S315000074E011F0F9FDC4F8008028E7D4F80480B4F858
S315000074F00C90C144C1452BD102F1080512F8011BBD
S31500007500FEF7FEFE9542F9D14FF00008E081EFF359
S315000075101189302383F31188F06C2146436998471B
S315000075200546D0B1A37C0133A3742346B26843F861
S31500007530302FB360B8F1000F05D03046216811F046
S31500007540CAFD0023236089F31188BFF36F8FF5E628
S3150000755018F8011BFEF7D4FECCE7606938B9022F94
S3150000756015D089F31188BFF36F8F0125E6E677B949
S3150000757021468C30FFF790FD6269D37B0133D373CC
S315000075806469237C1BB91EF03BFCC4E9060189F340
S31500007590118821E73425D1E6C80A0020094A13B12B
S315000075A0012382F8C4300121074B83F8CC1092F8EE
S315000075B0CC30042B04D100230520C2F8E43069E660
S315000075C0704700BFC80A0020803E0020EFB506467F
S315000075D00D46843803A91746FFF728F988B906230C
S315000075E0039909228B8105230D7245F48055CB81C1
S315000075F00E600D610F750123009130460C31FFF7C7
S31500007600F7FC04B0E0BD2DE9F047064630274FF001
S31500007610020900F1100833697BB1EFF3118A87F391
S3150000762011884046FFF72EFD4469054694F8503010
S315000076302BB98AF31188BFF36F8FBDE8F087B4F8D2
S315000076406830002BF5D0013BA4F868308AF3118826
S31500007650BFF36F8F037C7F2B4FEA931232D9032A35
S315000076600AD14069D0F864A0BAF1000F04D0AB6A21
S315000076702A6A6968007AD04794F85030062B25D0DC
S31500007680082B23D0032B17D12046FFF7A9FB98B16F
S31500007690637A84F85090DB060ED5EFF3118230231F
S315000076A083F31188D4F8A430596844F8041F5C6049
S315000076B082F31188BFF36F8F002328466B60FFF7B4
S315000076C0C9F8A8E74069D0F858A0CDE72046FEF7EC
S315000076D001FE0028F0D0D4F8A4000922217A8430D3
S315000076E0FFF774FF18B1092384F85030E4E794F8E3
S315000076F05030062BE0D10723F6E7054BD3F8E830E8
S31500007700584043085B4240421843C017704700BFC9
S31500007710C80A0020F8B5C3880E46B2EB830F076887
S315000077204FEA83041AD813469C420CD81546002308
S31500007730AB4215D1A24204D90021121B30191CF00C
S31500007740AFFB0020F8BD23F003003D5803F0030112
S31500007750C900CD40EDB26DB90133E5E72546E6E750
S3150000776023F00301795803F00300C000C140F1542F
S315000077700133DDE76FF00700E4E7034670B51C68E8
S31500007780DB880846B2EB830F4FEA830519D9521BF3
S315000077908E1800211CF084FB30462A460023104434
S315000077A0934210D1002070BD23F00301615803F00D
S315000077B00306F600F140C9B281B901339D42F3D800
S315000077C0ECE71346FAE723F00301615803F00305DB
S315000077D0ED00E94000F8011D0133E1E76FF0070015
S315000077E0E1E71FB54FF001130191039302A901AB25
S315000077F00293FEF7ACFE05B05DF804FB10B50C4C29
S31500007800D4F8E820D4F8E8304240594081EA020032
S31500007810C00FFFF772FFD4F8E830521A434022EA4D
S31500007820030208401043C00FBDE8104065E700BFE3
S31500007830C80A0020013901D20020704750F82130D3
S31500007840002BF7D0B3FA83F00131C0EB411070473B
S31500007850C1880068EEE753098B42F0B402F01F04BA
S3150000786001D805D13CB3F0BC8A0000211CF018BB3E
S315000078701F2A22D834B1002200EB8101C4F1200670
S3150000788081420FD1F0BC704752F8047B45F8047F63
S31500007890B242F9D10022CB1A8B42EBD240F8232018
S315000078A00133F9E751F8045D25FA04F313430B603D
S315000078B005FA06F2E4E71F2AE4D900EB8302051F66
S315000078C000EB8106E4E708B50A46C18811B10068F5
S315000078D0FFF7C1FF002008BD01F18041013900EB2F
S315000078E081018142034600D270471B680A681BBAB1
S315000078F012BA40F8042B41F80439F2E70346C0698E
S3150000790020B15B6A002B14BF0120022070470022C1
S315000079100123C0E90023C0E90223C0E9042370471C
S3150000792038B5002401250146C0E90254C0E90454D3
S315000079300470446085611C30FFF7E9FFC1E90D451D
S31500007940C1E90F44C1E91144C1E91344C1E9154431
S31500007950CC6538BD70B50646FFF7D0FF02280C4649
S3150000796005461DD100212046FEF7B2FD60BB012170
S315000079702046FEF7ADFD024630BB2046FFF768FF06
S31500007980336C591C88421FD1FE2B07D1294620464D
S31500007990FEF79EFD0D4B021E18BF1A46104670BD1F
S315000079A001280FD101462046FFF71BFF00280BDBFD
S315000079B0204606F13401FEF7CAFD0028034AB8BF87
S315000079C00022EBE7024AE9E7004AE7E780B3FFFF58
S315000079D080B0FFFF70B5066C0D460736B3EBD60FC9
S315000079E0114604464FEAD60203D200230D482B6007
S315000079F070BD2A60B0F866307BB1FFF77FFF0228C2
S31500007A0004D104F16000BDE8704083E6012806D188
S31500007A1004F16000BDE87040AFE60348E8E76FF0A8
S31500007A206D00E5E700B1FFFF80B0FFFF10B5034B27
S31500007A300A465B6A00210446984710BDA06302000F
S31500007A4010B5044610B109B1FFF7F0FF2046BDE8B6
S31500007A5010401EF081B810B5044648B1006818B150
S31500007A60E1888900FFF7ECFF00220123C4E9002327
S31500007A7010BD10B50446FFF7EEFF04F10800FFF74E
S31500007A80EAFF04F11000BDE81040E4E700B1F0E7BA
S31500007A90704742F21073994270B504460D4602D9FA
S31500007AA06FF00F0070BDC3888B4213D204212846A5
S31500007AB00EF090FD06460028F2D0216841B1E2881A
S31500007AC092001CF051FBE18820688900FFF7B8FF9F
S31500007AD0E58026600020E5E72DE9F0410D46C988DE
S31500007AE004461646FFF7D5FF014618BB3046FFF79A
S31500007AF004FE03461C4EB4F90420D6F8E800013211
S31500007B00584022EA0002B5F9040001301840024349
S31500007B10013AA280D5F800E02268B5F806807245E1
S31500007B2003D08C46043AE04507D8DB43EA88E08870
S31500007B30824211D30846BDE8F081D6F8E87052F8C3
S31500007B40040F5F4020EA07005EF82C700CF1010C70
S31500007B501F4038431060E6E7256855F822001840B4
S31500007B6045F822000132E2E7C80A0020F8B50546CA
S31500007B708D420E46104601D10020F8BDFFF7BDFD2F
S31500007B80C98804462846FFF784FF10B16FF00F003E
S31500007B90F3E73046E988FFF77CFF0028F6D11E4A56
S31500007BA0B6F90430B5F90410D2F8E8000131013312
S31500007BB0604021EA000023400343013BAB80B6F955
S31500007BC00430D2F8E80001336040214023EA000384
S31500007BD00B43013BB38031682B68EE888B42CBD0D8
S31500007BE0043903EB8606B342C6D0D2F8E8001D6816
S31500007BF051F8047F604025EA00002740384343F8E7
S31500007C00040BD2F8E8700868674020EA07002540B0
S31500007C1028430860E7E700BFC80A002038B50446D5
S31500007C200D4619B9FFF717FF002038BDC2888A42F2
S31500007C3007D10021006892001CF032F90123A380CD
S31500007C40F2E7FFF708FF29462046BDE8384020E75F
S31500007C502DE9F84312F0030318BF012303EB920644
S31500007C608946314680461546FFF7D8FF0446F0B9E7
S31500007C70B8F80620D8F80070B2421BD33FB10146CF
S31500007C80920038461CF00CF923469D4202D120464C
S31500007C90BDE8F88319F80310DA0023F0030002F0B8
S31500007CA0180291403A5801330A433A50EDE76FF013
S31500007CB00F04ECE76FF00704E9E72DE9F84312F04B
S31500007CC0030318BF012303EB92068846314681461B
S31500007CD01446FFF7A3FF0546D0B9B9F80670B742B8
S31500007CE019D397B1D9F80090BE00014632464846EE
S31500007CF01CF0D6F82CB1301B2246414648441CF0F5
S31500007D0033FA39464846FFF7E7FD2846BDE8F883CB
S31500007D106FF00F05F9E76FF00705F6E7884270B5D3
S31500007D2005460E4609D0C988C28841B92AB1012341
S31500007D309200838000681CF0B3F8002070BD4C1ED2
S31500007D406CB9B6F904300134A242AB800ED221469A
S31500007D502846FFF79EFE88B16FF00F00EEE7336806
S31500007D6053F82430002BECD1013CE9E72868121BBC
S31500007D700021920000EB84001CF092F8316828681C
S31500007D80A2001CF0F1F9D8E738B504460D46FFF716
S31500007D90C5FF68B905F1080104F10800FFF7BEFF49
S31500007DA030B905F1100104F11000BDE83840B5E71F
S31500007DB06FF00F0038BD70B50E4601210446FFF77F
S31500007DC068FE054648B9E2880146920020681CF024
S31500007DD067F823681E600123A380284670BD10B58E
S31500007DE001210446FFF7E7FF58B9012104F1080015
S31500007DF0FFF7E1FF014620B904F11000BDE810408D
S31500007E00D9E76FF00F0010BDF8B5C3880646B1EB91
S31500007E10431F0C4617464FEA511514D2012231680A
S31500007E2004F01F0451F82530A24023EA020341F86A
S31500007E302530326807FA04F452F82530234342F815
S31500007E4025300020F8BD002AFBD0691CFFF721FE73
S31500007E500028E3D06FF00F00F4E7F8B504460D46AE
S31500007E60FFF7F6FCE3882844B0EB431F24D81F2D08
S31500007E702368E1884FEA551005F01F0412D96FF008
S31500007E8003060A4606FB0036904202F1FF3521D36F
S31500007E90421A814238BF002200250A4403EB8202BF
S31500007EA09A421DD134B1002503EB8003C4F12007AB
S31500007EB0814218D80020F8BD10F01F0118BF01211B
S31500007EC001EB50112046FFF7E4FD0028CFD06FF0FC
S31500007ED00F00F0E756F8252043F825202A46D3E779
S31500007EE042F8045DDCE71E68013006FA04F22A4314
S31500007EF043F8042B26FA07F5DAE72DE9F843054699
S31500007F000E469046D4887CBBF1882846FFF7C1FD13
S31500007F100746002864D1F28894420BD2AE4209D0BB
S31500007F2028683168121B920001EB840100EB840083
S31500007F301CF01AF9EA88F088824207D92B68121ACF
S31500007F400021920003EB80001BF0AAFF00221346DB
S31500007F50D5F800C0D6F800E0D8F80080944214D1D5
S31500007F6043BB0123AB800DE0D8F8003003EB84035C
S31500007F7053F8043C0BB9013CC5E7F188A142C4D2D1
S31500007F806FF009073846BDE8F8835EF8226058F8B6
S31500007F902200F11A81422CBF4FF000094FF001096F
S31500007FA0091A4CF822109E422CBF4B4609F10103D8
S31500007FB00132D3E72A68E98802EB840402EB8102E6
S31500007FC0944202D1002BCCD0DAE72168C91A34BF1B
S31500007FD001230023003B18BF012344F8041BEFE7ED
S31500007FE06FF00F07CEE738B50C46051D294620462B
S31500007FF0FEF7ADFA002801DA002006E02A462146FF
S315000080002046FFF77AFF0028F0D038BD2DE9F84367
S315000080101446B1F904709288054612FB07F25343E1
S315000080200E461ED521463046FEF762FAB0F1FF3FF6
S3150000803080460DD0224631462846FFF75EFF28B916
S31500008040B8F1000F08BF01270020AF80BDE8F88314
S3150000805032462846FFF751FF0028F7D17F42AF800E
S31500008060F4E7844202D0814212D126460123AB8036
S31500008070B6F80690B9F1000FE6D033684FEA8908E2
S3150000808003EB890353F8043C4BB909F1FF39F1E7D7
S31500008090FFF744FE0028E8D06FF00F00D6E7494608
S315000080A02846FFF7F6FC04460028F5D13168264637
S315000080B02B68181F50F8042FA2182CBF4FF0010C84
S315000080C04FF0000C51F82640013612194CF100040D
S315000080D0B1450260EED14344002CB5D0EA8806F1E2
S315000080E00108B24208D841462846FFF7D2FC0028CC
S315000080F0D2D12B6803EB86031A68464612192CBFA9
S3150000810001240024003C18BF012443F8042BE3E7B4
S3150000811001237BE770B50C460546114620461A46F4
S31500008120FFF7F6FF064630B9043529462046FEF726
S315000081300EFA002801DA304670BD2A46214620464E
S31500008140FFF7DBFE0028F0D00646F4E74FF0FF33DA
S315000081505CE770B50C460646114620461A46FFF700
S31500008160F5FF054688B90436B4F90430002B0CDA5D
S3150000817000212046FFF735FB30B132462146204626
S31500008180FFF7C6FF0028EFD00546284670BDF7B5B5
S315000081900D4601230021083504462846CDE9001383
S315000081A01646FFF71EFB211D07462A466846FFF7BF
S315000081B0CDFF044648B9002F0CBF002206F001028D
S315000081C069462846FFF788FC04466846FFF743FCE5
S315000081D0204603B0F0BD2DE9F34104460F4615468F
S315000081E0CE8836B13B6803EB860353F8043C33B1C3
S315000081F03DB90021204602B0BDE8F041DBE5013E75
S31500008200EFE72046711CFFF744FC28B16FF00F081A
S31500008210404602B0BDE8F08139462046FFF77EFDB4
S3150000822080460028F2D1013D009533463A68E18840
S31500008230206810F07BFEEBE72DE9F047112104469C
S31500008240FFF727FC002840F0B58125682B682A6ACD
S31500008250D5F82C9099182CBF012300236A6AD5F80B
S315000082603080521843F10003914588BF013BA2EBD1
S31500008270090EF04588BF013BD5F834C0AEEB0806C1
S31500008280B44588BF013BAF6BA6EB0C018F4288BF9C
S31500008290013BC91B29602568DEB2002B696880F2A4
S315000082A08B815A4291424FF0FF3228BF0022194477
S315000082B06B6AD5F830905B18A96A42F10002C918BA
S315000082C02CBF4FF0010A4FF0000A5AFA82F2894594
S315000082D088BF013AD5F83480A1EB090EF04588BF76
S315000082E0013AD5F838C0AEEB0806B44588BF013A66
S315000082F0EF6BA6EB0C039F4288BF013ADB1B6B605A
S315000083002568D6B252B2002AA96880F25A81534231
S3150000831099424FF0FF3328BF00231144AA6AD5F8CB
S3150000832034E0521843F10001EB6AD5F838C09B18C7
S315000083302CBF4FF001084FF0000858FA81F19E4516
S3150000834088BF0139A3EB0E06B44588BF0139EF6B30
S31500008350A6EB0C02974288BF0139D21BAA6022689D
S31500008360CEB249B20029D56880F230814B429D4297
S315000083704FF0FF3328BF00230D44D16AD2F83CE00A
S315000083804D1943F100034919156B43F100036918B0
S3150000839043F100036D18516B43F1000349192CBFDB
S315000083A04FF001084FF0000858FA83F38E4588BF56
S315000083B0013BD2F820C0A1EB0E06B44588BF013BB5
S315000083C0576AA6EB0C05AF4288BF013BED1BD56093
S315000083D02168DEB25BB2002B0D6980F2FC805A4246
S315000083E095424FF0FF3228BF00221D440B6B4F6AA7
S315000083F05D1942F100025B194D6B42F10002EB1868
S3150000840042F10002ED188B6B42F100025B192CBFA2
S315000084104FF0010C4FF0000C5CFA82F29F4288BFCD
S31500008420013A8E6ADD1BAE4288BF013AAD1B0D6173
S315000084302568D3B252B2002A696980F2D1805342CC
S3150000844099424FF0FF3328BF002311446E6BEF6A49
S31500008450721843F10001AB6BB61841F10001EA6BEB
S315000084609E1941F100019B1941F10001D2182CBF60
S315000084704FF0010C4FF0000CAE6A5CFA81F19642A7
S3150000848088BF0139931B9F4288BF0139DB1B6B6193
S315000084902268CEB249B20029956980F2A6804B4285
S315000084A09D424FF0FF3328BF00230D44916BD66BDE
S315000084B04D1943F100034D1943F10003751943F1BA
S315000084C000037619556B43F10003891943F1000344
S315000084D06D182CBF4FF0010C4FF0000C176A5CFAB8
S315000084E083F3AF4288BF013B566AE91B8E4288BFC1
S315000084F0013B891B91612168DDB25BB2002BCA6921
S3150000850078DA5D42AA424FF0FF3528BF00251A44AB
S31500008510CB6BD1F828A09A1845F100059A1845F1B9
S3150000852000059B180A6A45F10005D2182CBF0123E5
S31500008530002353FA85F3924588BF013BD1F82C906E
S31500008540A2EB0A08C14588BF013BD1F830E0A8EB91
S31500008550090CE64588BF013B4F6BACEB0E06B742F4
S3150000856088BF013BF61BCE6122685BB223EAE3714A
S31500008570116200250822E188013291423FD8002B82
S3150000858018DA00222568A958C943A9500432242ABA
S31500008590F8D100222568A9580131A95021688D58C3
S315000085A015B90432242AF5D14FF6FF72A2800A6A61
S315000085B0D21A0A62BDE8F08789192CBF012200226F
S315000085C076E689192CBF01230023A7E6AD192CBF37
S315000085D001230023D1E6AD192CBF0122002205E7B5
S315000085E0C9182CBF0123002330E7AD192CBF012386
S315000085F000235BE752192CBF0125002588E7216877
S3150000860041F82250B7E72DE9F04F99B0CDE90312B2
S31500008610824600211046FFF7E4F80028C0F2F681F2
S3150000862005D16FF00B03184619B0BDE8F08F4FF077
S315000086300109DDE90301924BADF83090149315ABB7
S31500008640ADF83890CDF84090CDF848901393FDF7EB
S315000086504FFF013019D1BAF1000F06D050460399E9
S31500008660FFF75CFB002840F0B28100215046FFF77F
S31500008670B8F80028C0F2B98150460499FDF767FFA3
S31500008680002880F2B9810023CDE7002503990BA8C5
S315000086900B95ADF83250FFF741FB0B9E0446BDF833
S315000086A03270002840F09A810D90ADF83A00049996
S315000086B00DA8FFF733FB0D9B0546BDF83A800193E5
S315000086C0002840F09081039B0F90D9880FA80231B3
S315000086D0ADF83890ADF83090FFF7DBF9044628B1D5
S315000086E02C460F9B02936FF00F03A8E001460FA8DC
S315000086F0FFF761FB0F9B02930028F4D1039B1190B7
S31500008700D98811A80231FFF7C4F9119C0246002846
S31500008710E9D10DA8FFF79CF800F01F001F287AD0BA
S31500008720C0F11F0319460BA80593FFF796FB0B9E96
S31500008730BDF832700028D6D105990DA8FFF78DFB3C
S315000087400D9BBDF83A8001930028CCD1C1463D4629
S31500008750A7EB080B4FEA4B130793019B4FEA4B110C
S315000087600DA80D93ADF83A80FFF777FB0D9BBDF88A
S315000087703A8001930028B6D1029B03EB8B0B019B39
S315000087800DA90BA80B96ADF832700D93ADF83A8093
S31500008790FDF7DDFE002842DA09F1FF3307990DA83F
S315000087A00693FFF790F8019B09F1FF3203EB820372
S315000087B00793019A09F18043023B02EB830305F11B
S315000087C0FF3B05F180450893013D029BA5EB09059A
S315000087D003EB8505069B5B4554D3BAF1000F18D011
S315000087E005990BA80B96ADF83270FFF76CF8039B52
S315000087F00BA99B885046ADF83030FFF78FFA01463B
S3150000880000287FF470AF5046FEF7EBFF002800F01B
S31500008810DA80002313E0C1463D46059298E7DBF86F
S3150000882000300BA90133CBF8003008460DAAFFF73C
S315000088308DFC0B9E0346BDF8327000289FD00BA816
S3150000884003930B96ADF83270FFF705F9019B0DA85F
S315000088500D93ADF83A80FFF7FEF8029B0FA80F9331
S31500008860FFF7F9F811A81194FFF7F5F80C2115A8F0
S31500008870FFF7DCF8039B002B3FF4F7AED3E600BF0F
S3150000888001000300079B56F82B101A684FEA8B0964
S31500008890A9F104003318914209934AD200233058B3
S315000088A01BF0DCF8002914BF4FF0FF330346BBF181
S315000088B0010F2B600EBF0023B14459F8083C1593F5
S315000088C0099B1B68169306EB8B031B6817932B6893
S315000088D001332B602B680021013B2B6011A81194FA
S315000088E0FFF769FA119C00287FF4FDAE069B1BB3C7
S315000088F0089B1B682360079B11A91B6808466360D9
S315000089002A68FFF768FC119C00287FF4ECAE13A9D7
S3150000891011A8FDF71CFE0028DCDC019B2A680DA9C6
S3150000892011A80D93ADF83A80FFF755FC30B1119CB4
S31500008930D9E64FF0FF33BAE7069BDBE76FF0070394
S31500008940029A4FEAC50902FB039911A84946FFF7A7
S3150000895084FA119C00287FF4C6AE0BA9084611AA1A
S315000089600B96ADF83270FFF7F1FB0B9E0346BDF890
S31500008970327000287FF463AF01460BA8FEF731FF83
S3150000898000281CDA0DA911A8FFF7C8F90028CED1D6
S31500008990494611A8FFF761FA119C00287FF4A3AE9F
S315000089A00BA9084611AAFFF7B3FB0B9E0346BDF8B9
S315000089B0327000287FF443AF2B68013B2B600BF12C
S315000089C0FF3B043D06E70123AAF8043021E7002413
S315000089D0A046274626460294019484E62C46A846DD
S315000089E0029501957FE602947DE651465046049A2B
S315000089F0FFF78EFB03463EE751465046049AFFF7C3
S31500008A00A5FB034600283FF437AE0CE66FF00903DA
S31500008A1009E62DE9F04F99B001900D461046012167
S31500008A209146FEF7DEFE002840F304820123002271
S31500008A30294614A8CDE91023CDE91223CDE9082350
S31500008A40CDE91423CDE916230F930D930B930793CA
S31500008A5005930393FFF762F988B36FF00F0B14A821
S31500008A60FEF7F9FF16A8FEF7F6FFBBF1000F40F080
S31500008A70C581012112A8FEF7B4FE0446002840F085
S31500008A80C4814A46294610A8FFF7BDFD8346002843
S31500008A9040F0B5810E9010A90EA8FFF73FF90E9C85
S31500008AA028B9494608A8FFF739F900286AD00026F0
S31500008AB0B046B246354637466FF00F0B6CE1494675
S31500008AC016A8FFF72BF90028C7D114A8FDF7D6FF83
S31500008AD0064616A8FDF7D2FF044650B9014616A869
S31500008AE0FDF7F6FC28B9294612A8FFF717F98346C1
S31500008AF0B5E70123ADF85C30ADF85430002114A879
S31500008B00FEF76FFE80B9A642314616A828BF214659
S31500008B10FFF7A3F90028A0D116A912A8FFF7FEF8BF
S31500008B20834600289BD098E714A8FDF7A7FF0146C7
S31500008B3014A8FEF7C8FE16A8FDF7A0FF014616A862
S31500008B40FEF7C1FE16A914A8FDF701FD00280DDBEE
S31500008B5014A9084616AAFFF7D0F9834600287FF421
S31500008B607EAF012114A8FEF7AEFEC7E716A9084698
S31500008B7014AAFFF7C2F9834600287FF470AF0121DB
S31500008B8016A8F0E7494606A8CDF818B0FFF7C6F8CC
S31500008B90DDF818A0002840F0418101210CA8CDF88D
S31500008BA030B0FFF708F90C9E002840F03A8159468C
S31500008BB00AA8CDF828B0FFF7FEF8DDF828800028CF
S31500008BC040F03381594604A8CDF810B0FFF7F3F80A
S31500008BD0049D002840F02C81012102A8CDF808B0A0
S31500008BE0FFF7E9F8029F00287FF466AF2368D807ED
S31500008BF052D5DAF80030DB077CD506A90EA80E940C
S31500008C00CDF818A0FDF7A3FC0028C0F29E800EA99F
S31500008C10084606AAFFF79AFA0E9C8346002840F0FB
S31500008C20BB800CA9084604AA0C960495FFF78EFA99
S31500008C300C9E8346002840F0AF800AA9084602AA87
S31500008C40CDF828800297FFF781FADDF82880834661
S31500008C50002840F0A18000210EA80E94FEF7C1FD69
S31500008C600028C3D1002104A80495FEF7BAFD002808
S31500008C70C0F28880494604A80495FDF768FC0028E0
S31500008C8080F2B180019804A9FFF748F8B0F1000B13
S31500008C9018BF6FF00F0B7FE001210EA80E94FEF7B0
S31500008CA012FE3368DA0703D4D8F80030DB0715D58F
S31500008CB00CA9084608AA0C96FFF72AFA0C9E8346CA
S31500008CC0002869D10AA9084610AACDF82880FFF71E
S31500008CD03DFADDF82880834600285DD101210CA8E5
S31500008CE00C96FEF7F0FD01210AA8CDF82880FEF7C4
S31500008CF0EAFD7BE7012106A8CDF818A0FEF7E3FD03
S31500008D002B68D90702D43B68DA0713D504A90846AD
S31500008D1008AA0495FFF7FCF9049D834600283BD179
S31500008D2002A9084610AA0297FFF710FA029F834687
S31500008D30002831D1012104A80495FEF7C4FD0121C4
S31500008D4002A80297FEF7BFFD53E706A908460EAA3A
S31500008D50FFF7FCF9DDF818A08346E8B904A9084630
S31500008D600CAA04950C96FFF7F1F9049D834698B971
S31500008D7002A908460AAA0297CDF82880FFF7E6F965
S31500008D80029F64E704A94A460846FFF7C1F9049D15
S31500008D90834600283FF466AF10A8FEF75CFE0EA8D7
S31500008DA00E94FEF758FE0CA80C96FEF754FE0AA881
S31500008DB0CDF82880FEF74FFE12A8FEF74CFE08A855
S31500008DC0FEF749FE06A8CDF818A0FEF744FE04A853
S31500008DD00495FEF740FE02A80297FEF73CFE5846B1
S31500008DE019B0BDE8F08F04A94A460846FFF7AEF968
S31500008DF0049D834600283FF43DAFCDE70024264678
S31500008E00A046A24625462746C6E75C465E46D846A5
S31500008E10DA465D465F466FF00D0BBDE75E46D84607
S31500008E2048E6D8465D465F4646E65D465F4643E60B
S31500008E305F4641E66FF0030BD1E72DE9F04F16468A
S31500008E401D46002201238BB0B14281460C46CDE976
S31500008E500623CDE908231ED106A8FEF75FFFC8B199
S31500008E606FF00F03029308A8FEF7F5FD06A8FEF7BC
S31500008E70F2FD029B002B40F0B080D9F84850002D3F
S31500008E8070D12146204609F104020BB0BDE8F04F2F
S31500008E90FFF7B9BB06AEAC4206D1214608A8FEF7DD
S31500008EA03DFF0028DCD108ADB6F80680B8F1000F0A
S31500008EB036D1B8FA88F3EF885B09002F3AD1002F34
S31500008EC008BF43F0010308EB070A51462046049306
S31500008ED0FEF7DFFD01460028C2D12046FEF76BFFF4
S31500008EE002900028BCD132682368014603921846D6
S31500008EF04FEA8A02D5F800B01AF0D2FFABF1040AA5
S31500008F00834600EB870708F10101BB451BD1049B93
S31500008F1033BBB388AA8813FB02F39BB2A380A2E7F4
S31500008F20336803EB880353F8043C002BC1D108F1E6
S31500008F30FF38BBE72A6802EB870252F8042C002AA6
S31500008F40BDD1013FB9E75AF8043F58460093039A4A
S31500008F50434605910BF1040B0FF0E8FF0599D4E7A2
S31500008F600123DBE7B4F90430002B04DA204602992A
S31500008F70FEF737FCA0BB2046FEF76AFCD9F83C306A
S31500008F80B0EB430F2CD82046A847054680B909F117
S31500008F900406B4F90430002B04DA00212046FEF75B
S31500008FA020FC48B931462046FDF7D1FA00280CDAF4
S31500008FB028460BB0BDE8F08F324621462046FFF723
S31500008FC0A7F80028E5D00546F2E7324621462046B6
S31500008FD0FEF793FF0028E5D0F5E76FF00F05E7E70A
S31500008FE0004DE5E780B0FFFF2DE9F74301F11006DC
S31500008FF00546894630460021FEF7F3FB0446A0B33A
S3150000900000230127314668462A1DCDE90037FFF7C0
S3150000901000FD044630BB09F108086B46424641464E
S315000090202846FFF70AFF0446E0B96B466A466946DA
S315000090302846FFF702FF0446A0B96B464A46494652
S315000090402846FFF7FAFE044660B96B46424641469B
S315000090502846FFF7F2FE044620B939463046FEF7A9
S31500009060AAFE04466846FEF7F6FC204603B0BDE8B5
S31500009070F0832DE9F84F1E4603F10805C368044640
S315000090808A469046002B40F0A58002F110031A464E
S315000090902946FFF7D2FE002840F09A8006F1100715
S315000090A02B46424639462046FFF734F8002840F062
S315000090B08F8006F118092B46424649462046FFF79F
S315000090C048F8002840F084804B463A462946204618
S315000090D0FFF7B3FE00287BD1032229463046FFF76F
S315000090E07AF8002872D131462046FEF77CFF002828
S315000090F06ED108F1080B06F110075B465A46394651
S315000091002046FFF79AFE002862D1394620460FF026
S315000091101DFA00285CD13B46424629462046FFF709
S315000091208CFE002854D1294620460FF00FFA00285D
S315000091304ED106F118093B463A4649462046FFF706
S315000091407CFE002844D1494620460FF0FFF900284E
S315000091503ED13346324639462046FFF76EFEB8BB4F
S315000091602B463A4639462046FEF7F3FF80BB2B4690
S315000091703A4639462046FEF7ECFF48BB3B462A46B0
S3150000918029462046FEF7E5FF10BB33462A46294608
S315000091902046FFF752FED8B94B462A4629462046B6
S315000091A0FEF7D7FFA0B95A464946204608F11003F4
S315000091B0FFF743FE60B9494620460FF0C7F938B9B4
S315000091C039465046FEF7AAFD002841D06FF00F0041
S315000091D0BDE8F88F13462946FFF72FFE0028F7D182
S315000091E0032229463046FEF7F6FF0028EED1314627
S315000091F02046FEF7F8FE0028EAD104F10C070146E6
S315000092003846FEF7EEFA00283FF473AF08F1100374
S315000092101A4629462046FFF710FE0028D8D106F147
S3150000922010092B462A4649462046FFF706FE002827
S31500009230CED13B464A4629462046FFF7FEFD00288A
S31500009240C6D12B46324631462046FEF763FF4EE72F
S3150000925029460AF10800FEF761FD0028B6D1494605
S315000092600AF11000BDE8F84FFEF758BD2DE9F14FA1
S315000092709A461B6904460E4691460A9D002B00F04D
S31500009280D38002F1100700213846FEF7AAFA30B95A
S315000092905146304601B0BDE8F04FFEF775BD0AF104
S315000092A0100800214046FEF79CFA08B94946F0E747
S315000092B001214046FEF795FA002840F0B5803B466E
S315000092C03A4629462046FFF7B8FD002840F0AD8013
S315000092D005F108083B462A4641462046FFF7ADFD04
S315000092E0002840F0A28053462A4629462046FFF72A
S315000092F0A4FD002840F099804246414620460AF1E6
S315000093000803FFF79AFD002840F08F804B462A4657
S3150000931029462046FEF71DFF002840F0868009F109
S31500009320080B5B46424641462046FEF712FF0028E0
S315000093307BD100212846FEF754FA014688B94046FB
S31500009340FEF74FFA38B92B464A463146204601B059
S31500009350BDE8F04F8DE6304601B0BDE8F04FFEF7B0
S315000093603EBD2B463A46204606F11001FFF765FD45
S3150000937000285AD105F110072B462A4639462046C1
S31500009380FFF75BFD002850D105F1180A2B463A4637
S3150000939051462046FFF751FD002846D14B463A4636
S315000093A039462046FFF749FD00283ED13946284672
S315000093B0FEF7B4FCE0BB294620460FF0C7F8A0BB79
S315000093C04346424631462046FFF737FD68BB2B46EB
S315000093D0324631462046FEF7BCFE30BB5346324687
S315000093E031462046FEF7B5FEF8B933463A463946C9
S315000093F02046FEF7AEFEC0B943463A4639462046F9
S31500009400FFF71BFD88B95B46524651462046FFF7DB
S3150000941014FD50B953463A46204606F1080101B0FC
S31500009420BDE8F04FFEF795BE034801B0BDE8F08FEA
S315000094306FF00F00F9E700BF80B0FFFF2DE9F043A2
S315000094400E460546012189B006F11000FEF7C9F95E
S315000094500446002840F0E2802846FEF74FFA02282C
S31500009460804660D13046FEF7F3F92B6C07300733A0
S31500009470C008B0EBD30F00F2D18021463046FEF78C
S31500009480B0F90028C0F2CA800123314604A82F781B
S3150000949004940593FEF742FC002841D10435294681
S315000094A004A8FDF754F8002807DA012104A8FEF7FE
S315000094B098F9002810DC5B4C07E004A92A46084608
S315000094C0FEF744FE04460028E9D004A8FEF7C3FAD6
S315000094D0204609B0BDE8F083092F0BD1524904A8F4
S315000094E0FDF735F80028E6D0504904A8FDF72FF817
S315000094F00028E0D0012302934FF0011304A907933B
S31500009500084602AB06AA0693FEF702FE04460028AA
